:100000000C9465000C948D000C948D000C948D0064
:100010000C948D000C948D000C948D000C948D002C
:100020000C948D000C948D000C948D000C948D001C
:100030000C948D000C948D000C948D000C948D000C
:100040000C9466060C948D000C94B9070C94070868
:100050000C948D000C948D000C948D000C948D00EC
:100060000C9473040C948D00000000002400270001
:100070002A0000000000250028002B0000000000DE
:1000800023002600290004040404040404040202DA
:100090000202020203030303030301020408102007
:1000A0004080010204081020010204081020000012
:1000B0000007000201000003040600000000000029
:1000C0000000100169037309090111241FBECFEF5D
:1000D000D8E0DEBFCDBF12E0A0E0B1E0E2E2F5E2A1
:1000E00002C005900D92A436B107D9F713E0A4E63B
:1000F000B2E001C01D92AF3EB107E1F710E0C8ECDD
:10010000D0E004C02297FE010E948012C23CD107B9
:10011000C9F70E94C9090C9484120C9400001F9323
:10012000FC0199278827BC01E89411911032E9F36A
:10013000193010F01E30C8F31B3251F01D3249F453
:10014000689406C00E94CF00610F711D811D911D32
:10015000119110531A30B0F33EF49095809570953C
:1001600061957F4F8F4F9F4F1F910895FB01DC01D9
:1001700002C001900D9241505040D8F70895FB0104
:10018000DC018D91019080190110D9F3990B08952C
:10019000FB01DC0101900D920020E1F70895592F39
:1001A000482F372F262F660F771F881F991F660F3E
:1001B000771F881F991F620F731F841F951F660F7B
:1001C000771F881F991F089581309105A1F46F5FF3
:1001D0007F4FF1F484E692E060E071E00E94650DEB
:1001E00080E792E064E071E00E94650D87E792E0AD
:1001F0000E9422060895892B59F46F5F7F4F41F4C6
:1002000080E792E00E94020E84E692E00E94020ED5
:10021000089580E090E06FEF7FEF0E94E400089582
:1002200081E090E06FEF7FEF0E94E40008950F936C
:100230001F93EAE7F0E080818460808380818D7F76
:10024000808380818E7F80838CE08093B80087E7F5
:1002500092E060E60E94230609EC13E0C80140E842
:1002600055E260E070E00E944208C80166E071E07B
:100270000E941D0C1F910F91089580E10E9442077A
:10028000AA2797FDA095BA2FBC01CD010E9422118B
:100290000895EF92FF920F931F93DF93CF93CDB703
:1002A000DEB72E970FB6F894DEBF0FBECDBF89EC38
:1002B00093E00E94C908181619066CF580E792E0D1
:1002C0006CE071E00E947F0D0FC089EC93E00E940A
:1002D000FA08682F80E792E00E941F0D6AE070E044
:1002E00080E090E00E94AE0689EC93E00E94C9088D
:1002F0001816190654F380916B02882361F089EC7B
:1003000093E06DE071E00E94230B89EC93E060E7DD
:1003100072E00E94630C8E010F5F1F4FC80160E7FF
:1003200072E041E050E00E94DF0DC8010E94880C9D
:1003300070936D0260936C02C8010E94020E8E01E0
:10034000085F1F4FC80160E772E040E050E021E025
:1003500030E00E94980D80E792E0B8010E94EB0D1A
:10036000C8010E94020E80916B028823E1F089ECA3
:1003700093E064E171E00E94230B60916C02709144
:100380006D0289EC93E04AE050E00E94F10A89ECAA
:1003900093E06DE171E00E94230B89EC93E060E74C
:1003A00072E00E94630C80E792E065E271E00E94D7
:1003B000990C882369F080916C0290916D02909362
:1003C0003B0280933A0289EC93E067E271E0E2C07D
:1003D00080E792E069E271E00E94990C882309F4B9
:1003E00094C060916C0270916D02882777FD8095B2
:1003F000982F0E94221120E030EA4AEA54E40E9439
:10040000D61120E030E04AE754E40E9487107B01D7
:100410008C0120E030E040E050E00E94D2118823BF
:100420004CF0C801B70120E030E040E05FE30E94FB
:100430001F1008C0C801B70120E030E040E05FE3D2
:100440000E941E100E94EF1097FF03C060E070E052
:1004500042C0C801B70120E030E040E050E00E9417
:10046000D21188234CF0C801B70120E030E040E011
:100470005FE30E941F1008C0C801B70120E030E010
:1004800040E05FE30E941E100E94EF106050704138
:10049000804090401CF06FEF7FE01DC0C801B701A5
:1004A00020E030E040E050E00E94D21188234CF080
:1004B000C801B70120E030E040E05FE30E941F1078
:1004C00008C0C801B70120E030E040E05FE30E94CF
:1004D0001E100E94EF1070936F0260936E02809165
:1004E0006B02882309F458C089EC93E06BE271E059
:1004F0000E94230B60916E0270916F0289EC93E071
:100500004AE050E00E94040B47C080E792E065E3B8
:1005100071E00E94990C882339F080916B0291E080
:10052000892780936B0238C080E792E064E071E035
:100530000E94990C8823B1F189EC93E067E371E0A4
:100540000E941D0C89EC93E066E471E00E94230B8D
:1005500089EC93E064E672E00E94630C89EC93E01E
:1005600069E571E00E941D0C89EC93E063E671E09F
:100570000E941D0C89EC93E06EE771E00E941D0C57
:1005800089EC93E06CE971E00E941D0C89EC93E02A
:1005900066ED71E00E941D0C80E792E06CE071E076
:1005A0000E947F0D80916B02882309F442C00E9453
:1005B0003D017B018C0189EC93E06AEF71E00E94C0
:1005C000230B89EC93E068E570E040E150E00E9485
:1005D000040B89EC93E069E072E00E94230B62E671
:1005E00070E180E495E4A80197010E948710AB01B7
:1005F000BC0189EC93E022E030E00E940A0C0E94EA
:100600003D01AB01BC0189EC93E022E030E00E94A7
:100610000A0C89EC93E064E172E00E94230B609184
:100620003A0270913B0289EC93E04AE050E00E946C
:10063000040B60916E0270916F0287E792E040E0D8
:100640000E942A062E960FB6F894DEBF0FBECDBFCD
:10065000CF91DF911F910F91FF90EF90089581E06E
:100660008093BD0260939A021092BB021092BC026A
:1006700008952091990230E080919802281B310959
:10068000C90108954091980280919902481718F085
:100690002FEF3FEF0AC0E42FF0E0E858FD4F8081D4
:1006A000282F30E04F5F40939802C9010895E091F0
:1006B000980280919902E81718F0EFEFFFEF06C05B
:1006C000F0E0E858FD4F8081E82FF0E0CF01089579
:1006D00008951092C1021092C00288EE93E0A0E04B
:1006E000B0E08093C2029093C302A093C402B0937F
:1006F000C50287E492E09093BF028093BE02089502
:10070000CF92DF92EF92FF920F931F93CF93DF93DD
:100710007C016B018A018091BD028823A1F0C0E0B9
:10072000D0E00DC0D701ED91FC91D601AC0FBD1FFB
:100730000190F081E02DC7016C9109952196C017B9
:10074000D10780F304C0CB01642F0E945804C80174
:10075000DF91CF911F910F91FF90EF90DF90CF909D
:100760000895DF93CF930F92CDB7DEB7FC01698375
:100770008091BD028823C9F08091BC02803238F09C
:1007800081E090E09383828320E030E015C0809187
:10079000BB02E82FF0E0E556FD4F998190838F5F13
:1007A0008093BB028093BC0205C0CE01019661E03C
:1007B0000E94580421E030E0C9010F90CF91DF91F1
:1007C00008950F93062F80919A026BE972E0409191
:1007D000BC0221E00E9403041092BB021092BC02F2
:1007E0001092BD020F91089561E00E94E103089507
:1007F00010929802109299021092BB021092BC02C1
:100800000E94040608950F931F93582F122F413210
:1008100010F081E04AC08091CA028823E1F782E0AB
:100820008093CA020093CC028FEF8093370310921B
:10083000F2024093F302A2EDB2E0FB0102C081910B
:100840008D938E2F861B8417D0F31092CB0280914C
:10085000CB02550F852B8093CB028091CD02813046
:1008600041F41092CD028091CB028093BB0085ECC5
:1008700001C085EE8093BC00112321F08091CA0253
:100880008230E1F3809137038F3F11F480E00DC097
:1008900080913703803211F482E007C080913703E2
:1008A000803311F084E001C083E01F910F9108951F
:1008B000482F613210F081E008958091CA0284309F
:1008C00011F082E0089560931503A4EFB2E0842F45
:1008D0009C01F90102C081918D938E2F841B861794
:1008E000D0F380E008951F920F920FB60F9211245B
:1008F0002F933F934F935F936F937F938F939F9328
:10090000AF93BF93EF93FF938091B90090E0887FFE
:1009100090708036910509F4F2C081369105CCF5CE
:100920008832910509F47BC089329105B4F4803195
:10093000910509F46FC0813191053CF4009709F4E9
:1009400047C1089709F04FC165C08831910509F486
:1009500066C0809709F047C182C08034910509F4D0
:10096000A4C08134910544F48033910509F482C018
:10097000C89709F038C189C08035910509F489C04C
:100980008835910509F496C08834910509F02BC18A
:10099000AEC08839910509F413C189399105ECF489
:1009A0008837910509F4ABC0893791054CF4883636
:1009B000910509F4A4C08037910509F014C19FC0C6
:1009C0008838910509F4FCC08039910509F49DC06F
:1009D0008038910509F007C198C0803B910509F462
:1009E000C6C0813B91054CF4803A910509F49FC043
:1009F000883A910509F0F7C0BAC0803C910509F426
:100A0000E3C0883C910509F4DFC0883B910509F0FB
:100A1000EAC0C2C08091CB028093BB00CFC090914E
:100A2000F2028091F302981768F49091F202E92F94
:100A3000F0E0EE52FD4F80818093BB009F5F90936A
:100A4000F202BCC08091CC02882309F44BC085ED32
:100A50008093BC008091BC0084FDFCCFC2C080E2CA
:100A60008093370385ED8093BC008091BC0084FDAA
:100A7000FCCFB7C080E38093370385ED8093BC0043
:100A80008091BC0084FDFCCFACC088E38093370329
:100A90009BC08091F2029091BB00E82FF0E0EE52F3
:100AA000FD4F90838F5F8093F2029091F2028091CC
:100AB000F30282C08091F2029091BB00E82FF0E037
:100AC000EE52FD4F90838F5F8093F2028091CC02B3
:100AD000882341F085ED8093BC008091BC0084FDAB
:100AE000FCCF7FC081E08093CD0284EA6EC085EDAB
:100AF0008093BC008091BC0084FDFCCF72C083E079
:100B00008093CA021092360359C080913603803216
:100B100008F056C0809136039091BB00E82FF0E0BA
:100B2000EA5EFC4F90838F5F8093360347C08091CD
:100B30003603803230F4E0913603F0E0EA5EFC4F99
:100B4000108285ED8093BC008091BC0084FDFCCFB9
:100B50001092CA0260913603E091D002F091D10266
:100B600086E193E070E00995109236032DC084E091
:100B70008093CA021092140310921503E091CE02E2
:100B8000F091CF02099580911503882329F481E023
:100B9000809315031092F40290911403E92FF0E072
:100BA000EC50FD4F80818093BB009F5F90931403B6
:100BB0009091140380911503981710F485EC01C0EF
:100BC00085E88093BC000FC085EC8093BC0009C011
:100BD0001092370385ED8093BC008091BC0084FDAA
:100BE000FCCF1092CA02FF91EF91BF91AF919F91FC
:100BF0008F917F916F915F914F913F912F910F90C6
:100C00000FBE0F901F9018951092CA0281E080933A
:100C1000CC021092CD0282E161E00E94640783E180
:100C200061E00E946407E9EBF0E080818E7F8083C1
:100C300080818D7F808388E48093B80085E48093F1
:100C4000BC0008950895FC0160838EEB92E00E9441
:100C5000F80308950F931F93CF93DF93FC01EB01EB
:100C6000142F0091B8008CE08093B8008EEB92E0D6
:100C700060810E942F03112321F08EEB92E060E649
:100C800003C08EEB92E068E50E94B103BE0194E0E0
:100C9000769567959A95E1F78EEB92E00E94B10305
:100CA00084E0CC0FDD1F8A95E1F7D0708EEB92E0E7
:100CB0006C2F0E94B1038EEB92E00E94F40300932C
:100CC000B800DF91CF911F910F9108951F920F925D
:100CD0000FB60F9211242F933F938F939F93AF934F
:100CE000BF9380913C0390913D03A0913E03B0914E
:100CF0003F03309140030196A11DB11D232F2D5FAD
:100D00002D3720F02D570196A11DB11D20934003D2
:100D100080933C0390933D03A0933E03B0933F0325
:100D20008091380390913903A0913A03B0913B032D
:100D30000196A11DB11D8093380390933903A093B0
:100D40003A03B0933B03BF91AF919F918F913F9135
:100D50002F910F900FBE0F901F9018959B01AC0123
:100D60007FB7F8948091380390913903A0913A03AA
:100D7000B0913B0366B5A89B05C06F3F19F0019683
:100D8000A11DB11D7FBFBA2FA92F982F8827860FCD
:100D9000911DA11DB11D62E0880F991FAA1FBB1FE5
:100DA0006A95D1F7BC012DC0FFB7F8948091380344
:100DB00090913903A0913A03B0913B03E6B5A89B0B
:100DC00005C0EF3F19F00196A11DB11DFFBFBA2F5D
:100DD000A92F982F88278E0F911DA11DB11DE2E02C
:100DE000880F991FAA1FBB1FEA95D1F7861B970B87
:100DF000885E9340C8F221503040404050406851D6
:100E00007C4F211531054105510571F608957894FF
:100E100084B5826084BD84B5816084BD85B58260FF
:100E200085BD85B5816085BDEEE6F0E0808181609D
:100E30008083E1E8F0E0108280818260808380819D
:100E400081608083E0E8F0E0808181608083E1EB75
:100E5000F0E0808184608083E0EBF0E0808181605D
:100E60008083EAE7F0E08081846080838081826013
:100E700080838081816080838081806880831092FC
:100E8000C1000895982F8E3008F09E509770809181
:100E90003C028295880F880F807C892B80937C0090
:100EA00080917A00806480937A0080917A0086FD38
:100EB000FCCF2091780040917900942F80E030E0C1
:100EC000282B392BC9010895482F50E0CA018255BB
:100ED0009F4FFC012491CA0186569F4FFC019491BB
:100EE0004A575F4FFA013491332309F440C022235B
:100EF00051F1233071F0243028F42130A1F0223058
:100F000011F514C02630B1F02730C1F02430D9F4E7
:100F100004C0809180008F7703C0809180008F7D16
:100F20008093800010C084B58F7702C084B58F7D18
:100F300084BD09C08091B0008F7703C08091B0005C
:100F40008F7D8093B000E32FF0E0EE0FFF1FEE588F
:100F5000FF4FA591B4912FB7F894662321F48C919B
:100F60009095892302C08C91892B8C932FBF089573
:100F700008951F920F920FB60F9211242F933F9353
:100F80004F938F939F93EF93FF938091C00082FDC7
:100F90001DC04091C60020918103309182032F5FD4
:100FA0003F4F2F73307080918303909184032817F3
:100FB000390771F0E0918103F0918203EF5BFC4F00
:100FC0004083309382032093810302C08091C60046
:100FD000FF91EF919F918F914F913F912F910F90A2
:100FE0000FBE0F901F901895E091D503F091D60396
:100FF000E05CFF4F8191919120813181821B930BA5
:101000008F739070892B11F00E94B80708951F927A
:101010000F920FB60F9211242F933F938F939F93AC
:10102000EF93FF932091C5033091C6038091C703CE
:101030009091C8032817390731F48091C1008F7D42
:101040008093C10014C0E091C703F091C803EB572F
:10105000FC4F20818091C7039091C80301968F7344
:1010600090709093C8038093C7032093C600FF91AC
:10107000EF919F918F913F912F910F900FBE0F9005
:101080001F901895AF92BF92DF92EF92FF920F934D
:101090001F93CF93DF93EC017A018B01DD24403065
:1010A00081EE580780E0680780E0780711F0DD24C2
:1010B000D39491E0A92EB12CEC89FD89DD2069F053
:1010C000C50108A002C0880F991F0A94E2F7808327
:1010D00060E079E08DE390E005C0108260E874E89C
:1010E0008EE190E0A80197010E945C1221503040EF
:1010F00040405040569547953795279580E12030E0
:10110000380720F0DD2011F0DD24D6CFE889F989F9
:101110003083EA89FB89208319A2EE89FF89408107
:1011200021E030E0C9010C8C02C0880F991F0A949D
:10113000E2F7482B4083EE89FF894081C9010D8C7D
:1011400002C0880F991F0A94E2F7482B4083EE896A
:10115000FF894081C9010E8C02C0880F991F0A9433
:10116000E2F7482B4083EE89FF8980810F8C02C013
:10117000220F331F0A94E2F7209528232083DF9162
:10118000CF911F910F91FF90EF90DF90BF90AF90A4
:101190000895DC011C96ED91FC911D97E05CFF4FDA
:1011A0002191319180819181281B390B2F733070EF
:1011B000C9010895DC011C96ED91FC911D97E05C3E
:1011C000FF4F20813181E054F040DF01AE5BBF4F23
:1011D0008D919C9111972817390719F42FEF3FEF44
:1011E00007C08D919C91E80FF91F8081282F30E076
:1011F000C9010895DC011C96ED91FC911D97E05CFE
:10120000FF4F20813181E054F040DF01AE5BBF4FE2
:101210008D919C9111972817390719F42FEF3FEF03
:1012200010C08D919C911197E80FF91F20818D912D
:101230009C91119701968F73907011969C938E9349
:1012400030E0C9010895DC0191968C919197882333
:1012500039F05496ED91FC915597808186FFF9CF36
:1012600091961C920895CF93DF93EC01EE85FF8554
:10127000E05CFF4F20813181E054F0402F5F3F4F11
:101280002F733070DF01AE5BBF4F8D919C91119732
:1012900028173907D1F3E05CFF4F80819181E0543A
:1012A000F040E80FF91F6083EE85FF85E05CFF4F9B
:1012B00031832083EE89FF89208181E090E00F8CCB
:1012C00002C0880F991F0A94E2F7282B208381E03F
:1012D00089A3EC89FD8980818064808381E090E02E
:1012E000DF91CF9108951092CC031092CB0388EE3A
:1012F00093E0A0E0B0E08093CD039093CE03A09361
:10130000CF03B093D00387E592E09093CA03809314
:10131000C90381E493E09093D6038093D50385E8D5
:1013200093E09093D8038093D70385EC90E090935B
:10133000DA038093D90384EC90E09093DC038093EC
:10134000DB0380EC90E09093DE038093DD0381EC7F
:1013500090E09093E0038093DF0382EC90E0909321
:10136000E2038093E10386EC90E09093E4038093A2
:10137000E30384E08093E50383E08093E60387E062
:101380008093E70385E08093E80381E08093E9039D
:101390000895CF93DF930E9407070E941701C4EFBF
:1013A000D7E00E9449012097E1F30E94F407F9CFAA
:1013B000CF92DF92EF92FF920F931F93CF93DF9321
:1013C0007C016B018A01C0E0D0E00FC0D6016D91B5
:1013D0006D01D701ED91FC910190F081E02DC701E5
:1013E0000995C80FD91F015010400115110571F75B
:1013F000CE01DF91CF911F910F91FF90EF90DF9081
:10140000CF900895EF92FF920F931F938C01DC0110
:10141000ED91FC910190F081E02D6DE009957C014A
:10142000D801ED91FC910190F081E02DC8016AE0B6
:1014300009959C012E0D3F1DC9011F910F91FF9031
:10144000EF900895CF93DF93EC016115710519F4C6
:1014500020E030E00FC0DB010D900020E9F711978C
:10146000A61BB70BE881F9810280F381E02DAD0165
:1014700009959C01C901DF91CF9108954F925F9228
:101480007F928F929F92AF92BF92CF92DF92EF9214
:10149000FF920F931F93DF93CF93CDB7DEB7A19742
:1014A0000FB6F894DEBF0FBECDBF2C01742ECB015A
:1014B000223008F42AE019A231E2C32ED12CCC0E3E
:1014C000DD1E822E9924AA24BB24672D752FA50129
:1014D00094010E945C1279018A01C801B701A5013B
:1014E00094010E943D12472D461B0894C108D10863
:1014F0004A3014F4405D01C0495CF6014083E114B8
:10150000F1040105110521F07E2C5F2DC801DDCF0E
:10151000C201B6010E94220AA1960FB6F894DEBF5E
:101520000FBECDBFCF91DF911F910F91FF90EF9034
:10153000DF90CF90BF90AF909F908F907F905F9003
:101540004F900895DC012115310541F4ED91FC9196
:101550000190F081E02D642F099508950E943E0AC4
:101560000895CF92DF92EF92FF920F931F93CF9344
:10157000DF93EC016A017B012115310541F4E8811B
:10158000F9810190F081E02D642F09951FC02A3068
:101590003105D1F477FF17C0E881F9810190F0811E
:1015A000E02D6DE209958C0144275527BA014C19AD
:1015B0005D096E097F09CE012AE00E943E0A98016A
:1015C000280F391F04C02AE00E943E0A9C01C9016D
:1015D000DF91CF911F910F91FF90EF90DF90CF900F
:1015E0000895EF92FF920F931F937B019A010027BA
:1015F000F7FC0095102FB801A7010E94B10A1F91B6
:101600000F91FF90EF900895CF92DF92EF92FF92AB
:101610000F931F936C017B019A010027F7FC009543
:10162000102FB801A7010E94B10A8C01C6010E94C7
:10163000020A080F191FC8011F910F91FF90EF9028
:10164000DF90CF9008950E94220A08957F928F9292
:101650009F92AF92BF92CF92DF92EF92FF920F9341
:101660001F93CF93DF934C017A018B01722ECB0134
:10167000BA01A80197010E943912882321F0C40100
:101680006BE272E021C0C0E0D0E057016801E8944D
:10169000D7F8C601B5012FEF3FEF4FE75FE70E9494
:1016A0003912882351F4C601B5012FEF3FEF4FE700
:1016B0005FE70E948310181614F0C1E0D0E0219774
:1016C00039F0C4016FE272E00E94220AEC0193C07B
:1016D000C801B7012FEF3FEF4FE75FE40E94D2113F
:1016E000181654F0C801B7012FEF3FEF4FE75FEC3A
:1016F0000E948310882324F4C40163E372E0E4CFE2
:10170000C801B70120E030E040E050E00E948310C3
:1017100087FD03C0C0E0D0E00EC0D401ED91FC9184
:101720000190F081E02DC4016DE20995EC0117FBF9
:10173000109517F9109520E030E040E05FE3DD24DC
:101740000BC0CA01B90120E030E040E251E40E9440
:1017500087109B01AC01D394D71498F3C801B7014B
:101760000E941F105B016C010E94F4107B018C0130
:10177000C401B801A7012AE030E00E94A20AC80F04
:10178000D91F772039F0C40167E372E00E94220A72
:10179000C80FD91FC801B7010E9420119B01AC01DD
:1017A000C601B5010E941E1024C020E030E040E2D6
:1017B00051E40E94D6117B018C010E94EF105B0165
:1017C0006C01CC24B7FCC094DC2CC401B601A5018B
:1017D0002AE030E00E94B10AC80FD91FC601B50146
:1017E0000E9422119B01AC01C801B7010E941E108A
:1017F0007A947720D1F6CE01DF91CF911F910F918E
:10180000FF90EF90DF90CF90BF90AF909F908F9020
:101810007F900895EF92FF920F931F937C010E9497
:10182000260B8C01C7010E94020A080F191FC8016C
:101830001F910F91FF90EF900895EF92FF920F93F9
:101840001F937C010E94220A8C01C7010E94020A98
:10185000080F191FC8011F910F91FF90EF90089575
:10186000AF92BF92CF92DF92EF92FF920F931F93AE
:10187000CF93DF935C016B01EE24FF24C0E0D0E046
:1018800010C0D501ED91FC9100811181C601BE010E
:101890000E94770C682FC501F8010995E80EF91E22
:1018A0002196F60184819581C817D90750F3C701A5
:1018B000DF91CF911F910F91FF90EF90DF90CF902C
:1018C000BF90AF900895EF92FF920F931F937C010A
:1018D0000E94300C8C01C7010E94020A9C01200F5B
:1018E000311FC9011F910F91FF90EF900895FC01E6
:1018F000848195816817790748F40190F081E02D83
:10190000309721F0E60FF71F8081089580E0089559
:10191000FC0180819181009729F420E030E040E0D3
:1019200050E004C00E948F009B01AC01B901CA01C4
:101930000895DC01FB0114968D919C911597892BDC
:1019400031F461157105A9F090E0808108C00D9017
:10195000BC91A02D6115710529F490E08C9188232C
:1019600049F407C0CD010E94BF009C0190E0232BE9
:1019700009F491E0892F08950F931F93CF93DF937C
:10198000EC018B016F5F7F4F888199810E943D0F31
:10199000009711F480E005C0998388831B830A8334
:1019A00081E0DF91CF911F910F910895CF93DF9345
:1019B000EC0188819981892B29F08A819B81861786
:1019C000970760F4CE010E94BC0C882341F08C8103
:1019D0009D81892B19F4E881F981108281E0DF91E2
:1019E000CF910895EF92FF920F931F93CF93DF93C0
:1019F000EC017B016C817D81E114F104C1F04115A2
:101A0000510599F08A01060F171FB8010E94D60CE4
:101A1000882369F0888199812C813D81820F931FF1
:101A2000B7010E94C8001D830C8381E001C080E0E3
:101A3000DF91CF911F910F91FF90EF900895DF9369
:101A4000CF9300D0CDB7DEB769831A82BE016F5F36
:101A50007F4F41E050E00E94F20C0F900F90CF9129
:101A6000DF910895CF93DF93EC01888199810097EE
:101A700011F00E94A50E198218821D821C821B8201
:101A80001A82DF91CF910895EF92FF920F931F93E7
:101A9000CF93DF93EC017B018A01BA010E94D60C3F
:101AA000882321F4CE010E94320D07C01D830C83D0
:101AB00088819981B7010E94C800CE01DF91CF9142
:101AC0001F910F91FF90EF900895CF93DF93EC015A
:101AD000198218821B821A821D821C821E82611545
:101AE000710551F0DB010D900020E9F71197A61B5D
:101AF000B70BAD010E94440DDF91CF9108950F9374
:101B00001F93182F092F6115710559F0DB010D90F6
:101B10000020E9F71197A61BB70BAD010E94440DF9
:101B200002C00E94320D812F902F1F910F910895B6
:101B3000BF92CF92DF92EF92FF920F931F93CF93BA
:101B4000DF93082FB92E6B017A01E90124173507BD
:101B500010F4EA017901802F9B2D69E372E00E9465
:101B6000650DD60114968D919C9115978E159F0544
:101B7000D0F08C179D0708F4EC01D601ED91FC9193
:101B80001197EC0FFD1F108110826D917C916E0DED
:101B90007F1D802F9B2D0E947F0DD601ED91FC9122
:101BA000EC0FFD1F1083802F9B2DDF91CF911F9194
:101BB0000F91FF90EF90DF90CF90BF9008950F931B
:101BC0001F938C01FB01248135810E94980DC8016F
:101BD0001F910F910895CF93DF93EC01FB018617BE
:101BE000970761F0608171816115710529F0448169
:101BF00055810E94440D02C00E94320DCE01DF913A
:101C0000CF910895FC01808191810E94A50E0895D5
:101C10000F931F93CF93DF93BC018230910510F493
:101C200062E070E0E091ED03F091EE0340E050E0FF
:101C3000A0E0B0E024C08081918186179707D0F0A2
:101C40008617970771F482819381109729F0139674
:101C50009C938E9312972CC09093EE038093ED0388
:101C600027C04115510519F08417950718F48D0107
:101C7000AC01EF01DF01828193819C01F901309772
:101C8000D1F641155105F9F0CA01861B970B843036
:101C9000910580F48A819B810115110521F0F801DD
:101CA0009383828304C09093EE038093ED03FE013F
:101CB000329645C0FE01E80FF91F619371930297B8
:101CC000998388833CC08091EB039091EC03892B2E
:101CD00041F480913F02909140029093EC038093F5
:101CE000EB0340914102509142024115510541F4EC
:101CF0004DB75EB780913D0290913E02481B590B53
:101D00002091EB033091EC0324173507B0F4CA019E
:101D1000821B930B8617970780F0AB014E5F5F4FD6
:101D20008417950750F0420F531F5093EC034093D4
:101D3000EB03F9016193719302C0E0E0F0E0CF01A1
:101D4000DF91CF911F910F910895CF93DF939C0165
:101D5000009709F48FC0EC0122971B821A826091D0
:101D6000ED037091EE036115710581F4888199810D
:101D7000820F931F2091EB033091EC032817390752
:101D800039F5D093EC03C093EB0374C0DB0140E062
:101D900050E0AC17BD0708F1BB83AA83FE01219177
:101DA0003191E20FF31FAE17BF0779F48D919C912B
:101DB0001197280F391F2E5F3F4F398328831296C2
:101DC0008D919C9113979B838A834115510571F4E2
:101DD000D093EE03C093ED034DC012968D919C916C
:101DE0001397AD01009711F0DC01D3CFDA01139600
:101DF000DC93CE931297FA0121913191E20FF31FF8
:101E0000CE17DF0769F488819981280F391F2E5F6B
:101E10003F4FFA01318320838A819B8193838283A0
:101E2000E0E0F0E0DB0112968D919C911397009712
:101E300019F0BC01FD01F6CFAB014E5F5F4FDB0136
:101E40008D919C91840F951F2091EB033091EC03B1
:101E50002817390779F4309729F41092EE0310927D
:101E6000ED0302C013821282425050405093EC03A3
:101E70004093EB03DF91CF9108956F927F928F9201
:101E80009F92AF92BF92CF92DF92EF92FF920F9309
:101E90001F93CF93DF938C01009729F4CB010E940D
:101EA000080E8C01BBC08EEFE82E8FEFF82EE00EEF
:101EB000F11E4801860E971E8E149F0408F4ACC0D4
:101EC000D7014D915C91119746175707B8F04530EF
:101ED000510508F4A3C0CA0104978617970708F4B0
:101EE0009DC042505040461B570BF4014193519303
:101EF0006D937C93CF010E94A50E90C05B01A41A44
:101F0000B50A3801640E751EA091ED03B091EE0381
:101F1000E0E0F0E0CC24DD2447C0A615B705A9F524
:101F2000CD91DC911197CE0102968A159B0568F13F
:101F3000CE018A199B09029612962C91129713963C
:101F40003C91059758F0F40122833383CA19DB09C9
:101F5000D183C083D7016D937C9309C04E5F5F4FDF
:101F60004C0F5D1FF70151834083C901FC01C1146F
:101F7000D10431F0D6011396FC93EE9312974EC024
:101F8000F093EE03E093ED0349C08D919C9111977E
:101F9000E817F90708F4FC016D0112968C9112976D
:101FA00013969C919C01D901109709F0B6CF8091AE
:101FB000EB039091EC0386159705E9F4E617F70714
:101FC000D0F420914102309142022115310541F4B3
:101FD0002DB73EB780913D0290913E02281B390BF0
:101FE00082169306C8F49092EC038092EB03F701FB
:101FF0007183608313C0CB010E94080EEC0100972F
:1020000059F0D7014D915C91B8010E94B600C8010A
:102010000E94A50E8E0102C000E010E0C801DF9111
:10202000CF911F910F91FF90EF90DF90CF90BF90D5
:10203000AF909F908F907F906F9008955058BB27DE
:10204000AA270ED075C166D130F06BD120F031F4E3
:102050009F3F11F41EF45BC10EF4E095E7FB51C104
:10206000E92F77D180F3BA176207730784079507C2
:1020700018F071F49EF58FC10EF4E0950B2EBA2F77
:10208000A02D0B01B90190010C01CA01A00111247E
:10209000FF27591B99F0593F50F4503E68F11A162A
:1020A000F040A22F232F342F4427585FF3CF4695BB
:1020B00037952795A795F0405395C9F77EF41F16DD
:1020C000BA0B620B730B840BBAF09150A1F0FF0FA7
:1020D000BB1F661F771F881FC2F70EC0BA0F621F93
:1020E000731F841F48F4879577956795B795F79583
:1020F0009E3F08F0B3CF9395880F08F09927EE0F15
:10210000979587950895D9D008F481E008950CD06B
:102110000FC107D140F0FED030F021F45F3F19F03D
:10212000F0C0511139C1F3C014D198F39923C9F308
:102130005523B1F3951B550BBB27AA2762177307CD
:10214000840738F09F5F5F4F220F331F441FAA1F81
:10215000A9F333D00E2E3AF0E0E830D09150504041
:10216000E695001CCAF729D0FE2F27D0660F771FEF
:10217000881FBB1F261737074807AB07B0E809F0D1
:10218000BB0B802DBF01FF2793585F4F2AF09E3F66
:10219000510568F0B6C000C15F3FECF3983EDCF338
:1021A000869577956795B795F7959F5FC9F7880FDF
:1021B000911D9695879597F90895E1E0660F771F31
:1021C000881FBB1F621773078407BA0720F0621BC2
:1021D000730B840BBA0BEE1F88F7E095089504D0BB
:1021E0006894B111D9C00895BCD088F09F5790F081
:1021F000B92F9927B751A0F0D1F0660F771F881F2C
:10220000991F1AF0BA95C9F712C0B13081F0C3D046
:10221000B1E00895C0C0672F782F8827B85F39F0E4
:10222000B93FCCF3869577956795B395D9F73EF48A
:1022300090958095709561957F4F8F4F9F4F089532
:10224000E89409C097FB3EF4909580957095619550
:102250007F4F8F4F9F4F9923A9F0F92F96E9BB2706
:102260009395F695879577956795B795F111F8CF82
:10227000FAF4BB0F11F460FF1BC06F5F7F4F8F4FED
:102280009F4F16C0882311F096E911C0772321F0E3
:102290009EE8872F762F05C0662371F096E8862F7B
:1022A00070E060E02AF09A95660F771F881FDAF7D2
:1022B000880F9695879597F90895990F0008550FFF
:1022C000AA0BE0E8FEEF16161706E807F907C0F0BC
:1022D00012161306E407F50798F0621B730B840BC4
:1022E000950B39F40A2661F0232B242B252B21F49E
:1022F00008950A2609F4A140A6958FEF811D811D3E
:10230000089597F99F6780E870E060E008959FEF77
:1023100080EC089500240A9416161706180609067C
:10232000089500240A94121613061406050608954B
:10233000092E0394000C11F4882352F0BB0F40F4D3
:10234000BF2B11F460FF04C06F5F7F4F8F4F9F4F13
:10235000089557FD9058440F551F59F05F3F71F095
:102360004795880F97FB991F61F09F3F79F08795FC
:102370000895121613061406551FF2CF4695F1DF85
:1023800008C0161617061806991FF1CF8695710515
:10239000610508940895E894BB2766277727CB0149
:1023A00097F908958ADF08F48FEF08950BD0C0CF16
:1023B000B1DF28F0B6DF18F0952309F0A2CFA7CF40
:1023C0001124EACFC6DFA0F3959FD1F3950F50E01B
:1023D000551F629FF001729FBB27F00DB11D639FD7
:1023E000AA27F00DB11DAA1F649F6627B00DA11D7D
:1023F000661F829F2227B00DA11D621F739FB00D23
:10240000A11D621F839FA00D611D221F749F332792
:10241000A00D611D231F849F600D211D822F762F2B
:102420006A2F11249F5750408AF0E1F088234AF028
:10243000EE0FFF1FBB1F661F771F881F9150504074
:10244000A9F79E3F510570F05CCFA6CF5F3FECF33C
:10245000983EDCF3869577956795B795F795E79560
:102460009F5FC1F7FE2B880F911D9695879597F971
:10247000089523DF880B990B0895629FD001739F05
:10248000F001829FE00DF11D649FE00DF11D929F10
:10249000F00D839FF00D749FF00D659FF00D99274F
:1024A000729FB00DE11DF91F639FB00DE11DF91F73
:1024B000BD01CF0111240895A1E21A2EAA1BBB1B56
:1024C000FD010DC0AA1FBB1FEE1FFF1FA217B30700
:1024D000E407F50720F0A21BB30BE40BF50B661F16
:1024E000771F881F991F1A9469F7609570958095DA
:1024F00090959B01AC01BD01CF010895EE0FFF1F28
:102500000590F491E02D099410E0C8ECD0E004C0EF
:10251000FE010E9480122296CA3CD107C9F7F894A6
:02252000FFCFEB
:10252200312E30004800526561647900006D736796
:10253200313A20004E756D6265723A20002C206D92
:1025420073673A200052002E004900495F536574B8
:102552005F493A200044004C6F6164636F6E74728D
:102562006F6C6C6572004669726D776172652020CE
:1025720056657273696F6E3A00436F6D6D616E647A
:10258200733A0048202020203A207072696E7473DA
:102592002074686973206D6173736167650049789F
:1025A2007878783A207365742043757272656E7418
:1025B20020746F2078787878206D4100527878788E
:1025C200783A2073657420526573697374616E631F
:1025D2006520746F20787878204F686D20286E6FA0
:1025E2007420496D706C656D656E746564207965E3
:1025F20074212121290044202020203A20746F6771
:10260200676C65206465627567206D6F6465206F15
:102612006E20616E64206F666600444143205265FD
:102622006769737465723A200056726566205B565C
:102632005D3A2000526573697374616E63653A2076
:1026420000495F7365745F523A20006E616E0069E3
:102652006E66006F7666002E0000C800018000EFF3
:1026620003000000000000B1038003390342035756
:10267200036803000000003309D809C908FA08DA20
:042682000823090020
:00000001FF
