:100000000C9465000C948D000C948D000C948D0064
:100010000C948D000C948D000C948D000C948D002C
:100020000C948D000C948D000C948D000C948D001C
:100030000C948D000C948D000C948D000C948D000C
:100040000C94E5050C948D000C9416070C94640731
:100050000C948D000C948D000C948D000C948D00EC
:100060000C94F2030C948D00000000002400270083
:100070002A0000000000250028002B0000000000DE
:1000800023002600290004040404040404040202DA
:100090000202020203030303030301020408102007
:1000A0004080010204081020010204081020000012
:1000B0000007000201000003040600000000000029
:1000C00000000601E802D008FF0011241FBECFEF98
:1000D000D8E0DEBFCDBF11E0A0E0B1E0E0ECF1E29E
:1000E00002C005900D92A237B107D9F712E0A2E73E
:1000F000B1E001C01D92A63FB107E1F710E0C8ECE6
:10010000D0E004C02297FE010E94CF10C23CD1076C
:10011000C9F70E9426090C94D3100C9400001F9379
:10012000FC0199278827BC01E89411911032E9F36A
:10013000193010F01E30C8F31B3251F01D3249F453
:10014000689406C00E94CF00610F711D811D911D32
:10015000119110531A30B0F33EF49095809570953C
:1001600061957F4F8F4F9F4F1F910895FB01DC01D9
:1001700002C001900D9241505040D8F70895FB0104
:10018000DC018D91019080190110D9F3990B08952C
:10019000FB01DC0101900D920020E1F70895592F39
:1001A000482F372F262F660F771F881F991F660F3E
:1001B000771F881F991F620F731F841F951F660F7B
:1001C000771F881F991F08958130910571F46F5F23
:1001D0007F4FA1F487E791E060E071E00E94BC0BE3
:1001E0008EE791E00E94A1050895892B39F46F5F95
:1001F0007F4F21F487E791E00E94590C089580E039
:1002000090E06FEF7FEF0E94E400089581E090E0BE
:100210006FEF7FEF0E94E4000895EF92FF920F933B
:100220001F93DF93CF93CDB7DEB72E970FB6F89419
:10023000DEBF0FBECDBF80ED92E00E9426081816EB
:1002400019066CF587E791E060E071E00E94D60B3B
:100250000FC080ED92E00E945708682F87E791E079
:100260000E94760B6AE070E080E090E00E942D062C
:1002700080ED92E00E9426081816190654F380912A
:100280007201882361F080ED92E061E071E00E94EC
:10029000710A80ED92E067E771E00E94BA0A8E0170
:1002A0000F5F1F4FC80167E771E041E050E00E9417
:1002B000360CC8010E94DF0A7093740160937301C9
:1002C000C8010E94590C8E01085F1F4FC80167E7E3
:1002D00071E040E050E021E030E00E94EF0B87E762
:1002E00091E0B8010E94420CC8010E94590C809113
:1002F00072018823E1F080ED92E068E071E00E94F5
:10030000710A609173017091740180ED92E04AE08E
:1003100050E00E943F0A80ED92E061E171E00E94AE
:10032000710A80ED92E067E771E00E94BA0A87E700
:1003300091E069E171E00E94F00A882379F08091F0
:1003400073019091740190934A018093490180ED6B
:1003500092E06BE171E00E94740AAAC087E791E025
:100360006DE171E00E94F00A882309F493C0609166
:10037000730170917401882777FD8095982F0E94F2
:10038000750F20E030EA4AEA54E40E94291020E088
:1003900030E04AE754E40E94DA0E7B018C0120E051
:1003A00030E040E050E00E94251088234CF0C80166
:1003B000B70120E030E040E05FE30E94760E08C025
:1003C000C801B70120E030E040E05FE30E94750E15
:1003D0000E94420F97FF03C060E070E042C0C80176
:1003E000B70120E030E040E050E00E942510882373
:1003F0004CF0C801B70120E030E040E05FE30E942C
:10040000760E08C0C801B70120E030E040E05FE3AD
:100410000E94750E0E94420F6050704180409040D3
:100420001CF06FEF7FE01DC0C801B70120E030E095
:1004300040E050E00E94251088234CF0C801B7012D
:1004400020E030E040E05FE30E94760E08C0C80183
:10045000B70120E030E040E05FE30E94750E0E94AB
:10046000420F709376016093750180917201882329
:10047000F9F080ED92E06FE171E00E94710A609105
:1004800075017091760180ED92E04AE050E00E94A3
:10049000520A0EC087E791E069E271E00E94F00A1B
:1004A000882361F08091720191E089278093720125
:1004B00087E791E060E071E00E94D60B80917201C5
:1004C000882381F080ED92E06BE271E00E94710A76
:1004D0006091490170914A0180ED92E04AE050E05C
:1004E0000E94520A60917501709176018EE791E049
:1004F00040E00E94A9052E960FB6F894DEBF0FBE0D
:10050000CDBFCF91DF911F910F91FF90EF90089594
:100510000F931F93EAE7F0E08081846080838081FD
:100520008D7F808380818E7F80838CE08093B80074
:100530008EE791E060E60E94A20500ED12E0C8019E
:1005400040E855E260E070E00E949F07C80168E360
:1005500071E00E94740A1F910F91089581E08093C9
:10056000C4016093A1011092C2011092C3010895C9
:100570002091A00130E080919F01281B3109C90121
:10058000089540919F018091A001481718F02FEF26
:100590003FEF0AC0E42FF0E0E158FE4F8081282FA2
:1005A00030E04F5F40939F01C9010895E0919F01A2
:1005B0008091A001E81718F0EFEFFFEF06C0F0E020
:1005C000E158FE4F8081E82FF0E0CF0108950895B3
:1005D0001092C8011092C70188EE93E0A0E0B0E04D
:1005E0008093C9019093CA01A093CB01B093CC0131
:1005F00085E591E09093C6018093C5010895CF925F
:10060000DF92EF92FF920F931F93CF93DF937C01C2
:100610006B018A018091C4018823A1F0C0E0D0E081
:100620000DC0D701ED91FC91D601AC0FBD1F01901B
:10063000F081E02DC7016C9109952196C017D10773
:1006400080F304C0CB01642F0E94D703C801DF915F
:10065000CF911F910F91FF90EF90DF90CF90089571
:10066000DF93CF930F92CDB7DEB7FC016983809102
:10067000C4018823C9F08091C301803238F081E041
:1006800090E09383828320E030E015C08091C20126
:10069000E82FF0E0EE55FE4F998190838F5F8093B5
:1006A000C2018093C30105C0CE01019661E00E94A2
:1006B000D70321E030E0C9010F90CF91DF91089579
:1006C0000F93062F8091A10162EA71E04091C3016E
:1006D00021E00E9482031092C2011092C301109285
:1006E000C4010F91089561E00E9460030895109283
:1006F0009F011092A0011092C2011092C3010E94AA
:10070000830508950F931F93582F122F413210F035
:1007100081E04AC08091D1018823E1F782E0809393
:10072000D1010093D3018FEF80933E021092F90123
:100730004093FA01A9EDB1E0FB0102C081918D93D4
:100740008E2F861B8417D0F31092D2018091D20194
:10075000550F852B8093D2018091D401813041F4D3
:100760001092D4018091D2018093BB0085EC01C02E
:1007700085EE8093BC00112321F08091D10182305D
:10078000E1F380913E028F3F11F480E00DC0809133
:100790003E02803211F482E007C080913E02803335
:1007A00011F084E001C083E01F910F910895482F5C
:1007B000613210F081E008958091D101843011F010
:1007C00082E0089560931C02ABEFB1E0842F9C019E
:1007D000F90102C081918D938E2F841B8617D0F36F
:1007E00080E008951F920F920FB60F9211242F935D
:1007F0003F934F935F936F937F938F939F93AF93A9
:10080000BF93EF93FF938091B90090E0887F907041
:100810008036910509F4F2C081369105CCF5883215
:10082000910509F47BC089329105B4F480319105BA
:1008300009F46FC0813191053CF4009709F447C178
:10084000089709F04FC165C08831910509F466C069
:10085000809709F047C182C08034910509F4A4C093
:100860008134910544F48033910509F482C0C8971E
:1008700009F038C189C08035910509F489C08835EF
:10088000910509F496C08834910509F02BC1AEC0DA
:100890008839910509F413C189399105ECF4883739
:1008A000910509F4ABC0893791054CF48836910560
:1008B00009F4A4C08037910509F014C19FC088389D
:1008C000910509F4FCC08039910509F49DC0803878
:1008D000910509F007C198C0803B910509F4C6C095
:1008E000813B91054CF4803A910509F49FC0883A08
:1008F000910509F0F7C0BAC0803C910509F4E3C046
:10090000883C910509F4DFC0883B910509F0EAC0F5
:10091000C2C08091D2018093BB00CFC09091F901F9
:100920008091FA01981768F49091F901E92FF0E0AD
:10093000E752FE4F80818093BB009F5F9093F90147
:10094000BCC08091D301882309F44BC085ED80930E
:10095000BC008091BC0084FDFCCFC2C080E28093CB
:100960003E0285ED8093BC008091BC0084FDFCCFED
:10097000B7C080E380933E0285ED8093BC008091F8
:10098000BC0084FDFCCFACC088E380933E029BC0DA
:100990008091F9019091BB00E82FF0E0E752FE4F03
:1009A00090838F5F8093F9019091F9018091FA0112
:1009B00082C08091F9019091BB00E82FF0E0E752EE
:1009C000FE4F90838F5F8093F9018091D30188233C
:1009D00041F085ED8093BC008091BC0084FDFCCF8C
:1009E0007FC081E08093D40184EA6EC085ED80935E
:1009F000BC008091BC0084FDFCCF72C083E080937A
:100A0000D10110923D0259C080913D02803208F020
:100A100056C080913D029091BB00E82FF0E0E35E6C
:100A2000FD4F90838F5F80933D0247C080913D02D0
:100A3000803230F4E0913D02F0E0E35EFD4F108241
:100A400085ED8093BC008091BC0084FDFCCF1092AA
:100A5000D10160913D02E091D701F091D8018DE183
:100A600092E070E0099510923D022DC084E08093E1
:100A7000D10110921B0210921C02E091D501F0915D
:100A8000D601099580911C02882329F481E0809386
:100A90001C021092FB0190911B02E92FF0E0E5503F
:100AA000FE4F80818093BB009F5F90931B029091CB
:100AB0001B0280911C02981710F485EC01C085E898
:100AC0008093BC000FC085EC8093BC0009C01092DD
:100AD0003E0285ED8093BC008091BC0084FDFCCF7C
:100AE0001092D101FF91EF91BF91AF919F918F91A2
:100AF0007F916F915F914F913F912F910F900FBE1A
:100B00000F901F9018951092D10181E08093D3012E
:100B10001092D40182E161E00E94C10683E161E0AC
:100B20000E94C106E9EBF0E080818E7F80838081A6
:100B30008D7F808388E48093B80085E48093BC0037
:100B400008950895FC01608385EC91E00E9477038D
:100B500008950F931F93CF93DF93FC01EB01142FA4
:100B60000091B8008CE08093B80085EC91E0608142
:100B70000E94AE02112321F085EC91E060E603C0F3
:100B800085EC91E060E40E943003BE0194E076952C
:100B900067959A95E1F785EC91E00E94300384E037
:100BA000CC0FDD1F8A95E1F7D07085EC91E06C2FBA
:100BB0000E94300385EC91E00E9473030093B8001B
:100BC000DF91CF911F910F9108951F920F920FB651
:100BD0000F9211242F933F938F939F93AF93BF93C3
:100BE0008091430290914402A0914502B091460247
:100BF000309147020196A11DB11D232F2D5F2D3786
:100C000020F02D570196A11DB11D2093470280931E
:100C1000430290934402A0934502B0934602809110
:100C20003F0290914002A0914102B0914202019690
:100C3000A11DB11D80933F0290934002A0934102F9
:100C4000B0934202BF91AF919F918F913F912F91AD
:100C50000F900FBE0F901F9018959B01AC017FB7AE
:100C6000F89480913F0290914002A0914102B0918E
:100C7000420266B5A89B05C06F3F19F00196A11D01
:100C8000B11D7FBFBA2FA92F982F8827860F911DDE
:100C9000A11DB11D62E0880F991FAA1FBB1F6A9595
:100CA000D1F7BC012DC0FFB7F89480913F0290911D
:100CB0004002A0914102B0914202E6B5A89B05C056
:100CC000EF3F19F00196A11DB11DFFBFBA2FA92F4B
:100CD000982F88278E0F911DA11DB11DE2E0880F6E
:100CE000991FAA1FBB1FEA95D1F7861B970B885E39
:100CF0009340C8F2215030404040504068517C4FF2
:100D0000211531054105510571F60895789484B592
:100D1000826084BD84B5816084BD85B5826085BDF7
:100D200085B5816085BDEEE6F0E0808181608083DD
:100D3000E1E8F0E0108280818260808380818160C0
:100D40008083E0E8F0E0808181608083E1EBF0E087
:100D5000808184608083E0EBF0E08081816080832B
:100D6000EAE7F0E080818460808380818260808314
:100D70008081816080838081806880831092C1003F
:100D80000895482F50E0CA0182559F4FFC012491DD
:100D9000CA0186569F4FFC0194914A575F4FFA0152
:100DA0003491332309F440C0222351F1233071F0F0
:100DB000243028F42130A1F0223011F514C026305F
:100DC000B1F02730C1F02430D9F404C08091800004
:100DD0008F7703C0809180008F7D8093800010C04A
:100DE00084B58F7702C084B58F7D84BD09C08091A2
:100DF000B0008F7703C08091B0008F7D8093B000EA
:100E0000E32FF0E0EE0FFF1FEE58FF4FA591B491D6
:100E10002FB7F894662321F48C919095892302C012
:100E20008C91892B8C932FBF089508951F920F9258
:100E30000FB60F9211242F933F934F938F939F934D
:100E4000EF93FF938091C00082FD1DC04091C600CA
:100E500020918802309189022F5F3F4F2F733070AD
:100E600080918A0290918B022817390771F0E091E6
:100E70008802F0918902E85BFD4F4083309389023C
:100E80002093880202C08091C600FF91EF919F914C
:100E90008F914F913F912F910F900FBE0F901F9008
:100EA0001895E091DC02F091DD02E05CFF4F81914A
:100EB000919120813181821B930B8F739070892BCC
:100EC00011F00E94150708951F920F920FB60F920E
:100ED00011242F933F938F939F93EF93FF93209130
:100EE000CC023091CD028091CE029091CF02281792
:100EF000390731F48091C1008F7D8093C10014C007
:100F0000E091CE02F091CF02E457FD4F2081809115
:100F1000CE029091CF0201968F7390709093CF0282
:100F20008093CE022093C600FF91EF919F918F9105
:100F30003F912F910F900FBE0F901F901895AF9279
:100F4000BF92DF92EF92FF920F931F93CF93DF93A5
:100F5000EC017A018B01DD24403081EE580780E0FE
:100F6000680780E0780711F0DD24D39491E0A92E82
:100F7000B12CEC89FD89DD2069F0C50108A002C013
:100F8000880F991F0A94E2F7808360E079E08DE38F
:100F900090E005C0108260E874E88EE190E0A8015E
:100FA00097010E94AB102150304040405040569570
:100FB00047953795279580E12030380720F0DD20D0
:100FC00011F0DD24D6CFE889F9893083EA89FB89DD
:100FD000208319A2EE89FF89408121E030E0C90118
:100FE0000C8C02C0880F991F0A94E2F7482B4083AB
:100FF000EE89FF894081C9010D8C02C0880F991FBD
:101000000A94E2F7482B4083EE89FF894081C901A9
:101010000E8C02C0880F991F0A94E2F7482B408378
:10102000EE89FF8980810F8C02C0220F331F0A9442
:10103000E2F7209528232083DF91CF911F910F9114
:10104000FF90EF90DF90BF90AF900895DC011C9669
:10105000ED91FC911D97E05CFF4F219131918081D2
:101060009181281B390B2F733070C9010895DC0161
:101070001C96ED91FC911D97E05CFF4F2081318122
:10108000E054F040DF01AE5BBF4F8D919C91119712
:101090002817390719F42FEF3FEF07C08D919C9166
:1010A000E80FF91F8081282F30E0C9010895DC0185
:1010B0001C96ED91FC911D97E05CFF4F20813181E2
:1010C000E054F040DF01AE5BBF4F8D919C911197D2
:1010D0002817390719F42FEF3FEF10C08D919C911D
:1010E0001197E80FF91F20818D919C91119701961E
:1010F0008F73907011969C938E9330E0C901089580
:10110000DC0191968C919197882339F05496ED915A
:10111000FC915597808186FFF9CF91961C92089596
:10112000CF93DF93EC01EE85FF85E05CFF4F2081DC
:101130003181E054F0402F5F3F4F2F733070DF015B
:10114000AE5BBF4F8D919C91119728173907D1F352
:10115000E05CFF4F80819181E054F040E80FF91F7F
:101160006083EE85FF85E05CFF4F31832083EE894D
:10117000FF89208181E090E00F8C02C0880F991FC9
:101180000A94E2F7282B208381E089A3EC89FD896A
:1011900080818064808381E090E0DF91CF91089529
:1011A0001092D3021092D20288EE93E0A0E0B0E059
:1011B0008093D4029093D502A093D602B093D70225
:1011C00085E691E09093D1028093D00288E492E08A
:1011D0009093DD028093DC028CE892E09093DF0232
:1011E0008093DE0285EC90E09093E1028093E00230
:1011F00084EC90E09093E3028093E20280EC90E034
:101200009093E5028093E40281EC90E09093E702F2
:101210008093E60282EC90E09093E9028093E802EA
:1012200086EC90E09093EB028093EA0284E0809356
:10123000EC0283E08093ED0287E08093EE0285E08C
:101240008093EF0281E08093F0020895CF93DF93C3
:101250000E9486060E948802C1E5D7E00E940D0127
:101260002097E1F30E945107F9CFCF92DF92EF92DE
:10127000FF920F931F93CF93DF937C016B018A0141
:10128000C0E0D0E00FC0D6016D916D01D701ED91A6
:10129000FC910190F081E02DC7010995C80FD91F7D
:1012A000015010400115110571F7CE01DF91CF916A
:1012B0001F910F91FF90EF90DF90CF900895EF92E4
:1012C000FF920F931F938C01DC01ED91FC91019033
:1012D000F081E02D6DE009957C01D801ED91FC9144
:1012E0000190F081E02DC8016AE009959C012E0D66
:1012F0003F1DC9011F910F91FF90EF900895CF936B
:10130000DF93EC016115710519F420E030E00FC0A6
:10131000DB010D900020E9F71197A61BB70BE881C0
:10132000F9810280F381E02DAD0109959C01C9018D
:10133000DF91CF9108954F925F927F928F929F920B
:10134000AF92BF92CF92DF92EF92FF920F931F93D3
:10135000DF93CF93CDB7DEB7A1970FB6F894DEBF7A
:101360000FBECDBF2C01742ECB01223008F42AE031
:1013700019A231E2C32ED12CCC0EDD1E822E99246F
:10138000AA24BB24672D752FA50194010E94AB10E0
:1013900079018A01C801B701A50194010E948C104E
:1013A000472D461B0894C108D1084A3014F4405D0B
:1013B00001C0495CF6014083E114F1040105110507
:1013C00021F07E2C5F2DC801DDCFC201B6010E9445
:1013D0007F09A1960FB6F894DEBF0FBECDBFCF91A7
:1013E000DF911F910F91FF90EF90DF90CF90BF9012
:1013F000AF909F908F907F905F904F900895CF9285
:10140000DF92EF92FF920F931F93CF93DF93EC0144
:101410006A017B012115310541F4E881F9810190D0
:10142000F081E02D642F09951FC02A303105D1F4D9
:1014300077FF17C0E881F9810190F081E02D6DE21E
:1014400009958C0144275527BA014C195D096E098D
:101450007F09CE012AE00E949B099801280F391FBD
:1014600004C02AE00E949B099C01C901DF91CF9131
:101470001F910F91FF90EF90DF90CF900895EF9222
:10148000FF920F931F937B019A010027F7FC0095B1
:10149000102FB801A7010E94FF091F910F91FF9023
:1014A000EF900895CF92DF92EF92FF920F931F93E8
:1014B0006C017B019A010027F7FC0095102FB80101
:1014C000A7010E94FF098C01C6010E945F09080F55
:1014D000191FC8011F910F91FF90EF90DF90CF90DF
:1014E00008950E947F090895EF92FF920F931F9332
:1014F0007C010E947F098C01C7010E945F09080FCF
:10150000191FC8011F910F91FF90EF900895AF929E
:10151000BF92CF92DF92EF92FF920F931F93CF93E0
:10152000DF935C016B01EE24FF24C0E0D0E010C02B
:10153000D501ED91FC9100811181C601BE010E948F
:10154000CE0A682FC501F8010995E80EF91E21960B
:10155000F60184819581C817D90750F3C701DF913F
:10156000CF911F910F91FF90EF90DF90CF90BF90A0
:10157000AF900895EF92FF920F931F937C010E940A
:10158000870A8C01C7010E945F099C01200F311F4F
:10159000C9011F910F91FF90EF900895FC01848184
:1015A00095816817790748F40190F081E02D309714
:1015B00021F0E60FF71F8081089580E00895FC0177
:1015C00080819181009729F420E030E040E050E0F4
:1015D00004C00E948F009B01AC01B901CA010895AB
:1015E000DC01FB0114968D919C911597892B31F4A8
:1015F00061157105A9F090E0808108C00D90BC9143
:10160000A02D6115710529F490E08C91882349F48F
:1016100007C0CD010E94BF009C0190E0232B09F47C
:1016200091E0892F08950F931F93CF93DF93EC01DF
:101630008B016F5F7F4F888199810E94940D009785
:1016400011F480E005C0998388831B830A8381E0BD
:10165000DF91CF911F910F910895CF93DF93EC010C
:1016600088819981892B29F08A819B818617970728
:1016700060F4CE010E94130B882341F08C819D8180
:10168000892B19F4E881F981108281E0DF91CF91F3
:101690000895EF92FF920F931F93CF93DF93EC0186
:1016A0007B016C817D81E114F104C1F0411551058C
:1016B00099F08A01060F171FB8010E942D0B88238D
:1016C00069F0888199812C813D81820F931FB70138
:1016D0000E94C8001D830C8381E001C080E0DF917F
:1016E000CF911F910F91FF90EF900895DF93CF93CB
:1016F00000D0CDB7DEB769831A82BE016F5F7F4F1E
:1017000041E050E00E94490B0F900F90CF91DF9184
:101710000895CF93DF93EC0188819981009711F0B0
:101720000E94FC0C198218821D821C821B821A8264
:10173000DF91CF910895EF92FF920F931F93CF9374
:10174000DF93EC017B018A01BA010E942D0B8823F3
:1017500021F4CE010E94890B07C01D830C83888170
:101760009981B7010E94C800CE01DF91CF911F91EE
:101770000F91FF90EF900895CF93DF93EC011982C2
:1017800018821B821A821D821C821E8261157105BD
:1017900051F0DB010D900020E9F71197A61BB70B64
:1017A000AD010E949B0BDF91CF9108950F931F9382
:1017B000182F092F6115710559F0DB010D900020DC
:1017C000E9F71197A61BB70BAD010E949B0B02C056
:1017D0000E94890B812F902F1F910F910895BF9226
:1017E000CF92DF92EF92FF920F931F93CF93DF93ED
:1017F000082FB92E6B017A01E9012417350710F47F
:10180000EA017901802F9B2D68E471E00E94BC0BF6
:10181000D60114968D919C9115978E159F05D0F049
:101820008C179D0708F4EC01D601ED91FC911197FE
:10183000EC0FFD1F108110826D917C916E0D7F1D4C
:10184000802F9B2D0E94D60BD601ED91FC91EC0FC1
:10185000FD1F1083802F9B2DDF91CF911F910F9142
:10186000FF90EF90DF90CF90BF9008950F931F935C
:101870008C01FB01248135810E94EF0BC8011F916F
:101880000F910895CF93DF93EC01FB018617970723
:1018900061F0608171816115710529F04481558184
:1018A0000E949B0B02C00E94890BCE01DF91CF9159
:1018B0000895FC01808191810E94FC0C08950F9392
:1018C0001F93CF93DF93BC018230910510F462E047
:1018D00070E0E091F402F091F50240E050E0A0E009
:1018E000B0E024C08081918186179707D0F08617D9
:1018F000970771F482819381109729F013969C9336
:101900008E9312972CC09093F5028093F40227C017
:101910004115510519F08417950718F48D01AC0194
:10192000EF01DF01828193819C01F9013097D1F6AB
:1019300041155105F9F0CA01861B970B84309105BA
:1019400080F48A819B810115110521F0F8019383B0
:10195000828304C09093F5028093F402FE013296D4
:1019600045C0FE01E80FF91F6193719302979983B7
:1019700088833CC08091F2029091F302892B41F45C
:1019800080914D0190914E019093F3028093F20269
:1019900040914F01509150014115510541F44DB70F
:1019A0005EB780914B0190914C01481B590B2091DF
:1019B000F2023091F30224173507B0F4CA01821BFA
:1019C000930B8617970780F0AB014E5F5F4F84172C
:1019D000950750F0420F531F5093F3024093F202C9
:1019E000F9016193719302C0E0E0F0E0CF01DF9173
:1019F000CF911F910F910895CF93DF939C01009792
:101A000009F48FC0EC0122971B821A826091F402C4
:101A10007091F5026115710581F488819981820FB9
:101A2000931F2091F2023091F3022817390739F5FC
:101A3000D093F302C093F20274C0DB0140E050E0A7
:101A4000AC17BD0708F1BB83AA83FE012191319138
:101A5000E20FF31FAE17BF0779F48D919C91119798
:101A6000280F391F2E5F3F4F3983288312968D919F
:101A70009C9113979B838A834115510571F4D093F0
:101A8000F502C093F4024DC012968D919C9113976C
:101A9000AD01009711F0DC01D3CFDA011396DC938E
:101AA000CE931297FA0121913191E20FF31FCE17D5
:101AB000DF0769F488819981280F391F2E5F3F4F16
:101AC000FA01318320838A819B8193838283E0E0C2
:101AD000F0E0DB0112968D919C911397009719F01D
:101AE000BC01FD01F6CFAB014E5F5F4FDB018D9175
:101AF0009C91840F951F2091F2023091F3022817D8
:101B0000390779F4309729F41092F5021092F40213
:101B100002C013821282425050405093F30240930D
:101B2000F202DF91CF9108956F927F928F929F92F0
:101B3000AF92BF92CF92DF92EF92FF920F931F93DB
:101B4000CF93DF938C01009729F4CB010E945F0CA7
:101B50008C01BBC08EEFE82E8FEFF82EE00EF11E49
:101B60004801860E971E8E149F0408F4ACC0D7015E
:101B70004D915C91119746175707B8F045305105C4
:101B800008F4A3C0CA0104978617970708F49DC0FC
:101B900042505040461B570BF401419351936D93B3
:101BA0007C93CF010E94FC0C90C05B01A41AB50A83
:101BB0003801640E751EA091F402B091F502E0E0C8
:101BC000F0E0CC24DD2447C0A615B705A9F5CD91DA
:101BD000DC911197CE0102968A159B0568F1CE0122
:101BE0008A199B09029612962C91129713963C9192
:101BF000059758F0F40122833383CA19DB09D18396
:101C0000C083D7016D937C9309C04E5F5F4F4C0F2B
:101C10005D1FF70151834083C901FC01C114D10448
:101C200031F0D6011396FC93EE9312974EC0F093C9
:101C3000F502E093F40249C08D919C911197E81749
:101C4000F90708F4FC016D0112968C911297139616
:101C50009C919C01D901109709F0B6CF8091F202B6
:101C60009091F30286159705E9F4E617F707D0F48B
:101C700020914F01309150012115310541F42DB7CC
:101C80003EB780914B0190914C01281B390B821675
:101C90009306C8F49092F3028092F202F7017183E6
:101CA000608313C0CB010E945F0CEC01009759F0D8
:101CB000D7014D915C91B8010E94B600C8010E9405
:101CC000FC0C8E0102C000E010E0C801DF91CF9152
:101CD0001F910F91FF90EF90DF90CF90BF90AF904A
:101CE0009F908F907F906F9008955058BB27AA27A0
:101CF0000ED071C162D130F067D120F031F49F3F36
:101D000011F41EF457C10EF4E095E7FB4DC1E92F25
:101D100073D180F3BA17620773078407950718F029
:101D200071F49EF58BC10EF4E0950B2EBA2FA02D09
:101D30000B01B90190010C01CA01A0011124FF2778
:101D4000591B99F0593F50F4503E68F11A16F04073
:101D5000A22F232F342F4427585FF3CF4695379572
:101D60002795A795F0405395C9F77EF41F16BA0B37
:101D7000620B730B840BBAF09150A1F0FF0FBB1FE5
:101D8000661F771F881FC2F70EC0BA0F621F731F2E
:101D9000841F48F4879577956795B795F7959E3F8B
:101DA00008F0B3CF9395880F08F09927EE0F979519
:101DB000879508950CD00FC107D140F0FED030F0C8
:101DC00021F45F3F19F0F0C0511139C1F3C014D1B3
:101DD00098F39923C9F35523B1F3951B550BBB27F2
:101DE000AA2762177307840738F09F5F5F4F220F9F
:101DF000331F441FAA1FA9F333D00E2E3AF0E0E898
:101E000030D091505040E695001CCAF729D0FE2FE3
:101E100027D0660F771F881FBB1F26173707480775
:101E2000AB07B0E809F0BB0B802DBF01FF2793582B
:101E30005F4F2AF09E3F510568F0B6C000C15F3F7A
:101E4000ECF3983EDCF3869577956795B795F79513
:101E50009F5FC9F7880F911D9695879597F908950B
:101E6000E1E0660F771F881FBB1F621773078407A7
:101E7000BA0720F0621B730B840BBA0BEE1F88F7B6
:101E8000E095089504D06894B111D9C00895BCD0EC
:101E900088F09F5790F0B92F9927B751A0F0D1F053
:101EA000660F771F881F991F1AF0BA95C9F712C0DD
:101EB000B13081F0C3D0B1E00895C0C0672F782F52
:101EC0008827B85F39F0B93FCCF386957795679549
:101ED000B395D9F73EF490958095709561957F4FB5
:101EE0008F4F9F4F0895E89409C097FB3EF490955B
:101EF0008095709561957F4F8F4F9F4F9923A9F0E3
:101F0000F92F96E9BB279395F69587957795679571
:101F1000B795F111F8CFFAF4BB0F11F460FF1BC0B5
:101F20006F5F7F4F8F4F9F4F16C0882311F096E948
:101F300011C0772321F09EE8872F762F05C06623F6
:101F400071F096E8862F70E060E02AF09A95660FAF
:101F5000771F881FDAF7880F9695879597F9089568
:101F6000990F0008550FAA0BE0E8FEEF16161706AA
:101F7000E807F907C0F012161306E407F50798F012
:101F8000621B730B840B950B39F40A2661F0232B2B
:101F9000242B252B21F408950A2609F4A140A695A7
:101FA0008FEF811D811D089597F99F6780E870E08C
:101FB00060E008959FEF80EC089500240A941616BF
:101FC000170618060906089500240A941216130627
:101FD000140605060895092E0394000C11F48823B5
:101FE00052F0BB0F40F4BF2B11F460FF04C06F5FD1
:101FF0007F4F8F4F9F4F089557FD9058440F551FA7
:1020000059F05F3F71F04795880F97FB991F61F07A
:102010009F3F79F087950895121613061406551FF1
:10202000F2CF4695F1DF08C0161617061806991F5D
:10203000F1CF86957105610508940895E894BB2752
:1020400066277727CB0197F908958ADF08F48FEF89
:1020500008950BD0C0CFB1DF28F0B6DF18F095237C
:1020600009F0A2CFA7CF1124EACFC6DFA0F3959F36
:10207000D1F3950F50E0551F629FF001729FBB276F
:10208000F00DB11D639FAA27F00DB11DAA1F649F1B
:102090006627B00DA11D661F829F2227B00DA11DCE
:1020A000621F739FB00DA11D621F839FA00D611D54
:1020B000221F749F3327A00D611D231F849F600D75
:1020C000211D822F762F6A2F11249F5750408AF0AE
:1020D000E1F088234AF0EE0FFF1FBB1F661F771F3A
:1020E000881F91505040A9F79E3F510570F05CCF7A
:1020F000A6CF5F3FECF3983EDCF386957795679526
:10210000B795F795E7959F5FC1F7FE2B880F911D57
:102110009695879597F90895629FD001739FF00176
:10212000829FE00DF11D649FE00DF11D929FF00D67
:10213000839FF00D749FF00D659FF00D9927729F9E
:10214000B00DE11DF91F639FB00DE11DF91FBD0129
:10215000CF0111240895A1E21A2EAA1BBB1BFD0179
:102160000DC0AA1FBB1FEE1FFF1FA217B307E40776
:10217000F50720F0A21BB30BE40BF50B661F771FCE
:10218000881F991F1A9469F76095709580959095AE
:102190009B01AC01BD01CF010895EE0FFF1F05901B
:1021A000F491E02D099410E0C8ECD0E004C0FE01E9
:1021B0000E94CF102296CA3CD107C9F7F894FFCFEE
:1021C000006D7367313A20004E756D6265723A207A
:1021D000002C206D73673A200052002E0049004900
:1021E0005F5365745F493A20004400526573697318
:1021F00074616E63653A2000526561647900495FDD
:102200007365745F523A200000C8008000F6020037
:1022100000000000003003FF02B802C102D602E74E
:10222000020000000090083509260857083708808A
:022230000800A4
:00000001FF
