:100000000C9462000C948A000C948A000C948A0070
:100010000C948A000C948A000C948A000C948A0038
:100020000C948A000C948A000C948A000C948A0028
:100030000C948A000C948A000C948A000C948A0018
:100040000C9472020C948A000C9402040C945004D8
:100050000C948A000C948A000C948A000C948A00F8
:100060000C948A000C948A000000000024002700F1
:100070002A0000000000250028002B0000000000DE
:1000800023002600290004040404040404040202DA
:100090000202020203030303030301020408102007
:1000A0004080010204081020010204081020000012
:1000B0000007000201000003040600000000000029
:1000C0000000BC0511241FBECFEFD8E0DEBFCDBFBE
:1000D00011E0A0E0B1E0ECE5FFE002C005900D9278
:1000E000A031B107D9F712E0A0E1B1E001C01D9243
:1000F000AC33B107E1F710E0C4ECD0E004C02297C4
:10010000FE010E94A807C23CD107C9F70E9412064F
:100110000C94AC070C940000EF92FF921F93CF93C6
:10012000DF93EB017A01182F10686230710514F02B
:10013000182F106C8AE060E00E945A031EBD0DB4B7
:1001400007FEFDCF8EB520E030E00BC01EBC0DB425
:1001500007FEFDCF8EB5F701E20FF31F80832F5FFF
:100160003F4F2C173D0794F38AE061E00E945A0349
:10017000DF91CF911F91FF90EF9008950F931F9300
:10018000182F062F8AE060E00E945A031EBD0DB4AE
:1001900007FEFDCF8EB50EBD0DB407FEFDCF8EB5AB
:1001A0008AE061E00E945A031F910F910895CF9257
:1001B000DF92EF92FF920F931F93CF93DF9382E032
:1001C0000E94AE03892BE9F1C0E1D0E007E111E024
:1001D000F6E0FF2E82E366E070E047E151E00E9426
:1001E0008C002197FE01E75DFE4F8091170180830F
:1001F000FE01E75CFE4F809118018083FE01E75B02
:10020000FE4F809119018083FE01E75AFE4F8091D5
:100210001A018083FE01E759FE4F80911B01808304
:10022000FE01E758FE4F80911C018083D801EF2D1D
:100230001D92EA95E9F7209769F681E0809316010F
:100240002CC080E1E9E2F1E0DF01982F1D929A9540
:10025000E9F7E9E3F1E0DF01982F1D929A95E9F7BC
:10026000E9E4F1E0DF01982F1D929A95E9F7E9E5BD
:10027000F1E0DF01982F1D929A95E9F7E9E6F1E0A8
:10028000DF01982F1D929A95E9F7E9E7F1E0DF0188
:100290001D928A95E9F71092160160E070E0CC2477
:1002A000DD24EE24FF24C0E0D0E0FB01E75CFE4F3C
:1002B0008081182F1295107F00E09801E4E03595B9
:1002C0002795EA95E1F7FB01E75DFE4F808190E01D
:1002D000282B392BC20FD31FFB01E75AFE4F808119
:1002E000B82FB295B07FA0E09D0154E035952795D9
:1002F0005A95E1F7FB01E75BFE4F808190E0282BE8
:10030000392BE20EF31EFB01E758FE4F8081582F78
:100310005295507F40E09A0144E0359527954A95E3
:10032000E1F7FB01E759FE4F808190E0282B392B44
:10033000C20ED31E6F5F7F4F6031710509F0B5CFDC
:10034000D0922801C0922701F0922601E092250167
:10035000D0932401C0932301D595C795D595C79512
:10036000D0931E01C0931D01F594E794F594E79492
:10037000F0922001E0921F01D594C794D594C794C0
:10038000D0922201C09221010E94BA029B01709377
:100390001101609310018091120190911301281BAB
:1003A000390B309315012093140180911601882395
:1003B00009F441C060911D0170911E018AE192E033
:1003C0004AE050E00E9433078AE192E06CE20E942A
:1003D0004B0660911F01709120018AE192E04AE092
:1003E00050E00E9433078AE192E06CE20E944B06E3
:1003F00060912101709122018AE192E04AE050E08F
:100400000E9433078AE192E06CE20E944B06609101
:100410001401709115018AE192E04AE050E00E94D7
:10042000460710921601809110019091110190934E
:10043000130180931201DF91CF911F910F91FF90D3
:10044000EF90DF90CF9008950E945B028CE00E94B5
:1004500056028AE192E040E052EC61E070E00E94D6
:100460008B048AE061E00E941B0382E060E00E944E
:100470001B038AE061E00E945A0381E36BE00E9463
:10048000BE008CE26FE00E94BE0088E360E50E943F
:10049000BE008FE260E00E94BE008EE261E00E943A
:1004A000BE008DE268E00E94BE0008959CB5937F77
:1004B000982B9CBD08958AE061E00E945A038AE06F
:1004C00061E00E941B038CB580618CBD8CB580649B
:1004D0008CBD8DE061E00E941B038BE061E00E9417
:1004E0001B0308951F920F920FB60F9211242F93A2
:1004F0003F938F939F93AF93BF9380918D01909182
:100500008E01A0918F01B0919001309191010196DF
:10051000A11DB11D232F2D5F2D3720F02D570196E2
:10052000A11DB11D2093910180938D0190938E01A7
:10053000A0938F01B09390018091890190918A01DD
:10054000A0918B01B0918C010196A11DB11D8093EA
:10055000890190938A01A0938B01B0938C01BF9184
:10056000AF919F918F913F912F910F900FBE0F9060
:100570001F9018959FB7F8942091890130918A01B6
:1005800040918B0150918C0186B5A89B06C08F3F8E
:1005900021F02F5F3F4F4F4F5F4F9FBF542F432F8F
:1005A000322F2227280F311D411D511D82E0220FBD
:1005B000331F441F551F8A95D1F7B901CA01089509
:1005C000789484B5826084BD84B5816084BD85B52E
:1005D000826085BD85B5816085BDEEE6F0E08081F5
:1005E00081608083E1E8F0E0108280818260808316
:1005F000808181608083E0E8F0E080818160808399
:10060000E1EBF0E0808184608083E0EBF0E08081CA
:1006100081608083EAE7F0E080818460808380816C
:100620008260808380818160808380818068808314
:100630001092C1000895CF93DF93482F50E0CA0174
:1006400086569F4FFC0134914A575F4FFA018491BF
:10065000882369F190E0880F991FFC01E859FF4F4A
:10066000A591B491FC01EE58FF4FC591D49166233A
:1006700051F42FB7F8948C91932F909589238C93F4
:10068000888189230BC0623061F42FB7F8948C9174
:10069000932F909589238C938881832B88832FBFF8
:1006A00006C09FB7F8948C91832B8C939FBFDF91EA
:1006B000CF910895482F50E0CA0182559F4FFC0109
:1006C0002491CA0186569F4FFC0194914A575F4F6F
:1006D000FA013491332309F440C0222351F123302D
:1006E00071F0243028F42130A1F0223011F514C02B
:1006F0002630B1F02730C1F02430D9F404C0809105
:1007000080008F7703C0809180008F7D8093800070
:1007100010C084B58F7702C084B58F7D84BD09C0B9
:100720008091B0008F7703C08091B0008F7D80935F
:10073000B000E32FF0E0EE0FFF1FEE58FF4FA59142
:10074000B4912FB7F894662321F48C919095892366
:1007500002C08C91892B8C932FBF0895682F70E075
:10076000CB0182559F4FFC012491CB0186569F4FB0
:10077000FC0144916A577F4FFB019491992319F42E
:1007800020E030E03CC0222351F1233071F02430CE
:1007900028F42130A1F0223011F514C02630B1F038
:1007A0002730C1F02430D9F404C0809180008F77C5
:1007B00003C0809180008F7D8093800010C084B53D
:1007C0008F7702C084B58F7D84BD09C08091B00051
:1007D0008F7703C08091B0008F7D8093B000892F08
:1007E00090E0880F991F84589F4FFC01A591B49108
:1007F0008C9120E030E0842311F021E030E0C90149
:10080000089508951F920F920FB60F9211242F93FF
:100810003F934F938F939F93EF93FF938091C000EB
:1008200082FD1DC04091C6002091D2013091D301BC
:100830002F5F3F4F2F7330708091D4019091D5017D
:100840002817390771F0E091D201F091D301EE56EB
:10085000FE4F40833093D3012093D20102C0809198
:10086000C600FF91EF919F918F914F913F912F91F2
:100870000F900FBE0F901F901895E0912602F091F7
:100880002702E05CFF4F8191919120813181821B91
:10089000930B8F739070892B11F00E9401040895BF
:1008A0001F920F920FB60F9211242F933F938F93A5
:1008B0009F93EF93FF93209116023091170280913E
:1008C0001802909119022817390731F48091C1005C
:1008D0008F7D8093C10014C0E0911802F09119023D
:1008E000EA52FE4F208180911802909119020196E0
:1008F0008F73907090931902809318022093C60012
:10090000FF91EF919F918F913F912F910F900FBE8B
:100910000F901F901895AF92BF92DF92EF92FF92C7
:100920000F931F93CF93DF93EC017A018B01DD24AA
:10093000403081EE580780E0680780E0780711F0CA
:10094000DD24D39491E0A92EB12CEC89FD89DD2022
:1009500069F0C50108A002C0880F991F0A94E2F748
:10096000808360E079E08DE390E005C0108260E86C
:1009700074E88EE190E0A80197010E94840721505D
:10098000304040405040569547953795279580E137
:100990002030380720F0DD2011F0DD24D6CFE889A3
:1009A000F9893083EA89FB89208319A2EE89FF89BE
:1009B000408121E030E0C9010C8C02C0880F991FF2
:1009C0000A94E2F7482B4083EE89FF894081C901F0
:1009D0000D8C02C0880F991F0A94E2F7482B4083C0
:1009E000EE89FF894081C9010E8C02C0880F991FD2
:1009F0000A94E2F7482B4083EE89FF8980810F8CAF
:100A000002C0220F331F0A94E2F720952823208387
:100A1000DF91CF911F910F91FF90EF90DF90BF90EA
:100A2000AF900895DC011C96ED91FC911D97E05C60
:100A3000FF4F2191319180819181281B390B2F73B8
:100A40003070C9010895DC011C96ED91FC911D9751
:100A5000E05CFF4F20813181E054F040DF01AE5B6C
:100A6000BF4F8D919C9111972817390719F42FEFDB
:100A70003FEF07C08D919C91E80FF91F8081282FCF
:100A800030E0C9010895DC011C96ED91FC911D97A1
:100A9000E05CFF4F20813181E054F040DF01AE5B2C
:100AA000BF4F8D919C9111972817390719F42FEF9B
:100AB0003FEF10C08D919C911197E80FF91F208195
:100AC0008D919C91119701968F73907011969C93C4
:100AD0008E9330E0C9010895DC0191968C91919735
:100AE000882339F05496ED91FC915597808186FFCB
:100AF000F9CF91961C920895CF93DF93EC01EE8588
:100B0000FF85E05CFF4F20813181E054F0402F5F92
:100B10003F4F2F733070DF01AE5BBF4F8D919C91C3
:100B2000119728173907D1F3E05CFF4F808191813D
:100B3000E054F040E80FF91F6083EE85FF85E05C2C
:100B4000FF4F31832083EE89FF89208181E090E08F
:100B50000F8C02C0880F991F0A94E2F7282B20837C
:100B600081E089A3EC89FD8980818064808381E0B4
:100B700090E0DF91CF91089510921D0210921C0217
:100B800088EE93E0A0E0B0E080931E0290931F02F5
:100B9000A0932002B093210284E091E090931B0285
:100BA00080931A0282E991E09093270280932602B3
:100BB00086ED91E0909329028093280285EC90E0E5
:100BC00090932B0280932A0284EC90E090932D0264
:100BD00080932C0280EC90E090932F0280932E0261
:100BE00081EC90E0909331028093300282EC90E0AF
:100BF000909333028093320286EC90E0909335021A
:100C00008093340284E08093360283E0809337023D
:100C100087E08093380285E08093390281E08093F9
:100C20003A020895CF93DF930E94E0020E942402CB
:100C3000CDE3D4E00E94D7002097E1F30E943D0469
:100C4000F9CFCF92DF92EF92FF920F931F93CF9342
:100C5000DF937C016B018A01C0E0D0E00FC0D601B8
:100C60006D916D01D701ED91FC910190F081E02D26
:100C7000C7010995C80FD91F015010400115110572
:100C800071F7CE01DF91CF911F910F91FF90EF90FF
:100C9000DF90CF900895DC01ED91FC910190F081FF
:100CA000E02D09950895EF92FF920F931F938C0109
:100CB000DC01ED91FC910190F081E02D6DE0099552
:100CC0007C01D801ED91FC910190F081E02DC801EB
:100CD0006AE009959C012E0D3F1DC9011F910F91DE
:100CE000FF90EF900895CF93DF93EC0161157105AC
:100CF00019F420E030E00FC0DB010D900020E9F78F
:100D00001197A61BB70BE881F9810280F381E02DD2
:100D1000AD0109959C01C901DF91CF9108954F92D2
:100D20005F927F928F929F92AF92BF92CF92DF920B
:100D3000EF92FF920F931F93DF93CF93CDB7DEB760
:100D4000A1970FB6F894DEBF0FBECDBF2C01742E55
:100D5000CB01223008F42AE019A231E2C32ED12CB3
:100D6000CC0EDD1E822E9924AA24BB24672D752F5C
:100D7000A50194010E94840779018A01C801B70185
:100D8000A50194010E946507472D461B0894C108E0
:100D9000D1084A3014F4405D01C0495CF60140833B
:100DA000E114F1040105110521F07E2C5F2DC8012D
:100DB000DDCFC201B6010E947306A1960FB6F8946A
:100DC000DEBF0FBECDBFCF91DF911F910F91FF907E
:100DD000EF90DF90CF90BF90AF909F908F907F90DB
:100DE0005F904F900895CF92DF92EF92FF920F9312
:100DF0001F93CF93DF93EC016A017B01211531052D
:100E000041F4E881F9810190F081E02D642F09958A
:100E10001FC02A303105D1F477FF17C0E881F9816E
:100E20000190F081E02D6DE209958C014427552752
:100E3000BA014C195D096E097F09CE012AE00E94B2
:100E40008F069801280F391F04C02AE00E948F06E0
:100E50009C01C901DF91CF911F910F91FF90EF90FD
:100E6000DF90CF900895EF92FF920F931F937B0135
:100E70009A010027F7FC0095102FB801A7010E94E6
:100E8000F3061F910F91FF90EF900895CF92DF929C
:100E9000EF92FF920F931F936C017B019A01002741
:100EA000F7FC0095102FB801A7010E94F3068C01F2
:100EB000C6010E945306080F191FC8011F910F9108
:100EC000FF90EF90DF90CF900895629FD001739FC5
:100ED000F001829FE00DF11D649FE00DF11D929FD6
:100EE000F00D839FF00D749FF00D659FF00D992715
:100EF000729FB00DE11DF91F639FB00DE11DF91F39
:100F0000BD01CF0111240895A1E21A2EAA1BBB1B1B
:100F1000FD010DC0AA1FBB1FEE1FFF1FA217B307C5
:100F2000E407F50720F0A21BB30BE40BF50B661FDB
:100F3000771F881F991F1A9469F76095709580959F
:100F400090959B01AC01BD01CF010895EE0FFF1FED
:0C0F50000590F491E02D0994F894FFCF77
:100F5C00000000007C0521061205430523056C05E5
:00000001FF
