:100000000C9435000C945D000C945D000C945D0024
:100010000C945D000C945D000C945D000C945D00EC
:100020000C945D000C945D000C945D000C945D00DC
:100030000C945D000C945D000C945D000C945D00CC
:100040000C94E9000C945D000C94B5010C9403022F
:100050000C945D000C945D000C945D000C945D00AC
:100060000C945D000C945D006F0311241FBECFEF54
:10007000D8E0DEBFCDBF11E0A0E0B1E0E2EAFAE0F7
:1000800002C005900D92AE31B107D9F711E0AEE193
:10009000B1E001C01D92A33EB107E1F710E0CAE64E
:1000A000D0E004C02297FE010E944B05C836D1075C
:1000B000C9F70E94C5030C944F050C9400001F93D0
:1000C000CF93DF930E9431019B01AC0120931E016D
:1000D00030931F0140932001509321018091220110
:1000E00090912301A0912401B0912501281B390B87
:1000F0004A0B5B0B20932601309327014093280184
:100100005093290120543640404050400CF445C0E3
:1001100010E0C0E0D0E0812F0E949201FE01EE5F6E
:10012000FE4F20813181829FB001839F700D929F8D
:10013000700D1124FE01E65DFE4F7183608381EC3A
:1001400091E04AE050E00E94F20481EC91E060E02E
:1001500071E00E9405051F5F22961330E1F6409181
:10016000260150912701609128017091290181ECAD
:1001700091E02AE030E00E94DE0480911E0190911F
:100180001F01A0912001B091210180932201909341
:100190002301A0932401B0932501DF91CF911F91FA
:1001A0000895EAE7F0E080818460808380818D7F1C
:1001B000808380818E7F8083409108015091090166
:1001C00060910A0170910B0181EC91E00E943E0266
:1001D00008951F920F920FB60F9211242F933F9301
:1001E0008F939F93AF93BF9380913401909135018A
:1001F000A0913601B0913701309138010196A11DCF
:10020000B11D232F2D5F2D3720F02D570196A11DF5
:10021000B11D209338018093340190933501A09350
:100220003601B09337018091300190913101A09156
:100230003201B09133010196A11DB11D80933001AF
:1002400090933101A0933201B0933301BF91AF91EC
:100250009F918F913F912F910F900FBE0F901F9004
:1002600018959FB7F8942091300130913101409159
:1002700032015091330186B5A89B06C08F3F21F013
:100280002F5F3F4F4F4F5F4F9FBF542F432F322F52
:100290002227280F311D411D511D82E0220F331FDF
:1002A000441F551F8A95D1F7B901CA010895789462
:1002B00084B5826084BD84B5816084BD85B582606B
:1002C00085BD85B5816085BDEEE6F0E08081816009
:1002D0008083E1E8F0E01082808182608083808109
:1002E00081608083E0E8F0E0808181608083E1EBE1
:1002F000F0E0808184608083E0EBF0E080818160C9
:100300008083EAE7F0E0808184608083808182607E
:100310008083808181608083808180688083109267
:10032000C1000895982F8E3008F09E5097708091EC
:100330000C018295880F880F807C892B80937C002C
:1003400080917A00806480937A0080917A0086FDA3
:10035000FCCF2091780040917900942F80E030E02C
:10036000282B392BC901089508951F920F920FB6BB
:100370000F9211242F933F934F938F939F93EF935B
:10038000FF938091C00082FD1DC04091C600209166
:10039000790130917A012F5F3F4F2F733070809138
:1003A0007B0190917C012817390771F0E091790168
:1003B000F0917A01E75CFE4F408330937A012093FD
:1003C000790102C08091C600FF91EF919F918F91BA
:1003D0004F913F912F910F900FBE0F901F90189546
:1003E000E091CD01F091CE01E05CFF4F81919191C0
:1003F00020813181821B930B8F739070892B11F0B8
:100400000E94B40108951F920F920FB60F9211240B
:100410002F933F938F939F93EF93FF932091BD0171
:100420003091BE018091BF019091C001281739071A
:1004300031F48091C1008F7D8093C10014C0E091A0
:10044000BF01F091C001E358FE4F20818091BF01B0
:100450009091C00101968F7390709093C00180932A
:10046000BF012093C600FF91EF919F918F913F9123
:100470002F910F900FBE0F901F901895AF92BF92C3
:10048000DF92EF92FF920F931F93CF93DF93EC01D4
:100490007A018B01DD24403081EE580780E0680747
:1004A00080E0780711F0DD24D39491E0A92EB12CDF
:1004B000EC89FD89DD2069F0C50108A002C0880F24
:1004C000991F0A94E2F7808360E079E08DE390E081
:1004D00005C0108260E874E88EE190E0A801970101
:1004E0000E94270521503040404050405695479586
:1004F0003795279580E12030380720F0DD2011F076
:10050000DD24D6CFE889F9893083EA89FB89208305
:1005100019A2EE89FF89408121E030E0C9010C8CED
:1005200002C0880F991F0A94E2F7482B4083EE8996
:10053000FF894081C9010D8C02C0880F991F0A9460
:10054000E2F7482B4083EE89FF894081C9010E8C78
:1005500002C0880F991F0A94E2F7482B4083EE8966
:10056000FF8980810F8C02C0220F331F0A94E2F7AB
:10057000209528232083DF91CF911F910F91FF9029
:10058000EF90DF90BF90AF900895DC011C96ED9145
:10059000FC911D97E05CFF4F219131918081918109
:1005A000281B390B2F733070C9010895DC011C968C
:1005B000ED91FC911D97E05CFF4F20813181E0546B
:1005C000F040DF01AE5BBF4F8D919C9111972817D2
:1005D000390719F42FEF3FEF07C08D919C91E80F79
:1005E000F91F8081282F30E0C9010895DC011C9695
:1005F000ED91FC911D97E05CFF4F20813181E0542B
:10060000F040DF01AE5BBF4F8D919C911197281791
:10061000390719F42FEF3FEF10C08D919C9111977E
:10062000E80FF91F20818D919C91119701968F738E
:10063000907011969C938E9330E0C9010895DC016F
:1006400091968C919197882339F05496ED91FC9175
:100650005597808186FFF9CF91961C920895CF938C
:10066000DF93EC01EE85FF85E05CFF4F2081318157
:10067000E054F0402F5F3F4F2F733070DF01AE5BCF
:10068000BF4F8D919C91119728173907D1F3E05CEA
:10069000FF4F80819181E054F040E80FF91F6083A3
:1006A000EE85FF85E05CFF4F31832083EE89FF8973
:1006B000208181E090E00F8C02C0880F991F0A947E
:1006C000E2F7282B208381E089A3EC89FD898081D2
:1006D0008064808381E090E0DF91CF910895109253
:1006E000C4011092C30188EE93E0A0E0B0E08093D3
:1006F000C5019093C601A093C701B093C80181E1E1
:1007000091E09093C2018093C10189E391E09093BD
:10071000CE018093CD018DE791E09093D00180933D
:10072000CF0185EC90E09093D2018093D10184ECCD
:1007300090E09093D4018093D30180EC90E090936B
:10074000D6018093D50181EC90E09093D8018093FD
:10075000D70182EC90E09093DA018093D90186EC86
:1007600090E09093DC018093DB0184E08093DD01D5
:1007700083E08093DE0187E08093DF0185E0809352
:10078000E00181E08093E1010895CF93DF930E941F
:1007900057010E94D100C0EFD1E00E945F00209776
:1007A000E1F30E94F001F9CFCF92DF92EF92FF9236
:1007B0000F931F93CF93DF937C016B018A01C0E0FD
:1007C000D0E00FC0D6016D916D01D701ED91FC9184
:1007D0000190F081E02DC7010995C80FD91F015084
:1007E00010400115110571F7CE01DF91CF911F91D6
:1007F0000F91FF90EF90DF90CF900895EF92FF92CE
:100800000F931F938C01DC01ED91FC910190F0811D
:10081000E02D6DE009957C01D801ED91FC910190EE
:10082000F081E02DC8016AE009959C012E0D3F1D65
:10083000C9011F910F91FF90EF900895CF93DF931F
:10084000EC016115710519F420E030E00FC0DB0107
:100850000D900020E9F71197A61BB70BE881F981ED
:100860000280F381E02DAD0109959C01C901DF9162
:10087000CF9108954F925F927F928F929F92AF9205
:10088000BF92CF92DF92EF92FF920F931F93DF936D
:10089000CF93CDB7DEB7A1970FB6F894DEBF0FBEEA
:1008A000CDBF2C01742ECB01223008F42AE019A20E
:1008B00031E2C32ED12CCC0EDD1E822E9924AA2427
:1008C000BB24672D752FA50194010E94270579018E
:1008D0008A01C801B701A50194010E940805472DAE
:1008E000461B0894C108D1084A3014F4405D01C089
:1008F000495CF6014083E114F1040105110521F082
:100900007E2C5F2DC801DDCFC201B6010E941E04FE
:10091000A1960FB6F894DEBF0FBECDBFCF91DF9189
:100920001F910F91FF90EF90DF90CF90BF90AF900D
:100930009F908F907F905F904F900895CF92DF921D
:10094000EF92FF920F931F93CF93DF93EC016A0115
:100950007B012115310541F4E881F9810190F08195
:10096000E02D642F09951FC02A303105D1F477FF9F
:1009700017C0E881F9810190F081E02D6DE20995C1
:100980008C0144275527BA014C195D096E097F096E
:10099000CE012AE00E943A049801280F391F04C0B2
:1009A0002AE00E943A049C01C901DF91CF911F9176
:1009B0000F91FF90EF90DF90CF900895EF92FF920C
:1009C0000F931F937C010E949E048C01C7010E941B
:1009D000FE039C01200F311FC9011F910F91FF9051
:1009E000EF900895EF92FF920F931F937B019A016E
:1009F0000027F7FC0095102FB801A7010E949E0464
:100A00001F910F91FF90EF9008950E941E0408958A
:100A1000629FD001739FF001829FE00DF11D649FE2
:100A2000E00DF11D929FF00D839FF00D749FF00D6E
:100A3000659FF00D9927729FB00DE11DF91F639F0F
:100A4000B00DE11DF91FBD01CF0111240895A1E2F0
:100A50001A2EAA1BBB1BFD010DC0AA1FBB1FEE1F38
:100A6000FF1FA217B307E407F50720F0A21BB30B83
:100A7000E40BF50B661F771F881F991F1A9469F7FF
:100A800060957095809590959B01AC01BD01CF015B
:100A90000895EE0FFF1F0590F491E02D0994F8944E
:020AA000FFCF86
:100AA2002C00100003000B0000C201000100000036
:0E0AB200002F03D403C502F602D6021F030074
:00000001FF
