:100000000C9437000C945F000C945F000C945F001C
:100010000C945F000C945F000C945F000C945F00E4
:100020000C945F000C945F000C945F000C945F00D4
:100030000C945F000C945F000C945F000C945F00C4
:100040000C94A1060C945F000C94C6070C94140841
:100050000C945F000C945F000C945F000C945F00A4
:100060000C945F000C945F009800800991001124AB
:100070001FBECFEFD8E0DEBFCDBF11E0A0E0B1E002
:10008000E0E1FEE102C005900D92AE3BB107D9F769
:1000900012E0AEEBB1E001C01D92AA39B107E1F761
:1000A00010E0CCE6D0E004C02297FE010E94F70EDB
:1000B000C836D107C9F70E94D6090C94FB0E0C94E0
:1000C0000000FB01DC0102C001900D924150504044
:1000D000D8F70895FB01DC018D9101908019011082
:1000E000D9F3990B0895FB01DC0101900D920020DA
:1000F000E1F708958130910551F46F5F7F4F81F4EE
:1001000086EC91E060E071E00E94070C0895892B75
:1001100039F46F5F7F4F21F486EC91E00E94980CD8
:10012000089580E090E06FEF7FEF0E947A000895DD
:1001300081E090E06FEF7FEF0E947A0008952F92A8
:100140003F924F925F926F927F928F929F92AF9267
:10015000BF92CF92DF92EF92FF920F931F93DF93A4
:10016000CF93CDB7DEB7C758D0400FB6F894DEBFF7
:100170000FBECDBF84E792E00E94D608181619067C
:10018000ECF486EC91E060E071E00E94210C0FC07D
:1001900084E792E00E940709682F86EC91E00E94B4
:1001A000C10B6AE070E080E090E00E940F0784E7F6
:1001B00092E00E94D6081816190654F38E010F5FBC
:1001C0001F4FC80166EC71E040E050E022E030E0F3
:1001D0000E943A0C86EC91E0B8010E94810CC801A3
:1001E0000E94980C86EC91E061E071E00E943B0B6C
:1001F000882301F10E94E9066093D5017093D6012E
:100200008093D7019093D8018EE00E94A30790932A
:10021000C5018093C4010E94E9066093D9017093DF
:10022000DA018093DB019093DC0184E792E064E0E3
:1002300071E028C086EC91E06CE071E00E943B0B1D
:10024000882309F45CC00E94E9066093D50170938D
:10025000D6018093D7019093D8018FE00E94A30725
:100260009093C5018093C4010E94E9066093D9016F
:100270007093DA018093DB019093DC0184E792E0D4
:100280006FE071E00E94250B6091C4017091C5017F
:1002900084E792E04AE050E00E94120B84E792E08B
:1002A00069E071E00E94250B4091D9015091DA017B
:1002B0006091DB017091DC018091D5019091D601B4
:1002C000A091D701B091D801481B590B6A0B7B0B49
:1002D00084E792E02AE030E00E94AF0A84E792E0EF
:1002E00069E071E00E94250B0E94E906AB01BC01A8
:1002F00084E792E02AE030E00E94BE0A30C286EC39
:1003000091E064E171E00E943B0B882301F10E94BF
:10031000E9066093D5017093D6018093D70190933D
:10032000D80180E10E94A3079093C5018093C40186
:100330000E94E9066093D9017093DA018093DB0192
:100340009093DC0184E792E067E171E09BCF86EC5B
:1003500091E06CE171E00E943B0B882301F10E9467
:10036000E9066093D5017093D6018093D7019093ED
:10037000D80181E10E94A3079093C5018093C40135
:100380000E94E9066093D9017093DA018093DB0142
:100390009093DC0184E792E06FE171E073CF86EC2B
:1003A00091E064E271E00E943B0B882301F10E941E
:1003B000E9066093D5017093D6018093D70190939D
:1003C000D80182E10E94A3079093C5018093C401E4
:1003D0000E94E9066093D9017093DA018093DB01F2
:1003E0009093DC0184E792E067E271E04BCF86EC0A
:1003F00091E06CE271E00E943B0B882301F10E94C6
:10040000E9066093D5017093D6018093D70190934C
:10041000D80183E10E94A3079093C5018093C40192
:100420000E94E9066093D9017093DA018093DB01A1
:100430009093DC0184E792E06FE271E023CF86ECD9
:1004400091E064E371E00E943B0B882309F47BC1D7
:100450008EE00E94A3079093BF018093BE018FE0BE
:100460000E94A3079093C1018093C00180E10E9484
:10047000A3079093C3018093C2016091C001709162
:10048000C101882777FD8095982F2091BE0130917A
:10049000BF01442737FD4095542F0E94B40E60934E
:1004A000D1017093D2018093D3019093D4010E9423
:1004B000E9066093D9017093DA018093DB01909390
:1004C000DC016093CD017093CE018093CF019093B6
:1004D000D00168E0A62EB12CAC0EBD1E88E090E0E5
:1004E000A80EB91EBB86AA86E8EFFFEFAE0EBF1EB0
:1004F00053E0252E312C3D862C861F861E864CE926
:10050000442E41E0542E59864886C50167E371E0C8
:100510000E946806FC013EEB832E35E0932E958207
:1005200084828CE391E091838083C50164E471E06F
:100530000E946806FC018091BE019091BF0129E3F1
:10054000C22E26E0D22ED582C482AA2797FDA0957E
:10055000BA2F80839183A283B383C5016AE471E0DB
:100560000E946806FC018091CD019091CE01A0917E
:10057000CF01B091D001D582C48280839183A283C0
:10058000B38398E2692E712C6C0E7D1ECE01C0964D
:100590009BA78AA73DA62CA61FA61EA659A648A6BD
:1005A000C30167E371E00E946806FC0195828482C2
:1005B00084E591E091838083C30164E471E00E944B
:1005C0006806FC018091C0019091C101D582C4826E
:1005D000AA2797FDA095BA2F80839183A283B38326
:1005E000C3016AE471E00E946806FC018091CD01BC
:1005F0009091CE01A091CF01B091D001D582C4825B
:1006000080839183A283B38388E4E82EF12CEC0EDF
:10061000FD1EC7010896F7019383828335822482E9
:100620001782168251824082C70167E371E00E94FF
:100630006806FC01958284828CE591E09183808339
:10064000C70164E471E00E946806FC018091C20168
:100650009091C301D582C482AA2797FDA095BA2F95
:1006600080839183A283B383C7016AE471E00E940F
:100670006806FC018091CD019091CE01A091CF013F
:10068000B091D001D582C48280839183A283B38349
:100690008E0108591F4FC8010896F8019383828381
:1006A000358224821782168251824082C80167E314
:1006B00071E00E946806FC019582848280E691E0E8
:1006C00091838083C80164E471E00E946806FC01A4
:1006D0008091D1019091D201A091D301B091D40128
:1006E000D582C48280839183A283B383C8016AE4E4
:1006F00071E00E946806FC018091CD019091CE01CD
:10070000A091CF01B091D001D582C4828083918322
:10071000A283B383C50164E772E00E946C04C30145
:1007200064E772E00E946C04C70164E772E00E9413
:100730006C04C80164E772E00E946C0484E792E0F4
:100740000E940F0A0CC086EC91E064E671E00E9402
:100750003B0B86EC91E060E071E00E94210CC957F0
:10076000DF4F0FB6F894DEBF0FBECDBFCF91DF9144
:100770001F910F91FF90EF90DF90CF90BF90AF90BF
:100780009F908F907F906F905F904F903F902F90B1
:1007900008950F931F93EAE7F0E0808184608083DF
:1007A00080818D7F808380818E7F808304E712E04B
:1007B00040918D0150918E0160918F017091900157
:1007C000C8010E944F08C80166E671E00E94280B2C
:1007D0001F910F910895DF92EF92FF920F931F9355
:1007E000CF93DF938C01D62EDC0116968C9187FD7A
:1007F00003C0EE24FF2421C0C0E0D0E0EE24FF249B
:1008000010C0D8011496ED91FC911597A081B1818B
:100810002D913C91CF0160E2F9010995E80EF91E96
:100820002196F8018681282F229527708F70829F4C
:10083000C0011124C817D90724F3D8011496ED91EB
:10084000FC911597A081B1812D913C91CF016D2D27
:10085000F90109959C0140E0BAE0DB1609F441E09A
:10086000479544274795F80186818F77842B8683A7
:100870002E0D3F1DC901DF91CF911F910F91FF9068
:10088000EF90DF900895DF93CF93CDB7DEB7289731
:100890000FB6F894DEBF0FBECDBFDC011C821B82F9
:1008A00082EA91E09A8389837F836E831D82188612
:1008B000ED91FC9111970190F081E02DCD01BE01E9
:1008C0006F5F7F4F099528960FB6F894DEBF0FBE75
:1008D000CDBFCF91DF910895DF93CF93CDB7DEB732
:1008E00027970FB6F894DEBF0FBECDBF1C821B82C8
:1008F0002AEA31E03A8329837E836D8320EA2F83BD
:10090000BE016F5F7F4F0E94430427960FB6F89495
:10091000DEBF0FBECDBFCF91DF910895FC01848172
:100920008B3779F08B3589F40CC0815F8F70907FA5
:10093000982B16969C93858196810E940F0A9C01A4
:1009400002C020E030E0C9010895A581B681169665
:100950009C911697892F8F7041F7EDCFFC01848110
:100960008B3729F08B3519F020E030E014C0A581D9
:10097000B68116969C911697892F8F708F3031F023
:100980008F5F8F70907F982B16969C9385819681B0
:100990000E940F0A9C01C9010895FF920F931F93B3
:1009A000CF93DF93EC01F62E8F81882399F082E2BA
:1009B000681721F48C818C3509F01F82ED81FE814E
:1009C000A081B1812D913C91CF016F2DF901099545
:1009D0009C016AC08BE5681709F454C0861758F06B
:1009E0008CE2681769F18AE3681799F082E2681768
:1009F00009F048C036C08BE7681709F443C08DE79B
:100A0000681719F08DE56817E9F5CE010E948E048C
:100A10003CC0AD81BE81ED91FC9111970190F081B8
:100A2000E02DCD016AE309958C01AD81BE81ED9188
:100A3000FC9111970190F081E02DCD0160E230C072
:100A4000AD81BE81ED91FC9111970190F081E02D77
:100A5000CD016CE209958C018D819E810E940F0A67
:100A600020C081E08F83CE010E94AE048C01AD8155
:100A7000BE81ED91FC9111970190F081E02DCD01A7
:100A800062E20EC0CE010E94AE048C01AD81BE8137
:100A9000ED91FC9111970190F081E02DCD016F2D2A
:100AA00009959C01200F311FFC82C901DF91CF9174
:100AB0001F910F91FF900895BF92CF92DF92EF9216
:100AC000FF920F931F93CF93DF937C01EB0100976D
:100AD00039F4CB016CE671E00E94250B9C0143C008
:100AE000E881F9810190F081E02DCB0162E2099566
:100AF0006C0127C032968081882311F08617D1F7C8
:100B0000B180E881F981BB2091F00190F081E02D66
:100B1000CE016CE509958C01E881F9810190F081A5
:100B2000E02DCE016B2D0995800F911F05C001901E
:100B3000F081E02DCE0109950894E11CF11CC80E4E
:100B4000D91EF7016081662319F0ECE7F1E0D3CFFD
:100B5000E881F9810190F081E02DCE0162E20995F2
:100B60009601280F391FC901DF91CF911F910F9175
:100B7000FF90EF90DF90CF90BF900895FC018081AF
:100B800091810E945C0508956F927F928F929F924F
:100B9000AF92BF92CF92DF92EF92FF920F931F938B
:100BA000CF93DF938C01EB01E881F9810190F08113
:100BB000E02DCB016BE709955C01D80112966D9091
:100BC0007C90139716968D909C90179734C0F301E4
:100BD000819191918F01BE010E945C057C01E881A9
:100BE000F9810190F081E02DCE016AE309956C0155
:100BF000D3011696ED91FC911797C801BE01099596
:100C0000EC0CFD1CAE0CBF1CA80EB91EB1E08B167F
:100C1000910451F0E881F9810190F081E02DCE013D
:100C20006CE20995A80EB91EE8E0F0E06E0E7F1E9A
:100C3000089481089108181419044CF2E881F9818C
:100C40000190F081E02DCE016DE709959501280F07
:100C5000391FC901DF91CF911F910F91FF90EF9044
:100C6000DF90CF90BF90AF909F908F907F906F90CC
:100C70000895FC01CB0140815181628173812AE09A
:100C800030E00E94D20A0895EF92FF920F931F93D3
:100C9000CF93DF93FC017B01C281D3810681178151
:100CA0000AC088819981B7010E946A00009741F0CB
:100CB000289601501040101611069CF3C0E0D0E0B9
:100CC000CE01DF91CF911F910F91FF90EF9008958A
:100CD0000F931F93CF93DF93EC018B010E94440687
:100CE000009719F0FC01329626C02E813F818C813D
:100CF0009D81281739071CF0EDEDF1E010C0C90106
:100D000053E0880F991F5A95E1F7EA81FB81E80FBC
:100D1000F91F019311932F5F3F4F3F832E8380E094
:100D200090E0A0E0B0E080839183A283B3838EEB58
:100D300095E095838483CF01DF91CF911F910F912F
:100D400008951F920F920FB60F9211242F933F9385
:100D50008F939F93AF93BF938091E7019091E801A8
:100D6000A091E901B091EA013091EB010196A11D3A
:100D7000B11D232F2D5F2D3720F02D570196A11D7A
:100D8000B11D2093EB018093E7019093E801A093BC
:100D9000E901B093EA018091E3019091E401A0910F
:100DA000E501B091E6010196A11DB11D8093E3011B
:100DB0009093E401A093E501B093E601BF91AF9158
:100DC0009F918F913F912F910F900FBE0F901F9089
:100DD00018959FB7F8942091E3013091E401409178
:100DE000E5015091E60186B5A89B06C08F3F21F032
:100DF0002F5F3F4F4F4F5F4F9FBF542F432F322FD7
:100E00002227280F311D411D511D82E0220F331F63
:100E1000441F551F8A95D1F7B901CA0108959B0156
:100E2000AC017FB7F8948091E3019091E401A09127
:100E3000E501B091E60166B5A89B05C06F3F19F0CA
:100E40000196A11DB11D7FBFBA2FA92F982F88270A
:100E5000860F911DA11DB11D62E0880F991FAA1F69
:100E6000BB1F6A95D1F7BC012DC0FFB7F8948091E4
:100E7000E3019091E401A091E501B091E601E6B5AE
:100E8000A89B05C0EF3F19F00196A11DB11DFFBF42
:100E9000BA2FA92F982F88278E0F911DA11DB11D44
:100EA000E2E0880F991FAA1FBB1FEA95D1F7861BA6
:100EB000970B885E9340C8F221503040404050402C
:100EC00068517C4F211531054105510571F6089592
:100ED000789484B5826084BD84B5816084BD85B515
:100EE000826085BD85B5816085BDEEE6F0E08081DC
:100EF00081608083E1E8F0E01082808182608083FD
:100F0000808181608083E0E8F0E08081816080837F
:100F1000E1EBF0E0808184608083E0EBF0E08081B1
:100F200081608083EAE7F0E0808184608083808153
:100F300082608083808181608083808180688083FB
:100F40001092C1000895982F8E3008F09E5097702F
:100F5000809191018295880F880F807C892B8093E6
:100F60007C0080917A00806480937A0080917A007E
:100F700086FDFCCF2091780040917900942F80E08D
:100F800030E0282B392BC901089508951F920F9244
:100F90000FB60F9211242F933F934F938F939F93EC
:100FA000EF93FF938091C00082FD1DC04091C60069
:100FB00020912C0230912D022F5F3F4F2F73307004
:100FC00080912E0290912F022817390771F0E0913D
:100FD0002C02F0912D02E451FE4F408330932D02FC
:100FE00020932C0202C08091C600FF91EF919F9147
:100FF0008F914F913F912F910F900FBE0F901F90A7
:101000001895E0918002F0918102E05CFF4F8191A0
:10101000919120813181821B930B8F739070892B6A
:1010200011F00E94C50708951F920F920FB60F92FC
:1010300011242F933F938F939F93EF93FF932091CE
:1010400070023091710280917202909173022817A0
:10105000390731F48091C1008F7D8093C10014C0A5
:10106000E0917202F0917302E05DFD4F208180916A
:1010700072029091730201968F7390709093730235
:10108000809372022093C600FF91EF919F918F9100
:101090003F912F910F900FBE0F901F901895AF9218
:1010A000BF92DF92EF92FF920F931F93CF93DF9344
:1010B000EC017A018B01DD24403081EE580780E09D
:1010C000680780E0780711F0DD24D39491E0A92E21
:1010D000B12CEC89FD89DD2069F0C50108A002C0B2
:1010E000880F991F0A94E2F7808360E079E08DE32E
:1010F00090E005C0108260E874E88EE190E0A801FD
:1011000097010E94D30E21503040404050405695E8
:1011100047953795279580E12030380720F0DD206E
:1011200011F0DD24D6CFE889F9893083EA89FB897B
:10113000208319A2EE89FF89408121E030E0C901B6
:101140000C8C02C0880F991F0A94E2F7482B408349
:10115000EE89FF894081C9010D8C02C0880F991F5B
:101160000A94E2F7482B4083EE89FF894081C90148
:101170000E8C02C0880F991F0A94E2F7482B408317
:10118000EE89FF8980810F8C02C0220F331F0A94E1
:10119000E2F7209528232083DF91CF911F910F91B3
:1011A000FF90EF90DF90BF90AF900895DC011C9608
:1011B000ED91FC911D97E05CFF4F21913191808171
:1011C0009181281B390B2F733070C9010895DC0100
:1011D0001C96ED91FC911D97E05CFF4F20813181C1
:1011E000E054F040DF01AE5BBF4F8D919C911197B1
:1011F0002817390719F42FEF3FEF07C08D919C9105
:10120000E80FF91F8081282F30E0C9010895DC0123
:101210001C96ED91FC911D97E05CFF4F2081318180
:10122000E054F040DF01AE5BBF4F8D919C91119770
:101230002817390719F42FEF3FEF10C08D919C91BB
:101240001197E80FF91F20818D919C9111970196BC
:101250008F73907011969C938E9330E0C90108951E
:10126000DC0191968C919197882339F05496ED91F9
:10127000FC915597808186FFF9CF91961C92089535
:10128000CF93DF93EC01EE85FF85E05CFF4F20817B
:101290003181E054F0402F5F3F4F2F733070DF01FA
:1012A000AE5BBF4F8D919C91119728173907D1F3F1
:1012B000E05CFF4F80819181E054F040E80FF91F1E
:1012C0006083EE85FF85E05CFF4F31832083EE89EC
:1012D000FF89208181E090E00F8C02C0880F991F68
:1012E0000A94E2F7282B208381E089A3EC89FD8909
:1012F00080818064808381E090E0DF91CF910895C8
:10130000109277021092760288EE93E0A0E0B0E0AF
:101310008093780290937902A0937A02B0937B0233
:1013200082EB91E090937502809374028CEE91E0D1
:10133000909381028093800280E392E090938302F5
:101340008093820285EC90E09093850280938402E2
:1013500084EC90E0909387028093860280EC90E08A
:10136000909389028093880281EC90E090938B02A5
:1013700080938A0282EC90E090938D0280938C029D
:1013800086EC90E090938F0280938E0284E08093AD
:10139000900283E08093910287E08093920285E03F
:1013A0008093930281E0809394020895CF93DF931A
:1013B0000E9468070E94C903C1E0D8E00E949F0014
:1013C0002097E1F30E940108F9CFCF92DF92EF92CC
:1013D000FF920F931F93CF93DF937C016B018A01E0
:1013E000C0E0D0E00FC0D6016D916D01D701ED9145
:1013F000FC910190F081E02DC7010995C80FD91F1C
:10140000015010400115110571F7CE01DF91CF9108
:101410001F910F91FF90EF90DF90CF900895EF9282
:10142000FF920F931F938C01DC01ED91FC910190D1
:10143000F081E02D6DE009957C01D801ED91FC91E2
:101440000190F081E02DC8016AE009959C012E0D04
:101450003F1DC9011F910F91FF90EF900895CF9309
:10146000DF93EC016115710519F420E030E00FC045
:10147000DB010D900020E9F71197A61BB70BE8815F
:10148000F9810280F381E02DAD0109959C01C9012C
:10149000DF91CF9108954F925F927F928F929F92AA
:1014A000AF92BF92CF92DF92EF92FF920F931F9372
:1014B000DF93CF93CDB7DEB7A1970FB6F894DEBF19
:1014C0000FBECDBF2C01742ECB01223008F42AE0D0
:1014D00019A231E2C32ED12CCC0EDD1E822E99240E
:1014E000AA24BB24672D752FA50194010E94D30E59
:1014F00079018A01C801B701A50194010E94B40EC7
:10150000472D461B0894C108D1084A3014F4405DA9
:1015100001C0495CF6014083E114F10401051105A5
:1015200021F07E2C5F2DC801DDCFC201B6010E94E3
:101530002F0AA1960FB6F894DEBF0FBECDBFCF9194
:10154000DF911F910F91FF90EF90DF90CF90BF90B0
:10155000AF909F908F907F905F904F900895DC01A7
:101560002115310541F4ED91FC910190F081E02DC0
:10157000642F099508950E944B0A0895EF92FF92F7
:101580000F931F937C010E94AF0A8C01C7010E9438
:101590000F0A9C01200F311FC9011F910F91FF906D
:1015A000EF900895CF92DF92EF92FF920F931F93E7
:1015B000CF93DF93EC016A017B012115310541F4E2
:1015C000E881F9810190F081E02D642F09951FC019
:1015D0002A303105D1F477FF17C0E881F9810190F5
:1015E000F081E02D6DE209958C0144275527BA0161
:1015F0004C195D096E097F09CE012AE00E944B0A51
:101600009801280F391F04C02AE00E944B0A9C0150
:10161000C901DF91CF911F910F91FF90EF90DF9063
:10162000CF900895EF92FF920F931F937B019A0141
:101630000027F7FC0095102FB801A7010E94D20ADD
:101640001F910F91FF90EF9008950E942F0A089527
:10165000EF92FF920F931F937C010E942F0A8C013F
:10166000C7010E940F0A080F191FC8011F910F918F
:10167000FF90EF900895DC01FB0114968D919C91F1
:101680001597892B31F461157105A9F090E08081DF
:1016900008C00D90BC91A02D6115710529F490E052
:1016A0008C91882349F407C0CD010E946A009C01F7
:1016B00090E0232B09F491E0892F08950F931F9355
:1016C000CF93DF93EC018B016F5F7F4F888199810E
:1016D0000E94D30D009711F480E005C099838883A0
:1016E0001B830A8381E0DF91CF911F910F910895B1
:1016F000CF93DF93EC0188819981892B29F08A812E
:101700009B818617970760F4CE010E945E0B8823A9
:1017100041F08C819D81892B19F4E881F981108237
:1017200081E0DF91CF910895EF92FF920F931F9385
:10173000CF93DF93EC017B016C817D81E114F10497
:10174000C1F04115510599F08A01060F171FB80124
:101750000E94780B882369F0888199812C813D81D2
:10176000820F931FB7010E9473001D830C8381E0D9
:1017700001C080E0DF91CF911F910F91FF90EF901A
:101780000895DF93CF9300D0CDB7DEB769831A8277
:10179000BE016F5F7F4F41E050E00E94940B0F90BD
:1017A0000F90CF91DF910895CF93DF93EC01888163
:1017B0009981009711F00E943B0D198218821D82B9
:1017C0001C821B821A82DF91CF910895EF92FF92C3
:1017D0000F931F93CF93DF93EC017B018A01BA0132
:1017E0000E94780B882321F4CE010E94D40B07C0FD
:1017F0001D830C8388819981B7010E947300CE01FB
:10180000DF91CF911F910F91FF90EF900895CF93AB
:10181000DF93EC01198218821B821A821D821C82BE
:101820001E826115710551F0DB010D900020E9F772
:101830001197A61BB70BAD010E94E60BDF91CF916C
:1018400008950F931F93182F092F6115710559F0F3
:10185000DB010D900020E9F71197A61BB70BAD0136
:101860000E94E60B02C00E94D40B812F902F1F9183
:101870000F910895BF92CF92DF92EF92FF920F9354
:101880001F93CF93DF93082FB92E6B017A01E901E3
:101890002417350710F4EA017901802F9B2D6CE89D
:1018A00071E00E94070CD60114968D919C911597BA
:1018B0008E159F05D0F08C179D0708F4EC01D6011A
:1018C000ED91FC911197EC0FFD1F108110826D912D
:1018D0007C916E0D7F1D802F9B2D0E94210CD601C7
:1018E000ED91FC91EC0FFD1F1083802F9B2DDF915C
:1018F000CF911F910F91FF90EF90DF90CF90BF900D
:101900000895CF93DF93EC01FB018617970761F0F1
:10191000608171816115710529F0448155810E94B2
:10192000E60B02C00E94D40BCE01DF91CF91089547
:10193000FC01808191810E943B0D08950F931F93BC
:10194000CF93DF93BC018230910510F462E070E028
:10195000E0919802F091990240E050E0A0E0B0E000
:1019600024C08081918186179707D0F0861797074A
:1019700071F482819381109729F013969C938E9332
:1019800012972CC0909399028093980227C041151A
:10199000510519F08417950718F48D01AC01EF017A
:1019A000DF01828193819C01F9013097D1F64115C5
:1019B0005105F9F0CA01861B970B8430910580F41C
:1019C0008A819B810115110521F0F801938382839F
:1019D00004C09093990280939802FE01329645C00C
:1019E000FE01E80FF91F6193719302979983888331
:1019F0003CC08091960290919702892B41F480918E
:101A00009401909195019093970280939602409152
:101A10009601509197014115510541F44DB75EB7BC
:101A20008091920190919301481B590B209196024D
:101A30003091970224173507B0F4CA01821B930B2B
:101A40008617970780F0AB014E5F5F4F84179507AD
:101A500050F0420F531F5093970240939602F901A2
:101A60006193719302C0E0E0F0E0CF01DF91CF918C
:101A70001F910F910895CF93DF939C01009709F474
:101A80008FC0EC0122971B821A826091980270919C
:101A900099026115710581F488819981820F931FE4
:101AA00020919602309197022817390739F5D09383
:101AB0009702C093960274C0DB0140E050E0AC177F
:101AC000BD0708F1BB83AA83FE0121913191E20F8A
:101AD000F31FAE17BF0779F48D919C911197280FD2
:101AE000391F2E5F3F4F3983288312968D919C9129
:101AF00013979B838A834115510571F4D093990202
:101B0000C09398024DC012968D919C911397AD0190
:101B1000009711F0DC01D3CFDA011396DC93CE935A
:101B20001297FA0121913191E20FF31FCE17DF07CF
:101B300069F488819981280F391F2E5F3F4FFA0180
:101B4000318320838A819B8193838283E0E0F0E06C
:101B5000DB0112968D919C911397009719F0BC01AF
:101B6000FD01F6CFAB014E5F5F4FDB018D919C9184
:101B7000840F951F209196023091970228173907FC
:101B800079F4309729F4109299021092980202C0C9
:101B90001382128242505040509397024093960213
:101BA000DF91CF9108956F927F928F929F92AF9223
:101BB000BF92CF92DF92EF92FF920F931F93CF933A
:101BC000DF938C01009729F4CB010E949E0C8C01BD
:101BD000BBC08EEFE82E8FEFF82EE00EF11E48010D
:101BE000860E971E8E149F0408F4ACC0D7014D9149
:101BF0005C91119746175707B8F04530510508F426
:101C0000A3C0CA0104978617970708F49DC04250E5
:101C10005040461B570BF401419351936D937C93B5
:101C2000CF010E943B0D90C05B01A41AB50A380198
:101C3000640E751EA0919802B0919902E0E0F0E068
:101C4000CC24DD2447C0A615B705A9F5CD91DC91BC
:101C50001197CE0102968A159B0568F1CE018A196B
:101C60009B09029612962C91129713963C91059718
:101C700058F0F40122833383CA19DB09D183C0836E
:101C8000D7016D937C9309C04E5F5F4F4C0F5D1F72
:101C9000F70151834083C901FC01C114D10431F023
:101CA000D6011396FC93EE9312974EC0F0939902CF
:101CB000E093980249C08D919C911197E817F9071C
:101CC00008F4FC016D0112968C91129713969C9169
:101CD0009C01D901109709F0B6CF8091960290919E
:101CE000970286159705E9F4E617F707D0F42091D7
:101CF0009601309197012115310541F42DB73EB77A
:101D00008091920190919301281B390B82169306C2
:101D1000C8F49092970280929602F70171836083D3
:101D200013C0CB010E949E0CEC01009759F0D70123
:101D30004D915C91B8010E946100C8010E943B0D69
:101D40008E0102C000E010E0C801DF91CF911F9129
:101D50000F91FF90EF90DF90CF90BF90AF909F904A
:101D60008F907F906F900895629FD001739FF001D4
:101D7000829FE00DF11D649FE00DF11D929FF00D1B
:101D8000839FF00D749FF00D659FF00D9927729F52
:101D9000B00DE11DF91F639FB00DE11DF91FBD01DD
:101DA000CF0111240895A1E21A2EAA1BBB1BFD012D
:101DB0000DC0AA1FBB1FEE1FFF1FA217B307E4072A
:101DC000F50720F0A21BB30BE40BF50B661F771F82
:101DD000881F991F1A9469F7609570958095909562
:101DE0009B01AC01BD01CF010895EE0FFF1F0590CF
:101DF000F491E02D099410E0CCE6D0E004C0FE019F
:101E00000E94F70E2296CE36D107C9F7F894FFCF7D
:101E10000041300041303A20002C20004131004187
:101E2000313A200041320041323A20004133004132
:101E3000333A200041340041343A2000413500411A
:101E4000353A20004141006E616D6500766F6C741B
:101E50006167650076616C75650074696D657374A2
:101E6000616D700063757272656E740072706D00E2
:101E70007077720053005265616479006E756C6C06
:101E80000066616C736500747275650022225C5C8B
:101E900008620C660A6E0D72097400000000C2012F
:101EA000000180009A02000000000000C40500004C
:101EB0000000CD04E50900000000EB03E509000087
:0E1EC00000004009E509D6080709E7083009C7
:00000001FF
