:100000000C9437000C945F000C945F000C945F001C
:100010000C945F000C945F000C945F000C945F00E4
:100020000C945F000C945F000C945F000C945F00D4
:100030000C945F000C945F000C945F000C945F00C4
:100040000C94A7060C945F000C94CC070C941A082F
:100050000C945F000C945F000C945F000C945F00A4
:100060000C945F000C945F009800860991001124A5
:100070001FBECFEFD8E0DEBFCDBF11E0A0E0B1E002
:10008000ECE1FEE102C005900D92A23CB107D9F768
:1000900012E0A2ECB1E001C01D92AE39B107E1F768
:1000A00010E0CCE6D0E004C02297FE010E94FD0ED5
:1000B000C836D107C9F70E94DC090C94010F0C94D3
:1000C0000000FB01DC0102C001900D924150504044
:1000D000D8F70895FB01DC018D9101908019011082
:1000E000D9F3990B0895FB01DC0101900D920020DA
:1000F000E1F708958130910551F46F5F7F4F81F4EE
:100100008AEC91E060E071E00E940D0C0895892B6B
:1001100039F46F5F7F4F21F48AEC91E00E949E0CCE
:10012000089580E090E06FEF7FEF0E947A000895DD
:1001300081E090E06FEF7FEF0E947A0008952F92A8
:100140003F924F925F926F927F928F929F92AF9267
:10015000BF92CF92DF92EF92FF920F931F93DF93A4
:10016000CF93CDB7DEB7C758D0400FB6F894DEBFF7
:100170000FBECDBF88E792E00E94DC081816190672
:10018000ECF48AEC91E060E071E00E94270C0FC073
:1001900088E792E00E940D09682F8AEC91E00E94A6
:1001A000C70B6AE070E080E090E00E94150788E7E6
:1001B00092E00E94DC081816190654F38E010F5FB6
:1001C0001F4FC8016AEC71E040E050E022E030E0EF
:1001D0000E94400C8AEC91E0B8010E94870CC80193
:1001E0000E949E0C8AEC91E061E071E00E94410B5C
:1001F000882301F10E94EF066093D9017093DA0120
:100200008093DB019093DC018EE00E94A90790931C
:10021000C9018093C8010E94EF066093DD017093CD
:10022000DE018093DF019093E00188E792E064E0D3
:1002300071E028C08AEC91E06CE071E00E94410B13
:10024000882309F45CC00E94EF066093D901709383
:10025000DA018093DB019093DC018FE00E94A90713
:100260009093C9018093C8010E94EF066093DD015D
:100270007093DE018093DF019093E00188E792E0C4
:100280006FE071E00E942B0B6091C8017091C90171
:1002900088E792E04AE050E00E94180B88E792E07D
:1002A00069E071E00E942B0B4091DD015091DE016D
:1002B0006091DF017091E0018091D9019091DA01A4
:1002C000A091DB01B091DC01481B590B6A0B7B0B41
:1002D00088E792E02AE030E00E94B50A88E792E0E1
:1002E00069E071E00E942B0B0E94EF06AB01BC019C
:1002F00088E792E02AE030E00E94C40A36C28AEC25
:1003000091E064E171E00E94410B882301F10E94B9
:10031000EF066093D9017093DA018093DB0190932B
:10032000DC0180E10E94A9079093C9018093C80174
:100330000E94EF066093DD017093DE018093DF0180
:100340009093E00188E792E067E171E09BCF8AEC4F
:1003500091E06CE171E00E94410B882301F10E9461
:10036000EF066093D9017093DA018093DB019093DB
:10037000DC0181E10E94A9079093C9018093C80123
:100380000E94EF066093DD017093DE018093DF0130
:100390009093E00188E792E06FE171E073CF8AEC1F
:1003A00091E064E271E00E94410B882301F10E9418
:1003B000EF066093D9017093DA018093DB0190938B
:1003C000DC0182E10E94A9079093C9018093C801D2
:1003D0000E94EF066093DD017093DE018093DF01E0
:1003E0009093E00188E792E067E271E04BCF8AECFE
:1003F00091E06CE271E00E94410B882301F10E94C0
:10040000EF066093D9017093DA018093DB0190933A
:10041000DC0183E10E94A9079093C9018093C80180
:100420000E94EF066093DD017093DE018093DF018F
:100430009093E00188E792E06FE271E023CF8AECCD
:1004400091E064E371E00E94410B882309F481C1CB
:100450008EE00E94A9079093C3018093C2018FE0B0
:100460000E94A9079093C5018093C40180E10E9476
:10047000A9079093C7018093C6016091C401709150
:10048000C501882777FD8095982F2091C201309172
:10049000C301442737FD4095542F0E94BA0E609344
:1004A000D5017093D6018093D7019093D8010E9413
:1004B000EF066093DD017093DE018093DF0190937E
:1004C000E0016093D1017093D2018093D3019093A6
:1004D000D40168E0A62EB12CAC0EBD1E88E090E0E1
:1004E000A80EB91EBB86AA86E8EFFFEFAE0EBF1EB0
:1004F00053E0252E312C3D862C861F861E8640EA31
:10050000442E41E0542E59864886C50167E371E0C8
:100510000E946E06FC0134EC832E35E0932E95820A
:1005200084828CE391E091838083C50164E471E06F
:100530000E946E06FC018091C2019091C3012FE3DD
:10054000C22E26E0D22ED582C482AA2797FDA0957E
:10055000BA2F80839183A283B383C5016AE471E0DB
:100560000E946E06FC018091D1019091D201A09170
:10057000D301B091D401D582C48280839183A283B8
:10058000B38398E2692E712C6C0E7D1ECE01C0964D
:100590009BA78AA73DA62CA61FA61EA659A648A6BD
:1005A000C30167E371E00E946E06FC0195828482BC
:1005B00084E591E091838083C30164E471E00E944B
:1005C0006E06FC018091C4019091C501D582C48260
:1005D000AA2797FDA095BA2F80839183A283B38326
:1005E000C3016AE471E00E946E06FC018091D101B2
:1005F0009091D201A091D301B091D401D582C4824F
:1006000080839183A283B38388E4E82EF12CEC0EDF
:10061000FD1EC7010896F7019383828335822482E9
:100620001782168251824082C70167E371E00E94FF
:100630006E06FC01958284828CE591E09183808333
:10064000C70164E471E00E946E06FC018091C6015E
:100650009091C701D582C482AA2797FDA095BA2F91
:1006600080839183A283B383C7016AE471E00E940F
:100670006E06FC018091D1019091D201A091D3012D
:10068000B091D401D582C48280839183A283B38345
:100690008E0108591F4FC8010896F8019383828381
:1006A000358224821782168251824082C80167E314
:1006B00071E00E946E06FC019582848280E691E0E2
:1006C00091838083C80164E471E00E946E06FC019E
:1006D0008091D5019091D601A091D701B091D80118
:1006E000D582C48280839183A283B383C8016AE4E4
:1006F00071E00E946E06FC018091D1019091D201BF
:10070000A091D301B091D401D582C482808391831A
:10071000A283B383C50168E772E00E947204C3013B
:1007200068E772E00E947204C70168E772E00E9405
:100730007204C80168E772E00E94720488E792E0E0
:100740000E94150A88E792E064E671E00E942E0B91
:100750000CC08AEC91E068E671E00E94410B8AECE3
:1007600091E060E071E00E94270CC957DF4F0FB69F
:10077000F894DEBF0FBECDBFCF91DF911F910F91D7
:10078000FF90EF90DF90CF90BF90AF909F908F90B1
:100790007F906F905F904F903F902F9008950F93B0
:1007A0001F93EAE7F0E080818460808380818D7F01
:1007B000808380818E7F808308E712E040919101E1
:1007C000509192016091930170919401C8010E942F
:1007D0005508C8016AE671E00E942E0B1F910F9127
:1007E0000895DF92EF92FF920F931F93CF93DF93C1
:1007F0008C01D62EDC0116968C9187FD03C0EE2469
:10080000FF2421C0C0E0D0E0EE24FF2410C0D801B6
:100810001496ED91FC911597A081B1812D913C9199
:10082000CF0160E2F9010995E80EF91E2196F80161
:100830008681282F229527708F70829FC0011124F6
:10084000C817D90724F3D8011496ED91FC91159798
:10085000A081B1812D913C91CF016D2DF9010995B8
:100860009C0140E0BAE0DB1609F441E047954427DB
:100870004795F80186818F77842B86832E0D3F1D47
:10088000C901DF91CF911F910F91FF90EF90DF9001
:100890000895DF93CF93CDB7DEB728970FB6F894BE
:1008A000DEBF0FBECDBFDC011C821B8286EA91E059
:1008B0009A8389837F836E831D821886ED91FC91D4
:1008C00011970190F081E02DCD01BE016F5F7F4F48
:1008D000099528960FB6F894DEBF0FBECDBFCF9115
:1008E000DF910895DF93CF93CDB7DEB727970FB68B
:1008F000F894DEBF0FBECDBF1C821B822EEA31E012
:100900003A8329837E836D8320EA2F83BE016F5F44
:100910007F4F0E94490427960FB6F894DEBF0FBEA2
:10092000CDBFCF91DF910895FC0184818B3779F0A1
:100930008B3589F40CC0815F8F70907F982B169651
:100940009C93858196810E94150A9C0102C020E03B
:1009500030E0C9010895A581B68116969C9116973D
:10096000892F8F7041F7EDCFFC0184818B3729F0FF
:100970008B3519F020E030E014C0A581B6811696C1
:100980009C911697892F8F708F3031F08F5F8F7009
:10099000907F982B16969C93858196810E94150ACC
:1009A0009C01C9010895FF920F931F93CF93DF938A
:1009B000EC01F62E8F81882399F082E2681721F4EA
:1009C0008C818C3509F01F82ED81FE81A081B1817F
:1009D0002D913C91CF016F2DF90109959C016AC0C1
:1009E0008BE5681709F454C0861758F08CE2681735
:1009F00069F18AE3681799F082E2681709F048C044
:100A000036C08BE7681709F443C08DE7681719F003
:100A10008DE56817E9F5CE010E9494043CC0AD81D4
:100A2000BE81ED91FC9111970190F081E02DCD01F7
:100A30006AE309958C01AD81BE81ED91FC9111971E
:100A40000190F081E02DCD0160E230C0AD81BE812A
:100A5000ED91FC9111970190F081E02DCD016CE2B8
:100A600009958C018D819E810E94150A20C081E02C
:100A70008F83CE010E94B4048C01AD81BE81ED91C3
:100A8000FC9111970190F081E02DCD0162E20EC042
:100A9000CE010E94B4048C01AD81BE81ED91FC9128
:100AA00011970190F081E02DCD016F2D09959C01EA
:100AB000200F311FFC82C901DF91CF911F910F914F
:100AC000FF900895BF92CF92DF92EF92FF920F9323
:100AD0001F93CF93DF937C01EB01009739F4CB0197
:100AE00060E771E00E942B0B9C0143C0E881F98113
:100AF0000190F081E02DCB0162E209956C0127C0E5
:100B000032968081882311F08617D1F7B180E88171
:100B1000F981BB2091F00190F081E02DCE016CE5D0
:100B200009958C01E881F9810190F081E02DCE01D9
:100B30006B2D0995800F911F05C00190F081E02D6C
:100B4000CE0109950894E11CF11CC80ED91EF701CD
:100B50006081662319F0E0E8F1E0D3CFE881F98104
:100B60000190F081E02DCE0162E209959601280FF7
:100B7000391FC901DF91CF911F910F91FF90EF9025
:100B8000DF90CF90BF900895FC01808191810E94F9
:100B9000620508956F927F928F929F92AF92BF925B
:100BA000CF92DF92EF92FF920F931F93CF93DF9339
:100BB0008C01EB01E881F9810190F081E02DCB01FE
:100BC0006BE709955C01D80112966D907C901397A4
:100BD00016968D909C90179734C0F3018191919156
:100BE0008F01BE010E9462057C01E881F9810190BC
:100BF000F081E02DCE016AE309956C01D3011696D0
:100C0000ED91FC911797C801BE010995EC0CFD1CF4
:100C1000AE0CBF1CA80EB91EB1E08B16910451F0AA
:100C2000E881F9810190F081E02DCE016CE2099517
:100C3000A80EB91EE8E0F0E06E0E7F1E0894810851
:100C40009108181419044CF2E881F9810190F0819F
:100C5000E02DCE016DE709959501280F391FC901D7
:100C6000DF91CF911F910F91FF90EF90DF90CF9088
:100C7000BF90AF909F908F907F906F900895FC01F0
:100C8000CB0140815181628173812AE030E00E9472
:100C9000D80A0895EF92FF920F931F93CF93DF939B
:100CA000FC017B01C281D381068117810AC0888142
:100CB0009981B7010E946A00009741F0289601507F
:100CC0001040101611069CF3C0E0D0E0CE01DF9179
:100CD000CF911F910F91FF90EF9008950F931F9365
:100CE000CF93DF93EC018B010E944A06009719F025
:100CF000FC01329626C02E813F818C819D81281770
:100D000039071CF0E1EEF1E010C0C90153E0880F93
:100D1000991F5A95E1F7EA81FB81E80FF91F0193CA
:100D200011932F5F3F4F3F832E8380E090E0A0E040
:100D3000B0E080839183A283B38384EC95E09583B4
:100D40008483CF01DF91CF911F910F9108951F925E
:100D50000F920FB60F9211242F933F938F939F936F
:100D6000AF93BF938091EB019091EC01A091ED01C5
:100D7000B091EE013091EF010196A11DB11D232F1D
:100D80002D5F2D3720F02D570196A11DB11D209309
:100D9000EF018093EB019093EC01A093ED01B093F0
:100DA000EE018091E7019091E801A091E901B091F5
:100DB000EA010196A11DB11D8093E7019093E8011E
:100DC000A093E901B093EA01BF91AF919F918F91F8
:100DD0003F912F910F900FBE0F901F9018959FB7C6
:100DE000F8942091E7013091E8014091E901509198
:100DF000EA0186B5A89B06C08F3F21F02F5F3F4FC9
:100E00004F4F5F4F9FBF542F432F322F2227280F62
:100E1000311D411D511D82E0220F331F441F551FFC
:100E20008A95D1F7B901CA0108959B01AC017FB73A
:100E3000F8948091E7019091E801A091E901B091C7
:100E4000EA0166B5A89B05C06F3F19F00196A11D88
:100E5000B11D7FBFBA2FA92F982F8827860F911D0C
:100E6000A11DB11D62E0880F991FAA1FBB1F6A95C3
:100E7000D1F7BC012DC0FFB7F8948091E7019091A4
:100E8000E801A091E901B091EA01E6B5A89B05C08F
:100E9000EF3F19F00196A11DB11DFFBFBA2FA92F79
:100EA000982F88278E0F911DA11DB11DE2E0880F9C
:100EB000991FAA1FBB1FEA95D1F7861B970B885E67
:100EC0009340C8F2215030404040504068517C4F20
:100ED000211531054105510571F60895789484B5C1
:100EE000826084BD84B5816084BD85B5826085BD26
:100EF00085B5816085BDEEE6F0E08081816080830C
:100F0000E1E8F0E0108280818260808380818160EE
:100F10008083E0E8F0E0808181608083E1EBF0E0B5
:100F2000808184608083E0EBF0E080818160808359
:100F3000EAE7F0E080818460808380818260808342
:100F40008081816080838081806880831092C1006D
:100F50000895982F8E3008F09E50977080919501DB
:100F60008295880F880F807C892B80937C008091EC
:100F70007A00806480937A0080917A0086FDFCCFAD
:100F80002091780040917900942F80E030E0282B68
:100F9000392BC901089508951F920F920FB60F9231
:100FA00011242F933F934F938F939F93EF93FF932E
:100FB0008091C00082FD1DC04091C600209130028A
:100FC000309131022F5F3F4F2F733070809132028A
:100FD000909133022817390771F0E0913002F091B7
:100FE0003102E051FE4F40833093310220933002B2
:100FF00002C08091C600FF91EF919F918F914F9118
:101000003F912F910F900FBE0F901F901895E09178
:101010008402F0918502E05CFF4F819191912081E3
:101020003181821B930B8F739070892B11F00E947A
:10103000CB0708951F920F920FB60F9211242F9392
:101040003F938F939F93EF93FF932091740230917E
:10105000750280917602909177022817390731F452
:101060008091C1008F7D8093C10014C0E091760211
:10107000F0917702EC5CFD4F208180917602909197
:10108000770201968F739070909377028093760227
:101090002093C600FF91EF919F918F913F912F91E7
:1010A0000F900FBE0F901F901895AF92BF92DF92D6
:1010B000EF92FF920F931F93CF93DF93EC017A018E
:1010C0008B01DD24403081EE580780E0680780E026
:1010D000780711F0DD24D39491E0A92EB12CEC898E
:1010E000FD89DD2069F0C50108A002C0880F991FA5
:1010F0000A94E2F7808360E079E08DE390E005C038
:10110000108260E874E88EE190E0A80197010E94E7
:10111000D90E215030404040504056954795379564
:10112000279580E12030380720F0DD2011F0DD2404
:10113000D6CFE889F9893083EA89FB89208319A20F
:10114000EE89FF89408121E030E0C9010C8C02C0AA
:10115000880F991F0A94E2F7482B4083EE89FF8994
:101160004081C9010D8C02C0880F991F0A94E2F7D3
:10117000482B4083EE89FF894081C9010E8C02C053
:10118000880F991F0A94E2F7482B4083EE89FF8964
:1011900080810F8C02C0220F331F0A94E2F7209542
:1011A00028232083DF91CF911F910F91FF90EF9023
:1011B000DF90BF90AF900895DC011C96ED91FC91FB
:1011C0001D97E05CFF4F2191319180819181281B17
:1011D000390B2F733070C9010895DC011C96ED9115
:1011E000FC911D97E05CFF4F20813181E054F0407D
:1011F000DF01AE5BBF4F8D919C9111972817390786
:1012000019F42FEF3FEF07C08D919C91E80FF91F64
:101210008081282F30E0C9010895DC011C96ED91F2
:10122000FC911D97E05CFF4F20813181E054F0403C
:10123000DF01AE5BBF4F8D919C9111972817390745
:1012400019F42FEF3FEF10C08D919C911197E80F8B
:10125000F91F20818D919C91119701968F73907049
:1012600011969C938E9330E0C9010895DC0191960C
:101270008C919197882339F05496ED91FC91559774
:10128000808186FFF9CF91961C920895CF93DF93CA
:10129000EC01EE85FF85E05CFF4F20813181E05459
:1012A000F0402F5F3F4F2F733070DF01AE5BBF4FB9
:1012B0008D919C91119728173907D1F3E05CFF4F6E
:1012C00080819181E054F040E80FF91F6083EE8542
:1012D000FF85E05CFF4F31832083EE89FF89208109
:1012E00081E090E00F8C02C0880F991F0A94E2F70A
:1012F000282B208381E089A3EC89FD89808180648B
:10130000808381E090E0DF91CF91089510927B027D
:1013100010927A0288EE93E0A0E0B0E080937C0225
:1013200090937D02A0937E02B0937F0286EB91E0C2
:10133000909379028093780280EF91E090938502F8
:101340008093840284E392E09093870280938602E4
:1013500085EC90E0909389028093880284EC90E081
:1013600090938B0280938A0280EC90E090938D02A0
:1013700080938C0281EC90E090938F0280938E0298
:1013800082EC90E0909391028093900286EC90E042
:10139000909393028093920284E08093940283E07E
:1013A0008093950287E08093960285E08093970270
:1013B00081E0809398020895CF93DF930E946E0797
:1013C0000E94CF03C7E0D8E00E949F002097E1F37E
:1013D0000E940708F9CFCF92DF92EF92FF920F930E
:1013E0001F93CF93DF937C016B018A01C0E0D0E0B3
:1013F0000FC0D6016D916D01D701ED91FC91019067
:10140000F081E02DC7010995C80FD91F0150104088
:101410000115110571F7CE01DF91CF911F910F9149
:10142000FF90EF90DF90CF900895EF92FF920F938F
:101430001F938C01DC01ED91FC910190F081E02D76
:101440006DE009957C01D801ED91FC910190F0814E
:10145000E02DC8016AE009959C012E0D3F1DC901D0
:101460001F910F91FF90EF900895CF93DF93EC01C0
:101470006115710519F420E030E00FC0DB010D901B
:101480000020E9F71197A61BB70BE881F9810280CC
:10149000F381E02DAD0109959C01C901DF91CF9148
:1014A00008954F925F927F928F929F92AF92BF92D8
:1014B000CF92DF92EF92FF920F931F93DF93CF9320
:1014C000CDB7DEB7A1970FB6F894DEBF0FBECDBF84
:1014D0002C01742ECB01223008F42AE019A231E24B
:1014E000C32ED12CCC0EDD1E822E9924AA24BB241F
:1014F000672D752FA50194010E94D90E79018A01EB
:10150000C801B701A50194010E94BA0E472D461BE0
:101510000894C108D1084A3014F4405D01C0495C08
:10152000F6014083E114F1040105110521F07E2C40
:101530005F2DC801DDCFC201B6010E94350AA19618
:101540000FB6F894DEBF0FBECDBFCF91DF911F91D4
:101550000F91FF90EF90DF90CF90BF90AF909F9052
:101560008F907F905F904F900895DC012115310599
:1015700041F4ED91FC910190F081E02D642F0995EB
:1015800008950E94510A0895EF92FF920F931F93BE
:101590007C010E94B50A8C01C7010E94150A9C01BA
:1015A000200F311FC9011F910F91FF90EF900895F7
:1015B000CF92DF92EF92FF920F931F93CF93DF931F
:1015C000EC016A017B012115310541F4E881F981C3
:1015D0000190F081E02D642F09951FC02A3031055C
:1015E000D1F477FF17C0E881F9810190F081E02DF7
:1015F0006DE209958C0144275527BA014C195D0904
:101600006E097F09CE012AE00E94510A9801280F35
:10161000391F04C02AE00E94510A9C01C901DF91D0
:10162000CF911F910F91FF90EF90DF90CF90089591
:10163000EF92FF920F931F937B019A010027F7FC13
:101640000095102FB801A7010E94D80A1F910F9191
:10165000FF90EF9008950E94350A0895EF92FF924F
:101660000F931F937C010E94350A8C01C7010E94D1
:10167000150A080F191FC8011F910F91FF90EF90D5
:101680000895DC01FB0114968D919C911597892B8F
:1016900031F461157105A9F090E0808108C00D90CA
:1016A000BC91A02D6115710529F490E08C918823DF
:1016B00049F407C0CD010E946A009C0190E0232BF1
:1016C00009F491E0892F08950F931F93CF93DF932F
:1016D000EC018B016F5F7F4F888199810E94D90D4A
:1016E000009711F480E005C0998388831B830A83E7
:1016F00081E0DF91CF911F910F910895CF93DF93F8
:10170000EC0188819981892B29F08A819B81861738
:10171000970760F4CE010E94640B882341F08C810E
:101720009D81892B19F4E881F981108281E0DF9194
:10173000CF910895EF92FF920F931F93CF93DF9372
:10174000EC017B016C817D81E114F104C1F0411554
:10175000510599F08A01060F171FB8010E947E0BF0
:10176000882369F0888199812C813D81820F931FA4
:10177000B7010E9473001D830C8381E001C080E0EB
:10178000DF91CF911F910F91FF90EF900895DF931C
:10179000CF9300D0CDB7DEB769831A82BE016F5FE9
:1017A0007F4F41E050E00E949A0B0F900F90CF9135
:1017B000DF910895CF93DF93EC01888199810097A1
:1017C00011F00E94410D198218821D821C821B8219
:1017D0001A82DF91CF910895EF92FF920F931F939A
:1017E000CF93DF93EC017B018A01BA010E947E0B4B
:1017F000882321F4CE010E94DA0B07C01D830C83DD
:1018000088819981B7010E947300CE01DF91CF9149
:101810001F910F91FF90EF900895CF93DF93EC010C
:10182000198218821B821A821D821C821E826115F7
:10183000710551F0DB010D900020E9F71197A61B0F
:10184000B70BAD010E94EC0BDF91CF9108950F9380
:101850001F93182F092F6115710559F0DB010D90A9
:101860000020E9F71197A61BB70BAD010E94EC0B06
:1018700002C00E94DA0B812F902F1F910F910895C3
:10188000BF92CF92DF92EF92FF920F931F93CF936D
:10189000DF93082FB92E6B017A01E9012417350770
:1018A00010F4EA017901802F9B2D60E971E00E941C
:1018B0000D0CD60114968D919C9115978E159F0550
:1018C000D0F08C179D0708F4EC01D601ED91FC9146
:1018D0001197EC0FFD1F108110826D917C916E0DA0
:1018E0007F1D802F9B2D0E94270CD601ED91FC912E
:1018F000EC0FFD1F1083802F9B2DDF91CF911F9147
:101900000F91FF90EF90DF90CF90BF900895CF930D
:10191000DF93EC01FB018617970761F0608171810D
:101920006115710529F0448155810E94EC0B02C0BC
:101930000E94DA0BCE01DF91CF910895FC018081E6
:1019400091810E94410D08950F931F93CF93DF93D0
:10195000BC018230910510F462E070E0E0919C02DD
:10196000F0919D0240E050E0A0E0B0E024C0808112
:10197000918186179707D0F08617970771F48281B7
:101980009381109729F013969C938E9312972CC0F5
:1019900090939D0280939C0227C04115510519F038
:1019A0008417950718F48D01AC01EF01DF018281E6
:1019B00093819C01F9013097D1F641155105F9F059
:1019C000CA01861B970B8430910580F48A819B8124
:1019D0000115110521F0F8019383828304C09093CF
:1019E0009D0280939C02FE01329645C0FE01E80FE5
:1019F000F91F619371930297998388833CC080910A
:101A00009A0290919B02892B41F4809198019091C8
:101A1000990190939B0280939A0240919A01509170
:101A20009B014115510541F44DB75EB78091960178
:101A300090919701481B590B20919A0230919B027B
:101A400024173507B0F4CA01821B930B861797073A
:101A500080F0AB014E5F5F4F8417950750F0420F47
:101A6000531F50939B0240939A02F9016193719323
:101A700002C0E0E0F0E0CF01DF91CF911F910F9124
:101A80000895CF93DF939C01009709F48FC0EC0178
:101A900022971B821A8260919C0270919D026115AF
:101AA000710581F488819981820F931F20919A0298
:101AB00030919B022817390739F5D0939B02C093C8
:101AC0009A0274C0DB0140E050E0AC17BD0708F19A
:101AD000BB83AA83FE0121913191E20FF31FAE1760
:101AE000BF0779F48D919C911197280F391F2E5FB4
:101AF0003F4F3983288312968D919C9113979B8336
:101B00008A834115510571F4D0939D02C0939C02C4
:101B10004DC012968D919C911397AD01009711F0D5
:101B2000DC01D3CFDA011396DC93CE931297FA013E
:101B300021913191E20FF31FCE17DF0769F48881FD
:101B40009981280F391F2E5F3F4FFA01318320837F
:101B50008A819B8193838283E0E0F0E0DB0112962F
:101B60008D919C911397009719F0BC01FD01F6CF60
:101B7000AB014E5F5F4FDB018D919C91840F951FF0
:101B800020919A0230919B022817390779F43097F7
:101B900029F410929D0210929C0202C013821282BC
:101BA0004250504050939B0240939A02DF91CF9154
:101BB00008956F927F928F929F92AF92BF92CF9231
:101BC000DF92EF92FF920F931F93CF93DF938C01DD
:101BD000009729F4CB010E94A40C8C01BBC08EEFAE
:101BE000E82E8FEFF82EE00EF11E4801860E971EAC
:101BF0008E149F0408F4ACC0D7014D915C911197ED
:101C000046175707B8F04530510508F4A3C0CA017C
:101C100004978617970708F49DC042505040461B12
:101C2000570BF401419351936D937C93CF010E9424
:101C3000410D90C05B01A41AB50A3801640E751EEF
:101C4000A0919C02B0919D02E0E0F0E0CC24DD2464
:101C500047C0A615B705A9F5CD91DC911197CE0126
:101C600002968A159B0568F1CE018A199B09029696
:101C700012962C91129713963C91059758F0F40107
:101C800022833383CA19DB09D183C083D7016D93C3
:101C90007C9309C04E5F5F4F4C0F5D1FF70151836E
:101CA0004083C901FC01C114D10431F0D60113965F
:101CB000FC93EE9312974EC0F0939D02E0939C022A
:101CC00049C08D919C911197E817F90708F4FC0120
:101CD0006D0112968C91129713969C919C01D901DB
:101CE000109709F0B6CF80919A0290919B028615C9
:101CF0009705E9F4E617F707D0F420919A0130919F
:101D00009B012115310541F42DB73EB78091960115
:101D100090919701281B390B82169306C8F4909274
:101D20009B0280929A02F7017183608313C0CB01FA
:101D30000E94A40CEC01009759F0D7014D915C91E1
:101D4000B8010E946100C8010E94410D8E0102C0CD
:101D500000E010E0C801DF91CF911F910F91FF903B
:101D6000EF90DF90CF90BF90AF909F908F907F903B
:101D70006F900895629FD001739FF001829FE00DE4
:101D8000F11D649FE00DF11D929FF00D839FF00DFA
:101D9000749FF00D659FF00D9927729FB00DE11DA6
:101DA000F91F639FB00DE11DF91FBD01CF01112483
:101DB0000895A1E21A2EAA1BBB1BFD010DC0AA1F8C
:101DC000BB1FEE1FFF1FA217B307E407F50720F0A4
:101DD000A21BB30BE40BF50B661F771F881F991F1F
:101DE0001A9469F760957095809590959B01AC0168
:101DF000BD01CF010895EE0FFF1F0590F491E02D76
:101E0000099410E0CCE6D0E004C0FE010E94FD0E73
:0C1E10002296CE36D107C9F7F894FFCF18
:101E1C000041300041303A20002C2000413100417B
:101E2C00313A200041320041323A20004133004126
:101E3C00333A200041340041343A2000413500410E
:101E4C00353A20004141006E616D6500766F6C740F
:101E5C006167650076616C75650074696D65737496
:101E6C00616D700063757272656E740072706D00D6
:101E7C0070777200454F4C005300526561647900D5
:101E8C006E756C6C0066616C7365007472756500C0
:101E9C0022225C5C08620C660A6E0D7209740000EA
:101EAC000000C201000180009E0200000000000042
:101EBC00CA0500000000D304EB0900000000F10388
:101ECC00EB09000000004609EB09DC080D09ED08E0
:021EDC003609C5
:00000001FF
