:100000000C9437000C945F000C945F000C945F001C
:100010000C945F000C945F000C945F000C945F00E4
:100020000C945F000C945F000C945F000C945F00D4
:100030000C945F000C945F000C945F000C945F00C4
:100040000C943C050C945F000C9461060C94AF0674
:100050000C945F000C945F000C945F000C945F00A4
:100060000C945F000C945F00A2001B089B001124FD
:100070001FBECFEFD8E0DEBFCDBF13E0A0E0B1E000
:10008000EAEFFFE102C005900D92A433B107D9F762
:1000900014E0A4E3B3E001C01D92A431B107E1F77D
:1000A00010E0CCE6D0E004C02297FE010E94EC0FE5
:1000B000C836D107C9F70E9471080C94F00F0C9450
:1000C0000000FB01DC0102C001900D924150504044
:1000D000D8F70895FB01DC018D9101908019011082
:1000E000D9F3990B0895FB01DC0101900D920020DA
:1000F000E1F708958130910581F46F5F7F4FD1F46E
:1001000085E393E060E071E00E942D0B8AE493E0C8
:1001100066E071E00E942D0B0895892B59F46F5F02
:100120007F4F41F48AE493E00E94BE0B85E393E0A5
:100130000E94BE0B089580E090E06FEF7FEF0E9479
:100140007A00089581E090E06FEF7FEF0E947A00DF
:1001500008950F931F93EAE7F0E080818460808325
:1001600080818D7F808380818E7F80830EEE13E07F
:10017000C80140E052EC61E070E00E94EA06C8016C
:1001800069E071E00E94F6091F910F910895EF92C6
:10019000FF920F931F938EE480937C0062E070E0E7
:1001A00080E090E00E94AA0580917A0080648093AC
:1001B0007A0080917A0086FDFCCF8091780090E0F3
:1001C000A0E0B0E060917900362F20E0442737FDB1
:1001D0004095542F282B392B4A2B5B2B60ED7FE564
:1001E00081E190E00E94CF0F122F032FF42EE52E15
:1001F00080913403882381F08EEE93E06FE071E00C
:100200000E94F3098EEE93E0412F502F6F2D7E2D2B
:100210002AE030E00E94AD09612F702F8F2D9E2DB6
:100220001F910F91FF90EF900895CF93DF93EC0112
:1002300080913403882369F08EEE93E065E171E0EC
:100240000E94F3098EEE93E0BE014AE050E00E9466
:10025000D4090E94C7009E01442737FD4095542FC2
:100260000E948E0F20E034E040E050E00E94CF0F6B
:10027000CA01B901DF91CF910895EF92FF920F93D8
:100280001F93CF93DF93EC0180913403882369F0AF
:100290008EEE93E06DE171E00E94F3098EEE93E043
:1002A000BE014AE050E00E94D4090E94C7009B01B1
:1002B000AC017E010027F7FC0095102FC801B701A3
:1002C000E2E0660F771F881F991FEA95D1F76E0D40
:1002D0007F1D801F911F0E948E0F20E034E040E0C0
:1002E00050E00E94CF0FC901DF91CF911F910F9174
:1002F000FF90EF900895EF92FF920F931F93CF938B
:10030000DF93EC010E94C7009B01AC017E01002736
:10031000F7FC0095102FC801B701F2E0660F771FB8
:10032000881F991FFA95D1F76E0D7F1D801F911FB1
:100330000E948E0F20E034E040E050E00E94CF0F9A
:1003400079018A01809134038823D9F08EEE93E0FD
:1003500065E271E00E94F3098EEE93E0BE014AE08F
:1003600050E00E94D4098EEE93E06DE271E00E94AD
:10037000F3098EEE93E0B801A7012AE030E00E9475
:10038000AD09C801B7010E94DA0E20E030E040EC70
:100390005FE30E943F0E7B018C0120E030E040E0F3
:1003A00050E00E948A0F88234CF0C801B70120E07A
:1003B00030E040E05FE30E94DB0D08C0C801B701F8
:1003C00020E030E040E05FE30E94DA0D0E94A70EDB
:1003D000DF91CF911F910F91FF90EF9008950F93B0
:1003E0001F93DF93CF93CDB7DEB727970FB6F8945F
:1003F000DEBF0FBECDBF8EEE93E00E9471071816D0
:1004000019068CF58AE493E069E371E00E94470BDA
:100410000FC08EEE93E00E94A207682F8AE493E05B
:100420000E94E70A6AE070E080E090E00E94AA057E
:100430008EEE93E00E9471071816190654F38E0190
:100440000F5F1F4FC8016AE473E040E050E022E014
:1004500030E00E94600B8AE493E0B8010E94A70B91
:10046000C8010E94BE0B8AE493E06AE371E00E9437
:10047000610A8823E1F090E080913403882309F435
:1004800091E0909334038AE493E06DE371E00E947D
:10049000470B80913403882329F08EEE93E060E4CB
:1004A00071E098C28EEE93E06AE471E093C28AE450
:1004B00093E065E571E00E94610A882301F10E94E2
:1004C000840560935503709356038093570390936C
:1004D00058038EE00E943E069093490380934803A0
:1004E0000E9484056093590370935A0380935B03C1
:1004F00090935C038EEE93E068E571E0C8C08AE4F7
:1005000093E060E671E00E94610A882301F10E9495
:10051000840560935503709356038093570390931B
:1005200058038FE00E943E0690934903809348034E
:100530000E9484056093590370935A0380935B0370
:1005400090935C038EEE93E063E671E0A0C08AE4D2
:1005500093E068E671E00E94610A882301F10E943D
:1005600084056093550370935603809357039093CB
:10057000580380E10E943E0690934903809348030C
:100580000E9484056093590370935A0380935B0320
:1005900090935C038EEE93E06BE671E078C08AE4A2
:1005A00093E060E771E00E94610A882301F10E94F4
:1005B000840560935503709356038093570390937B
:1005C000580381E10E943E069093490380934803BB
:1005D0000E9484056093590370935A0380935B03D0
:1005E00090935C038EEE93E063E771E050C08AE481
:1005F00093E068E771E00E94610A882301F10E949C
:10060000840560935503709356038093570390932A
:10061000580382E10E943E06909349038093480369
:100620000E9484056093590370935A0380935B037F
:1006300090935C038EEE93E06BE771E028C08AE450
:1006400093E060E871E00E94610A882309F456C0D3
:100650000E9484056093550370935603809357035B
:100660009093580383E10E943E0690934903809340
:1006700048030E9484056093590370935A03809342
:100680005B0390935C038EEE93E063E871E00E945D
:10069000F30960914803709149038EEE93E04AE0BC
:1006A00050E00E94C1098EEE93E06DE571E00E947A
:1006B000F3094091590350915A0360915B03709183
:1006C0005C038091550390915603A0915703B0911C
:1006D0005803481B590B6A0B7B0B8EEE93E02AE004
:1006E00030E00E944A098EEE93E06DE571E00E94D1
:1006F000F3090E948405AB01BC01D9C08AE493E0F0
:100700006DE371E00E94610A882309F466C10E94CA
:1007100084056093590370935A0380935B0390930D
:100720005C038EE00E943E060E943D01AA2797FDD1
:10073000A095BA2F80933C0390933D03A0933E0372
:10074000B0933F038FE00E943E060E941501609324
:10075000400370934103809342039093430380E1ED
:100760000E943E060E947B01609344037093450300
:100770008093460390934703609140037091410337
:10078000809142039091430320913C0330913D03BB
:1007900040913E0350913F030E948E0F28EE33E0BC
:1007A00040E050E00E94CF0F20935103309352035A
:1007B000409353035093540380913403882309F4E6
:1007C0007DC08EEE93E068E871E00E94F3094091ED
:1007D0003C0350913D0360913E0370913F038EEEC8
:1007E00093E02AE030E00E946D098EEE93E06CE821
:1007F00071E00E94F3098EEE93E06FE871E00E94D1
:10080000F30940914003509141036091420370917C
:1008100043038EEE93E02AE030E00E946D098EEEF5
:1008200093E06CE871E00E94F3098EEE93E063E9D7
:1008300071E00E94F3094091440350914503609197
:100840004603709147038EEE93E02AE030E00E9469
:100850006D098EEE93E06CE871E00E94F3098EEE74
:1008600093E067E971E00E94F309409151035091D0
:10087000520360915303709154038EEE93E02AE08B
:1008800030E00E946D098EEE93E06CE871E00E940A
:10089000F3098EEE93E06BE971E00E94F309409159
:1008A000590350915A0360915B0370915C038EEE83
:1008B00093E02AE030E00E945909D3C08EEE93E025
:1008C0006FE971E00E94F6098EEE93E061EA71E053
:1008D0000E94F30940913C0350913D0360913E0317
:1008E00070913F038EEE93E02AE030E00E946D09A4
:1008F0008EEE93E06EEA71E00E94F6098EEE93E0D0
:1009000060EB71E00E94F309409140035091410374
:1009100060914203709143038EEE93E02AE030E051
:100920000E946D098EEE93E06EEA71E00E94F60976
:100930008EEE93E06DEB71E00E94F3094091440369
:100940005091450360914603709147038EEE93E00A
:100950002AE030E00E946D098EEE93E06EEA71E0CD
:100960000E94F6098EEE93E066EC71E00E94F309B6
:10097000409151035091520360915303709154037D
:100980008EEE93E02AE030E00E946D098EEE93E057
:100990006EEA71E00E94F6098EEE93E061ED71E07F
:1009A0000E94F3094091590350915A0360915B03EF
:1009B00070915C038EEE93E02AE030E00E945909CA
:1009C0008EEE93E060EE71E00E94F6098EEE93E009
:1009D00062EE71E00E94F60944C08AE493E066E0AA
:1009E00071E00E94610A8823B1F18EEE93E066EE19
:1009F00071E00E94F6098EEE93E068EF71E00E94CC
:100A0000F3098EEE93E065E373E00E943C0A8EEEFC
:100A100093E06BE072E00E94F6098EEE93E065E1F0
:100A200072E00E94F6098EEE93E06EE272E00E94A0
:100A3000F6098EEE93E066EA72E00E94F6098EEE09
:100A400093E066EC72E00E94F6098EEE93E069EFA7
:100A500072E00E94F6098AE493E069E371E00E9483
:100A6000470B27960FB6F894DEBF0FBECDBFCF91D0
:100A7000DF911F910F9108951F920F920FB60F9261
:100A800011242F933F938F939F93AF93BF938091A4
:100A9000610390916203A0916303B091640330916C
:100AA00065030196A11DB11D232F2D5F2D3720F069
:100AB0002D570196A11DB11D2093650380936103FD
:100AC00090936203A0936303B093640380915D03EA
:100AD00090915E03A0915F03B09160030196A11D08
:100AE000B11D80935D0390935E03A0935F03B09369
:100AF0006003BF91AF919F918F913F912F910F9084
:100B00000FBE0F901F9018959FB7F89420915D032A
:100B100030915E0340915F035091600386B5A89BBE
:100B200006C08F3F21F02F5F3F4F4F4F5F4F9FBF5A
:100B3000542F432F322F2227280F311D411D511DC5
:100B400082E0220F331F441F551F8A95D1F7B90148
:100B5000CA0108959B01AC017FB7F89480915D03B1
:100B600090915E03A0915F03B091600366B5A89B6E
:100B700005C06F3F19F00196A11DB11D7FBFBA2FAF
:100B8000A92F982F8827860F911DA11DB11D62E006
:100B9000880F991FAA1FBB1F6A95D1F7BC012DC0F2
:100BA000FFB7F89480915D0390915E03A0915F037D
:100BB000B0916003E6B5A89B05C0EF3F19F0019620
:100BC000A11DB11DFFBFBA2FA92F982F88278E0F07
:100BD000911DA11DB11DE2E0880F991FAA1FBB1F27
:100BE000EA95D1F7861B970B885E9340C8F2215097
:100BF00030404040504068517C4F2115310541053F
:100C0000510571F60895789484B5826084BD84B5E9
:100C1000816084BD85B5826085BD85B5816085BDF7
:100C2000EEE6F0E0808181608083E1E8F0E0108210
:100C3000808182608083808181608083E0E8F0E051
:100C4000808181608083E1EBF0E08081846080833B
:100C5000E0EBF0E0808181608083EAE7F0E0808172
:100C600084608083808182608083808181608083D2
:100C70008081806880831092C1000895982F8E3003
:100C800008F09E50977080911C038295880F880F02
:100C9000807C892B80937C0080917A008064809393
:100CA0007A0080917A0086FDFCCF209178004091F7
:100CB0007900942F80E030E0282B392BC90108956A
:100CC00008951F920F920FB60F9211242F933F9306
:100CD0004F938F939F93EF93FF938091C00082FD7A
:100CE0001DC04091C6002091A6033091A7032F5F3D
:100CF0003F4F2F7330708091A8039091A90328175C
:100D0000390771F0E091A603F091A703EA59FC4F6F
:100D100040833093A7032093A60302C08091C600AE
:100D2000FF91EF919F918F914F913F912F910F9054
:100D30000FBE0F901F901895E091FA03F091FB03FE
:100D4000E05CFF4F8191919120813181821B930B57
:100D50008F739070892B11F00E94600608951F9286
:100D60000F920FB60F9211242F933F938F939F935F
:100D7000EF93FF932091EA033091EB038091EC0312
:100D80009091ED032817390731F48091C1008F7DD0
:100D90008093C10014C0E091EC03F091ED03E6559F
:100DA000FC4F20818091EC039091ED0301968F73AD
:100DB00090709093ED038093EC032093C600FF9115
:100DC000EF919F918F913F912F910F900FBE0F90B8
:100DD0001F901895AF92BF92DF92EF92FF920F9300
:100DE0001F93CF93DF93EC017A018B01DD24403018
:100DF00081EE580780E0680780E0780711F0DD2475
:100E0000D39491E0A92EB12CEC89FD89DD2069F005
:100E1000C50108A002C0880F991F0A94E2F78083D9
:100E200060E079E08DE390E005C0108260E874E84E
:100E30008EE190E0A80197010E94AD0F2150304053
:100E400040405040569547953795279580E1203092
:100E5000380720F0DD2011F0DD24D6CFE889F989AC
:100E60003083EA89FB89208319A2EE89FF894081BA
:100E700021E030E0C9010C8C02C0880F991F0A9450
:100E8000E2F7482B4083EE89FF894081C9010D8C30
:100E900002C0880F991F0A94E2F7482B4083EE891D
:100EA000FF894081C9010E8C02C0880F991F0A94E6
:100EB000E2F7482B4083EE89FF8980810F8C02C0C6
:100EC000220F331F0A94E2F7209528232083DF9115
:100ED000CF911F910F91FF90EF90DF90BF90AF9057
:100EE0000895DC011C96ED91FC911D97E05CFF4F8D
:100EF0002191319180819181281B390B2F733070A2
:100F0000C9010895DC011C96ED91FC911D97E05CF0
:100F1000FF4F20813181E054F040DF01AE5BBF4FD5
:100F20008D919C9111972817390719F42FEF3FEFF6
:100F300007C08D919C91E80FF91F8081282F30E028
:100F4000C9010895DC011C96ED91FC911D97E05CB0
:100F5000FF4F20813181E054F040DF01AE5BBF4F95
:100F60008D919C9111972817390719F42FEF3FEFB6
:100F700010C08D919C911197E80FF91F20818D91E0
:100F80009C91119701968F73907011969C938E93FC
:100F900030E0C9010895DC0191968C9191978823E6
:100FA00039F05496ED91FC915597808186FFF9CFE9
:100FB00091961C920895CF93DF93EC01EE85FF8507
:100FC000E05CFF4F20813181E054F0402F5F3F4FC4
:100FD0002F733070DF01AE5BBF4F8D919C911197E5
:100FE00028173907D1F3E05CFF4F80819181E054ED
:100FF000F040E80FF91F6083EE85FF85E05CFF4F4E
:1010000031832083EE89FF89208181E090E00F8C7D
:1010100002C0880F991F0A94E2F7282B208381E0F1
:1010200089A3EC89FD8980818064808381E090E0E0
:10103000DF91CF9108951092F1031092F00388EEA2
:1010400093E0A0E0B0E08093F2039093F303A093C9
:10105000F403B093F50387E293E09093EF0380935A
:10106000EE0386E693E09093FB038093FA038AEA0B
:1010700093E09093FD038093FC0385EC90E09093C4
:10108000FF038093FE0384EC90E09093010480932F
:10109000000480EC90E0909303048093020481ECC0
:1010A00090E0909305048093040482EC90E0909388
:1010B00007048093060486EC90E0909309048093E3
:1010C000080484E080930A0483E080930B0487E0A3
:1010D00080930C0485E080930D0481E080930E04DE
:1010E0000895CF93DF930E9403060E94A900CCE9E4
:1010F000D6E00E94EF012097E1F30E949C06F9CF11
:10110000CF92DF92EF92FF920F931F93CF93DF93D3
:101110007C016B018A01C0E0D0E00FC0D6016D9167
:101120006D01D701ED91FC910190F081E02DC70197
:101130000995C80FD91F015010400115110571F70D
:10114000CE01DF91CF911F910F91FF90EF90DF9033
:10115000CF900895EF92FF920F931F938C01DC01C3
:10116000ED91FC910190F081E02D6DE009957C01FD
:10117000D801ED91FC910190F081E02DC8016AE069
:1011800009959C012E0D3F1DC9011F910F91FF90E4
:10119000EF900895CF93DF93EC016115710519F479
:1011A00020E030E00FC0DB010D900020E9F711973F
:1011B000A61BB70BE881F9810280F381E02DAD0118
:1011C00009959C01C901DF91CF9108954F925F92DB
:1011D0007F928F929F92AF92BF92CF92DF92EF92C7
:1011E000FF920F931F93DF93CF93CDB7DEB7A197F5
:1011F0000FB6F894DEBF0FBECDBF2C01742ECB010D
:10120000223008F42AE019A231E2C32ED12CCC0EF0
:10121000DD1E822E9924AA24BB24672D752FA501DB
:1012200094010E94AD0F79018A01C801B701A5019F
:1012300094010E948E0F472D461B0894C108D108C7
:101240004A3014F4405D01C0495CF6014083E1146A
:10125000F1040105110521F07E2C5F2DC801DDCFC1
:10126000C201B6010E94CA08A1960FB6F894DEBF6B
:101270000FBECDBFCF91DF911F910F91FF90EF90E7
:10128000DF90CF90BF90AF909F908F907F905F90B6
:101290004F900895DC012115310541F4ED91FC9149
:1012A0000190F081E02D642F099508950E94E608D1
:1012B0000895EF92FF920F931F937C010E944A09B9
:1012C0008C01C7010E94AA089C01200F311FC9018F
:1012D0001F910F91FF90EF900895CF92DF92EF92C0
:1012E000FF920F931F93CF93DF93EC016A017B0171
:1012F0002115310541F4E881F9810190F081E02D5B
:10130000642F09951FC02A303105D1F477FF17C02B
:10131000E881F9810190F081E02D6DE209958C0161
:1013200044275527BA014C195D096E097F09CE0182
:101330002AE00E94E6089801280F391F04C02AE01D
:101340000E94E6089C01C901DF91CF911F910F9186
:10135000FF90EF90DF90CF900895EF92FF920F9360
:101360001F937C010E946D098C01C7010E94AA088D
:101370009C01200F311FC9011F910F91FF90EF9029
:101380000895EF92FF920F931F937B019A0100271C
:10139000F7FC0095102FB801A7010E946D091F915D
:1013A0000F91FF90EF900895CF92DF92EF92FF920E
:1013B0000F931F936C017B019A010027F7FC0095A6
:1013C000102FB801A7010E946D098C01C6010E946F
:1013D000AA08080F191FC8011F910F91FF90EF90E5
:1013E000DF90CF9008950E94CA080895EF92FF926F
:1013F0000F931F937C010E94CA088C01C7010E94B1
:10140000AA08080F191FC8011F910F91FF90EF90B4
:101410000895AF92BF92CF92DF92EF92FF920F9317
:101420001F93CF93DF935C016B01EE24FF24C0E098
:10143000D0E010C0D501ED91FC9100811181C60171
:10144000BE010E94500A682FC501F8010995E80EF7
:10145000F91E2196F60184819581C817D90750F3AA
:10146000C701DF91CF911F910F91FF90EF90DF9017
:10147000CF90BF90AF900895EF92FF920F931F937C
:101480007C010E94090A8C01C7010E94AA089C01E4
:10149000200F311FC9011F910F91FF90EF90089508
:1014A000FC01848195816817790748F40190F081E7
:1014B000E02D309721F0E60FF71F8081089580E03E
:1014C0000895DC01FB0114968D919C911597892B51
:1014D00031F461157105A9F090E0808108C00D908C
:1014E000BC91A02D6115710529F490E08C918823A1
:1014F00049F407C0CD010E946A009C0190E0232BB3
:1015000009F491E0892F08950F931F93CF93DF93F0
:10151000EC018B016F5F7F4F888199810E94F90CEC
:10152000009711F480E005C0998388831B830A83A8
:1015300081E0DF91CF911F910F910895CF93DF93B9
:10154000EC0188819981892B29F08A819B818617FA
:10155000970760F4CE010E94840A882341F08C81B1
:101560009D81892B19F4E881F981108281E0DF9156
:10157000CF910895EF92FF920F931F93CF93DF9334
:10158000EC017B016C817D81E114F104C1F0411516
:10159000510599F08A01060F171FB8010E949E0A93
:1015A000882369F0888199812C813D81820F931F66
:1015B000B7010E9473001D830C8381E001C080E0AD
:1015C000DF91CF911F910F91FF90EF900895DF93DE
:1015D000CF9300D0CDB7DEB769831A82BE016F5FAB
:1015E0007F4F41E050E00E94BA0A0F900F90CF91D8
:1015F000DF910895CF93DF93EC0188819981009763
:1016000011F00E94610C198218821D821C821B82BB
:101610001A82DF91CF910895EF92FF920F931F935B
:10162000CF93DF93EC017B018A01BA010E949E0AED
:10163000882321F4CE010E94FA0A07C01D830C837F
:1016400088819981B7010E947300CE01DF91CF910B
:101650001F910F91FF90EF900895CF93DF93EC01CE
:10166000198218821B821A821D821C821E826115B9
:10167000710551F0DB010D900020E9F71197A61BD1
:10168000B70BAD010E940C0BDF91CF9108950F9322
:101690001F93182F092F6115710559F0DB010D906B
:1016A0000020E9F71197A61BB70BAD010E940C0BA8
:1016B00002C00E94FA0A812F902F1F910F91089566
:1016C000BF92CF92DF92EF92FF920F931F93CF932F
:1016D000DF93082FB92E6B017A01E9012417350732
:1016E00010F4EA017901802F9B2D6BE173E00E94D9
:1016F0002D0BD60114968D919C9115978E159F05F3
:10170000D0F08C179D0708F4EC01D601ED91FC9107
:101710001197EC0FFD1F108110826D917C916E0D61
:101720007F1D802F9B2D0E94470BD601ED91FC91D0
:10173000EC0FFD1F1083802F9B2DDF91CF911F9108
:101740000F91FF90EF90DF90CF90BF900895CF93CF
:10175000DF93EC01FB018617970761F060817181CF
:101760006115710529F0448155810E940C0B02C05E
:101770000E94FA0ACE01DF91CF910895FC01808189
:1017800091810E94610C08950F931F93CF93DF9373
:10179000BC018230910510F462E070E0E091120427
:1017A000F091130440E050E0A0E0B0E024C080815C
:1017B000918186179707D0F08617970771F4828179
:1017C0009381109729F013969C938E9312972CC0B7
:1017D000909313048093120427C04115510519F00A
:1017E0008417950718F48D01AC01EF01DF018281A8
:1017F00093819C01F9013097D1F641155105F9F01B
:10180000CA01861B970B8430910580F48A819B81E5
:101810000115110521F0F8019383828304C0909390
:10182000130480931204FE01329645C0FE01E80FB6
:10183000F91F619371930297998388833CC08091CB
:10184000100490911104892B41F480911F03909111
:101850002003909311048093100440912103509130
:1018600022034115510541F44DB75EB780911D0328
:1018700090911E03481B590B2091100430911104C4
:1018800024173507B0F4CA01821B930B86179707FC
:1018900080F0AB014E5F5F4F8417950750F0420F09
:1018A000531F5093110440931004F90161937193F5
:1018B00002C0E0E0F0E0CF01DF91CF911F910F91E6
:1018C0000895CF93DF939C01009709F48FC0EC013A
:1018D00022971B821A826091120470911304611581
:1018E000710581F488819981820F931F20911004E2
:1018F000309111042817390739F5D0931104C0939A
:10190000100474C0DB0140E050E0AC17BD0708F1E3
:10191000BB83AA83FE0121913191E20FF31FAE1721
:10192000BF0779F48D919C911197280F391F2E5F75
:101930003F4F3983288312968D919C9113979B83F7
:101940008A834115510571F4D0931304C093120496
:101950004DC012968D919C911397AD01009711F097
:10196000DC01D3CFDA011396DC93CE931297FA0100
:1019700021913191E20FF31FCE17DF0769F48881BF
:101980009981280F391F2E5F3F4FFA013183208341
:101990008A819B8193838283E0E0F0E0DB011296F1
:1019A0008D919C911397009719F0BC01FD01F6CF22
:1019B000AB014E5F5F4FDB018D919C91840F951FB2
:1019C00020911004309111042817390779F43097C9
:1019D00029F4109213041092120402C0138212828E
:1019E000425050405093110440931004DF91CF9126
:1019F00008956F927F928F929F92AF92BF92CF92F3
:101A0000DF92EF92FF920F931F93CF93DF938C019E
:101A1000009729F4CB010E94C40B8C01BBC08EEF50
:101A2000E82E8FEFF82EE00EF11E4801860E971E6D
:101A30008E149F0408F4ACC0D7014D915C911197AE
:101A400046175707B8F04530510508F4A3C0CA013E
:101A500004978617970708F49DC042505040461BD4
:101A6000570BF401419351936D937C93CF010E94E6
:101A7000610C90C05B01A41AB50A3801640E751E92
:101A8000A0911204B0911304E0E0F0E0CC24DD2436
:101A900047C0A615B705A9F5CD91DC911197CE01E8
:101AA00002968A159B0568F1CE018A199B09029658
:101AB00012962C91129713963C91059758F0F401C9
:101AC00022833383CA19DB09D183C083D7016D9385
:101AD0007C9309C04E5F5F4F4C0F5D1FF701518330
:101AE0004083C901FC01C114D10431F0D601139621
:101AF000FC93EE9312974EC0F0931304E0931204FC
:101B000049C08D919C911197E817F90708F4FC01E1
:101B10006D0112968C91129713969C919C01D9019C
:101B2000109709F0B6CF809110049091110486159A
:101B30009705E9F4E617F707D0F4209121033091D7
:101B400022032115310541F42DB73EB780911D03C5
:101B500090911E03281B390B82169306C8F49092AD
:101B6000110480921004F7017183608313C0CB01CC
:101B70000E94C40BEC01009759F0D7014D915C9184
:101B8000B8010E946100C8010E94610C8E0102C070
:101B900000E010E0C801DF91CF911F910F91FF90FD
:101BA000EF90DF90CF90BF90AF909F908F907F90FD
:101BB0006F9008955058BB27AA270ED071C162D1EB
:101BC00030F067D120F031F49F3F11F41EF457C17B
:101BD0000EF4E095E7FB4DC1E92F73D180F3BA17FE
:101BE000620773078407950718F071F49EF58BC19F
:101BF0000EF4E0950B2EBA2FA02D0B01B901900128
:101C00000C01CA01A0011124FF27591B99F0593F6B
:101C100050F4503E68F11A16F040A22F232F342FB3
:101C20004427585FF3CF469537952795A795F04001
:101C30005395C9F77EF41F16BA0B620B730B840B16
:101C4000BAF09150A1F0FF0FBB1F661F771F881FCE
:101C5000C2F70EC0BA0F621F731F841F48F4879526
:101C600077956795B795F7959E3F08F0B3CF939515
:101C7000880F08F09927EE0F9795879508950CD057
:101C80000FC107D140F0FED030F021F45F3F19F0D2
:101C9000F0C0511139C1F3C014D198F39923C9F39D
:101CA0005523B1F3951B550BBB27AA276217730762
:101CB000840738F09F5F5F4F220F331F441FAA1F16
:101CC000A9F333D00E2E3AF0E0E830D091505040D6
:101CD000E695001CCAF729D0FE2F27D0660F771F84
:101CE000881FBB1F261737074807AB07B0E809F066
:101CF000BB0B802DBF01FF2793585F4F2AF09E3FFB
:101D0000510568F0B6C000C15F3FECF3983EDCF3CC
:101D1000869577956795B795F7959F5FC9F7880F73
:101D2000911D9695879597F90895E1E0660F771FC5
:101D3000881FBB1F621773078407BA0720F0621B56
:101D4000730B840BBA0BEE1F88F7E095089504D04F
:101D50006894B111D9C00895BCD088F09F5790F015
:101D6000B92F9927B751A0F0D1F0660F771F881FC0
:101D7000991F1AF0BA95C9F712C0B13081F0C3D0DB
:101D8000B1E00895C0C0672F782F8827B85F39F079
:101D9000B93FCCF3869577956795B395D9F73EF41F
:101DA00090958095709561957F4F8F4F9F4F0895C7
:101DB000E89409C097FB3EF49095809570956195E5
:101DC0007F4F8F4F9F4F9923A9F0F92F96E9BB279B
:101DD0009395F695879577956795B795F111F8CF17
:101DE000FAF4BB0F11F460FF1BC06F5F7F4F8F4F82
:101DF0009F4F16C0882311F096E911C0772321F078
:101E00009EE8872F762F05C0662371F096E8862F0F
:101E100070E060E02AF09A95660F771F881FDAF766
:101E2000880F9695879597F90895990F0008550F93
:101E3000AA0BE0E8FEEF16161706E807F907C0F050
:101E400012161306E407F50798F0621B730B840B58
:101E5000950B39F40A2661F0232B242B252B21F432
:101E600008950A2609F4A140A6958FEF811D811DD2
:101E7000089597F99F6780E870E060E008959FEF0C
:101E800080EC089500240A94161617061806090611
:101E9000089500240A9412161306140605060895E0
:101EA000092E0394000C11F4882352F0BB0F40F468
:101EB000BF2B11F460FF04C06F5F7F4F8F4F9F4FA8
:101EC000089557FD9058440F551F59F05F3F71F02A
:101ED0004795880F97FB991F61F09F3F79F0879591
:101EE0000895121613061406551FF2CF4695F1DF1A
:101EF00008C0161617061806991FF1CF86957105AA
:101F0000610508940895E894BB2766277727CB01DD
:101F100097F908958ADF08F48FEF0895629FD00142
:101F2000739FF001829FE00DF11D649FE00DF11D94
:101F3000929FF00D839FF00D749FF00D659FF00D43
:101F40009927729FB00DE11DF91F639FB00DE11D30
:101F5000F91FBD01CF0111240895A1E21A2EAA1B79
:101F6000BB1BFD010DC0AA1FBB1FEE1FFF1FA21749
:101F7000B307E407F50720F0A21BB30BE40BF50B46
:101F8000661F771F881F991F1A9469F760957095CF
:101F9000809590959B01AC01BD01CF01089597FB01
:101FA000092E05260ED057FD04D0D7DF0AD0001C1D
:101FB00038F450954095309521953F4F4F4F5F4FE6
:101FC0000895F6F790958095709561957F4F8F4FA6
:101FD0009F4F0895EE0FFF1F0590F491E02D099497
:101FE00010E0CCE6D0E004C0FE010E94EC0F229687
:0A1FF000CE36D107C9F7F894FFCFF1
:101FFA00312E302E3100484800526561647900560E
:10200A0063633A2000495F7261773A2000565F7233
:10201A0061773A20004E5F7261773A2000566F6C02
:10202A0074735F52504D3A2000004444004141000D
:10203A0044656275673A204F6E0044656275673A77
:10204A00204F66660041300041303A20002C2000C3
:10205A0041310041313A200041320041323A2000F8
:10206A0041330041333A200041340041343A2000E0
:10207A0041350041353A2000563A20003B200049BC
:10208A003A20004E3A2000503A2000743A20007B51
:10209A00000922766F6C74616765223A20002C0071
:1020AA00092263757272656E74223A2000092272DF
:1020BA00706D223A20000922706F776572223A20E9
:1020CA0000092274696D657374616D70223A20008B
:1020DA007D00454F4C004D6561737572656D656E87
:1020EA007420426F617264004669726D776172652D
:1020FA00202056657273696F6E3A00436F6D6D6189
:10210A006E64733A004848203A207072696E74739C
:10211A002074686973206D6173736167650041415A
:10212A00203A207072696E7420566F6C742C2043AA
:10213A00757272656E742C2052504D2C20506F7738
:10214A00657220616E6420612054696D65737461E3
:10215A006D70202873696E6365206C6173742072D8
:10216A006573746172742920696E20616374756184
:10217A006C20556E69747320285B6D565D2C5B6DFF
:10218A00415D2C5B312F6D696E5D2C5B6D575D2C4B
:10219A005B75735D290020202020204F75747075AF
:1021AA007420697320696E204A534F4E2053747904
:1021BA006C65212121004178203A207072696E7481
:1021CA0073206F6E6C7920416E616C6F6720506965
:1021DA006E207820286269742076616C75652028E3
:1021EA00783A20302D352929004444203A20746F4A
:1021FA0067676C65206465627567206D6F6465202A
:10220A006F6E20616E64206F6666000001800014A4
:10221A0004000000000000DB0780087107A20782A3
:04222A0007CB0700D7
:00000001FF
