:100000000C9437000C945F000C945F000C945F001C
:100010000C945F000C945F000C945F000C945F00E4
:100020000C945F000C945F000C945F000C945F00D4
:100030000C945F000C945F000C945F000C945F00C4
:100040000C9436060C945F000C945B070C94A90783
:100050000C945F000C945F000C945F000C945F00A4
:100060000C945F000C945F00980015099100112416
:100070001FBECFEFD8E0DEBFCDBF11E0A0E0B1E002
:10008000E4E1FDE102C005900D92A23BB107D9F772
:1000900012E0A2EBB1E001C01D92AA38B107E1F76E
:1000A00010E0CCE6D0E004C02297FE010E94790E59
:1000B000C836D107C9F70E946B090C947D0E0C94C9
:1000C0000000FB01DC0102C001900D924150504044
:1000D000D8F70895FB01DC018D9101908019011082
:1000E000D9F3990B0895FB01DC0101900D920020DA
:1000F000E1F708958130910551F46F5F7F4F81F4EE
:100100008AEB91E060E071E00E94890B0895892BF1
:1001100039F46F5F7F4F21F48AEB91E00E941A0C53
:10012000089580E090E06FEF7FEF0E947A000895DD
:1001300081E090E06FEF7FEF0E947A0008954F9288
:100140005F926F927F928F929F92AF92BF92CF9267
:10015000DF92EF92FF920F931F93DF93CF93CDB770
:10016000DEB7C756D0400FB6F894DEBF0FBECDBF86
:1001700084E692E00E946B0818161906ECF48AEBEC
:1001800091E060E071E00E94A30B0FC084E692E072
:100190000E949C08682F8AEB91E00E94430B6AE062
:1001A00070E080E090E00E94A40684E692E00E9465
:1001B0006B081816190654F38E010F5F1F4FC80104
:1001C0006AEB71E040E050E022E030E00E94BC0BBE
:1001D0008AEB91E0B8010E94030CC8010E941A0C3E
:1001E0008AEB91E061E071E00E94BD0A882301F191
:1001F0000E947E066093C5017093C6018093C7017B
:100200009093C8018EE00E9438079093B9018093C3
:10021000B8010E947E066093C9017093CA01809361
:10022000CB019093CC0184E692E064E071E028C0B9
:100230008AEB91E06CE071E00E94BD0A882309F42A
:100240005CC00E947E066093C5017093C6018093D6
:10025000C7019093C8018FE00E9438079093B901BD
:100260008093B8010E947E066093C9017093CA0111
:100270008093CB019093CC0184E692E06FE071E033
:100280000E94BA0A6091B8017091B90184E692E0C7
:100290004AE050E00E94A70A84E692E069E071E03B
:1002A0000E94BA0A4091C9015091CA016091CB01E4
:1002B0007091CC018091C5019091C601A091C701B8
:1002C000B091C801481B590B6A0B7B0B84E692E086
:1002D0002AE030E00E94440A84E692E069E071E09E
:1002E0000E94BA0A0E947E06AB01BC0184E692E03D
:1002F0002AE030E00E94530AD3C18AEB91E064E126
:1003000071E00E94BD0A882301F10E947E0660937D
:10031000C5017093C6018093C7019093C80180E125
:100320000E9438079093B9018093B8010E947E061D
:100330006093C9017093CA018093CB019093CC0163
:1003400084E692E067E171E09BCF8AEB91E06CE19B
:1003500071E00E94BD0A882301F10E947E0660932D
:10036000C5017093C6018093C7019093C80181E1D4
:100370000E9438079093B9018093B8010E947E06CD
:100380006093C9017093CA018093CB019093CC0113
:1003900084E692E06FE171E073CF8AEB91E064E272
:1003A00071E00E94BD0A882301F10E947E066093DD
:1003B000C5017093C6018093C7019093C80182E183
:1003C0000E9438079093B9018093B8010E947E067D
:1003D0006093C9017093CA018093CB019093CC01C3
:1003E00084E692E067E271E04BCF8AEB91E06CE249
:1003F00071E00E94BD0A882301F10E947E0660938D
:10040000C5017093C6018093C7019093C80183E131
:100410000E9438079093B9018093B8010E947E062C
:100420006093C9017093CA018093CB019093CC0172
:1004300084E692E06FE271E023CF8AEB91E064E31F
:1004400071E00E94BD0A882309F41EC10E947E0645
:100450006093C5017093C6018093C7019093C80152
:100460008EE00E9438079093B3018093B2018FE031
:100470000E9438079093B5018093B40180E10E94F7
:1004800038079093B7018093B6010E947E0660936F
:10049000C9017093CA018093CB019093CC01609302
:1004A000C1017093C2018093C3019093C40168E0BD
:1004B000E62EF12CEC0EFD1E88E090E0E80EF91E11
:1004C000FB86EA86E8EFFFEFEE0EFF1E53E0452EB7
:1004D000512C5D864C861F861E8640E9642E41E0C5
:1004E000742E79866886C70167E371E00E94FD0576
:1004F000FC0133E5832E35E0932E958284828CE3D4
:1005000091E091838083C70164E471E00E94FD055E
:10051000FC018091B2019091B3012EECC22E25E036
:10052000D22ED582C482AA2797FDA095BA2F8083A8
:100530009183A283B383C7016AE471E00E94FD0541
:10054000FC018091C1019091C201A091C301B091C1
:10055000C401D582C48280839183A283B38388E25D
:10056000A82EB12CAC0EBD1ECE01C0969BA78AA7AB
:100570005DA64CA61FA61EA679A668A6C50167E3C0
:1005800071E00E94FD05FC019582848284E591E082
:1005900091838083C50164E471E00E94FD05FC0144
:1005A0008091B4019091B501D582C482AA2797FDAC
:1005B000A095BA2F80839183A283B383C5016AE497
:1005C00071E00E94FD05FC018091C1019091C20182
:1005D000A091C301B091C401D582C482808391836C
:1005E000A283B3838E01085B1F4FC8010896F801F0
:1005F000938382835582448217821682718260823D
:10060000C80167E371E00E94FD05FC0195828482C8
:100610008CE591E091838083C80164E471E00E94DD
:10062000FD05FC018091B6019091B701D582C4828D
:10063000AA2797FDA095BA2F80839183A283B383C5
:10064000C8016AE471E00E94FD05FC018091C101CE
:100650009091C201A091C301B091C401D582C4821E
:1006600080839183A283B383C70164E672E00E9412
:100670000104C50164E672E00E940104C80164E659
:1006800072E00E9401040CC08AEB91E060E671E028
:100690000E94BD0A8AEB91E060E071E00E94A30B2A
:1006A000C959DF4F0FB6F894DEBF0FBECDBFCF9153
:1006B000DF911F910F91FF90EF90DF90CF90BF904F
:1006C000AF909F908F907F906F905F904F90089524
:1006D000EAE7F0E080818460808380818D7F808381
:1006E00080818E7F808340918301509184016627B1
:1006F00057FD6095762F84E692E00E94E407089506
:10070000DF92EF92FF920F931F93CF93DF938C01B1
:10071000D62EDC0116968C9187FD03C0EE24FF24B3
:1007200021C0C0E0D0E0EE24FF2410C0D801149610
:10073000ED91FC911597A081B1812D913C91CF0154
:1007400060E2F9010995E80EF91E2196F80186810B
:10075000282F229527708F70829FC0011124C817FF
:10076000D90724F3D8011496ED91FC911597A08137
:10077000B1812D913C91CF016D2DF90109959C011D
:1007800040E0BAE0DB1609F441E04795442747957D
:10079000F80186818F77842B86832E0D3F1DC9013A
:1007A000DF91CF911F910F91FF90EF90DF9008950F
:1007B000DF93CF93CDB7DEB728970FB6F894DEBF9F
:1007C0000FBECDBFDC011C821B8286E991E09A83BB
:1007D00089837F836E831D821886ED91FC9111972A
:1007E0000190F081E02DCD01BE016F5F7F4F099533
:1007F00028960FB6F894DEBF0FBECDBFCF91DF9124
:100800000895DF93CF93CDB7DEB727970FB6F8944F
:10081000DEBF0FBECDBF1C821B822EE931E03A83C2
:1008200029837E836D8320EA2F83BE016F5F7F4F14
:100830000E94D80327960FB6F894DEBF0FBECDBF37
:10084000CF91DF910895FC0184818B3779F08B354E
:1008500089F40CC0815F8F70907F982B16969C93C3
:10086000858196810E94A4099C0102C020E030E0AD
:10087000C9010895A581B68116969C911697892F76
:100880008F7041F7EDCFFC0184818B3729F08B35D8
:1008900019F020E030E014C0A581B68116969C9135
:1008A0001697892F8F708F3031F08F5F8F70907F08
:1008B000982B16969C93858196810E94A4099C0191
:1008C000C9010895FF920F931F93CF93DF93EC011B
:1008D000F62E8F81882399F082E2681721F48C81AB
:1008E0008C3509F01F82ED81FE81A081B1812D91AF
:1008F0003C91CF016F2DF90109959C016AC08BE5F0
:10090000681709F454C0861758F08CE2681769F12B
:100910008AE3681799F082E2681709F048C036C088
:100920008BE7681709F443C08DE7681719F08DE568
:100930006817E9F5CE010E9423043CC0AD81BE8159
:10094000ED91FC9111970190F081E02DCD016AE3CA
:1009500009958C01AD81BE81ED91FC9111970190BB
:10096000F081E02DCD0160E230C0AD81BE81ED911E
:10097000FC9111970190F081E02DCD016CE2099579
:100980008C018D819E810E94A40920C081E08F830B
:10099000CE010E9443048C01AD81BE81ED91FC919A
:1009A00011970190F081E02DCD0162E20EC0CE01E1
:1009B0000E9443048C01AD81BE81ED91FC911197A1
:1009C0000190F081E02DCD016F2D09959C01200F44
:1009D000311FFC82C901DF91CF911F910F91FF90D0
:1009E0000895BF92CF92DF92EF92FF920F931F93E1
:1009F000CF93DF937C01EB01009739F4CB0162E6E2
:100A000071E00E94BA0A9C0143C0E881F98101901B
:100A1000F081E02DCB0162E209956C0127C032968E
:100A20008081882311F08617D1F7B180E881F981A0
:100A3000BB2091F00190F081E02DCE016CE509958D
:100A40008C01E881F9810190F081E02DCE016B2DC0
:100A50000995800F911F05C00190F081E02DCE0116
:100A600009950894E11CF11CC80ED91EF70160819C
:100A7000662319F0E2E7F1E0D3CFE881F981019034
:100A8000F081E02DCE0162E209959601280F391F11
:100A9000C901DF91CF911F910F91FF90EF90DF90EF
:100AA000CF90BF900895FC01808191810E94F10454
:100AB00008956F927F928F929F92AF92BF92CF9242
:100AC000DF92EF92FF920F931F93CF93DF938C01EE
:100AD000EB01E881F9810190F081E02DCB016BE71A
:100AE00009955C01D80112966D907C90139716962B
:100AF0008D909C90179734C0F301819191918F0153
:100B0000BE010E94F1047C01E881F9810190F0812D
:100B1000E02DCE016AE309956C01D3011696ED91A3
:100B2000FC911797C801BE010995EC0CFD1CAE0C99
:100B3000BF1CA80EB91EB1E08B16910451F0E881DC
:100B4000F9810190F081E02DCE016CE20995A80EAB
:100B5000B91EE8E0F0E06E0E7F1E0894810891084F
:100B6000181419044CF2E881F9810190F081E02D0C
:100B7000CE016DE709959501280F391FC901DF9155
:100B8000CF911F910F91FF90EF90DF90CF90BF908A
:100B9000AF909F908F907F906F900895FC01CB0154
:100BA00040815181628173812AE030E00E94670AAE
:100BB0000895EF92FF920F931F93CF93DF93FC0161
:100BC0007B01C281D381068117810AC08881998106
:100BD000B7010E946A00009741F02896015010402A
:100BE000101611069CF3C0E0D0E0CE01DF91CF914A
:100BF0001F910F91FF90EF9008950F931F93CF9344
:100C0000DF93EC018B010E94D905009719F0FC01DC
:100C1000329626C02E813F818C819D81281739070D
:100C20001CF0EDECF1E010C0C90153E0880F991FF2
:100C30005A95E1F7EA81FB81E80FF91F01931193BF
:100C40002F5F3F4F3F832E8380E090E0A0E0B0E035
:100C500080839183A283B38383E595E09583848326
:100C6000CF01DF91CF911F910F9108951F920F92A5
:100C70000FB60F9211242F933F938F939F93AF93AF
:100C8000BF938091D7019091D801A091D901B091E3
:100C9000DA013091DB010196A11DB11D232F2D5FDB
:100CA0002D3720F02D570196A11DB11D2093DB019A
:100CB0008093D7019093D801A093D901B093DA0122
:100CC0008091D3019091D401A091D501B091D6012A
:100CD0000196A11DB11D8093D3019093D401A093DF
:100CE000D501B093D601BF91AF919F918F913F9164
:100CF0002F910F900FBE0F901F9018959FB7F894EB
:100D00002091D3013091D4014091D5015091D60169
:100D100086B5A89B06C08F3F21F02F5F3F4F4F4FF6
:100D20005F4F9FBF542F432F322F2227280F311D93
:100D3000411D511D82E0220F331F441F551F8A950C
:100D4000D1F7B901CA0108959B01AC017FB7F894AE
:100D50008091D3019091D401A091D501B091D60199
:100D600066B5A89B05C06F3F19F00196A11DB11D86
:100D70007FBFBA2FA92F982F8827860F911DA11DFD
:100D8000B11D62E0880F991FAA1FBB1F6A95D1F79A
:100D9000BC012DC0FFB7F8948091D3019091D4018C
:100DA000A091D501B091D601E6B5A89B05C0EF3F53
:100DB00019F00196A11DB11DFFBFBA2FA92F982FC1
:100DC00088278E0F911DA11DB11DE2E0880F991F8C
:100DD000AA1FBB1FEA95D1F7861B970B885E93402D
:100DE000C8F2215030404040504068517C4F21159E
:100DF00031054105510571F60895789484B58260F6
:100E000084BD84B5816084BD85B5826085BD85B5AE
:100E1000816085BDEEE6F0E0808181608083E1E85D
:100E2000F0E0108280818260808380818160808395
:100E3000E0E8F0E0808181608083E1EBF0E0808198
:100E400084608083E0EBF0E0808181608083EAE76A
:100E5000F0E08081846080838081826080838081F3
:100E6000816080838081806880831092C1000895B2
:100E7000982F8E3008F09E50977080918501829552
:100E8000880F880F807C892B80937C0080917A006A
:100E9000806480937A0080917A0086FDFCCF209157
:100EA000780040917900942F80E030E0282B392B96
:100EB000C901089508951F920F920FB60F92112441
:100EC0002F933F934F938F939F93EF93FF93809133
:100ED000C00082FD1DC04091C60020911C023091CF
:100EE0001D022F5F3F4F2F73307080911E02909133
:100EF0001F022817390771F0E0911C02F0911D02C2
:100F0000E452FE4F408330931D0220931C0202C026
:100F10008091C600FF91EF919F918F914F913F91EA
:100F20002F910F900FBE0F901F901895E0917002B7
:100F3000F0917102E05CFF4F8191919120813181AC
:100F4000821B930B8F739070892B11F00E945A07AC
:100F500008951F920F920FB60F9211242F933F9373
:100F60008F939F93EF93FF932091600230916102E2
:100F700080916202909163022817390731F48091C1
:100F8000C1008F7D8093C10014C0E0916202F09196
:100F90006302E05EFD4F20818091620290916302C6
:100FA00001968F73907090936302809362022093F6
:100FB000C600FF91EF919F918F913F912F910F90DC
:100FC0000FBE0F901F901895AF92BF92DF92EF92D5
:100FD000FF920F931F93CF93DF93EC017A018B0164
:100FE000DD24403081EE580780E0680780E0780714
:100FF00011F0DD24D39491E0A92EB12CEC89FD8968
:10100000DD2069F0C50108A002C0880F991F0A946D
:10101000E2F7808360E079E08DE390E005C0108224
:1010200060E874E88EE190E0A80197010E94550EF7
:101030002150304040405040569547953795279570
:1010400080E12030380720F0DD2011F0DD24D6CFFC
:10105000E889F9893083EA89FB89208319A2EE891E
:10106000FF89408121E030E0C9010C8C02C0880F6B
:10107000991F0A94E2F7482B4083EE89FF8940814B
:10108000C9010D8C02C0880F991F0A94E2F7482B02
:101090004083EE89FF894081C9010E8C02C0880F10
:1010A000991F0A94E2F7482B4083EE89FF898081DB
:1010B0000F8C02C0220F331F0A94E2F720952823D9
:1010C0002083DF91CF911F910F91FF90EF90DF90E0
:1010D000BF90AF900895DC011C96ED91FC911D9797
:1010E000E05CFF4F2191319180819181281B390B68
:1010F0002F733070C9010895DC011C96ED91FC91AD
:101100001D97E05CFF4F20813181E054F040DF010A
:10111000AE5BBF4F8D919C9111972817390719F439
:101120002FEF3FEF07C08D919C91E80FF91F808151
:10113000282F30E0C9010895DC011C96ED91FC9147
:101140001D97E05CFF4F20813181E054F040DF01CA
:10115000AE5BBF4F8D919C9111972817390719F4F9
:101160002FEF3FEF10C08D919C911197E80FF91F61
:1011700020818D919C91119701968F73907011969B
:101180009C938E9330E0C9010895DC0191968C9177
:101190009197882339F05496ED91FC915597808171
:1011A00086FFF9CF91961C920895CF93DF93EC01BF
:1011B000EE85FF85E05CFF4F20813181E054F040F7
:1011C0002F5F3F4F2F733070DF01AE5BBF4F8D91AC
:1011D0009C91119728173907D1F3E05CFF4F80816C
:1011E0009181E054F040E80FF91F6083EE85FF85A0
:1011F000E05CFF4F31832083EE89FF89208181E00D
:1012000090E00F8C02C0880F991F0A94E2F7282BF8
:10121000208381E089A3EC89FD89808180648083BB
:1012200081E090E0DF91CF910895109267021092D3
:10123000660288EE93E0A0E0B0E0809368029093AD
:101240006902A0936A02B0936B0286EA91E09093E0
:101250006502809364028CED91E09093710280931B
:10126000700280E292E0909373028093720285ECA8
:1012700090E0909375028093740284EC90E09093D8
:1012800077028093760280EC90E0909379028093CD
:10129000780281EC90E090937B0280937A0282EC5A
:1012A00090E090937D0280937C0286EC90E0909396
:1012B0007F0280937E0284E08093800283E08093AB
:1012C000810287E08093820285E08093830281E03F
:1012D000809384020895CF93DF930E94FD060E94BD
:1012E0006803C6E9D7E00E949F002097E1F30E94BF
:1012F0009607F9CFCF92DF92EF92FF920F931F9351
:10130000CF93DF937C016B018A01C0E0D0E00FC076
:10131000D6016D916D01D701ED91FC910190F081A5
:10132000E02DC7010995C80FD91F015010400115C4
:10133000110571F7CE01DF91CF911F910F91FF90B1
:10134000EF90DF90CF900895EF92FF920F931F934D
:101350008C01DC01ED91FC910190F081E02D6DE0BC
:1013600009957C01D801ED91FC910190F081E02D6F
:10137000C8016AE009959C012E0D3F1DC9011F910E
:101380000F91FF90EF900895CF93DF93EC016115DB
:10139000710519F420E030E00FC0DB010D90002052
:1013A000E9F71197A61BB70BE881F9810280F38159
:1013B000E02DAD0109959C01C901DF91CF91089500
:1013C0004F925F927F928F929F92AF92BF92CF92F5
:1013D000DF92EF92FF920F931F93DF93CF93CDB7DE
:1013E000DEB7A1970FB6F894DEBF0FBECDBF2C01BC
:1013F000742ECB01223008F42AE019A231E2C32E68
:10140000D12CCC0EDD1E822E9924AA24BB24672D5C
:10141000752FA50194010E94550E79018A01C8011A
:10142000B701A50194010E94360E472D461B089472
:10143000C108D1084A3014F4405D01C0495CF6018E
:101440004083E114F1040105110521F07E2C5F2D8C
:10145000C801DDCFC201B6010E94C409A1960FB632
:10146000F894DEBF0FBECDBFCF91DF911F910F91DA
:10147000FF90EF90DF90CF90BF90AF909F908F90B4
:101480007F905F904F900895DC012115310541F464
:10149000ED91FC910190F081E02D642F0995089564
:1014A0000E94E0090895EF92FF920F931F937C0131
:1014B0000E94440A8C01C7010E94A4099C01200FCC
:1014C000311FC9011F910F91FF90EF900895CF92A6
:1014D000DF92EF92FF920F931F93CF93DF93EC0174
:1014E0006A017B012115310541F4E881F981019000
:1014F000F081E02D642F09951FC02A303105D1F409
:1015000077FF17C0E881F9810190F081E02D6DE24D
:1015100009958C0144275527BA014C195D096E09BC
:101520007F09CE012AE00E94E0099801280F391FA7
:1015300004C02AE00E94E0099C01C901DF91CF911B
:101540001F910F91FF90EF90DF90CF900895EF9251
:10155000FF920F931F937B019A010027F7FC0095E0
:10156000102FB801A7010E94670A1F910F91FF90E9
:10157000EF9008950E94C4090895DC01FB011496C0
:101580008D919C911597892B31F461157105A9F006
:1015900090E0808108C00D90BC91A02D611571056F
:1015A00029F490E08C91882349F407C0CD010E9472
:1015B0006A009C0190E0232B09F491E0892F0895A3
:1015C0000F931F93CF93DF93EC018B016F5F7F4FDE
:1015D000888199810E94550D009711F480E005C023
:1015E000998388831B830A8381E0DF91CF911F91C8
:1015F0000F910895CF93DF93EC0188819981892B16
:1016000029F08A819B818617970760F4CE010E949A
:10161000E00A882341F08C819D81892B19F4E881AF
:10162000F981108281E0DF91CF910895EF92FF92CE
:101630000F931F93CF93DF93EC017B016C817D812E
:10164000E114F104C1F04115510599F08A01060F2A
:10165000171FB8010E94FA0A882369F088819981CE
:101660002C813D81820F931FB7010E9473001D835F
:101670000C8381E001C080E0DF91CF911F910F9139
:10168000FF90EF900895DF93CF9300D0CDB7DEB7F2
:1016900069831A82BE016F5F7F4F41E050E00E9474
:1016A000160B0F900F90CF91DF910895CF93DF939A
:1016B000EC0188819981009711F00E94BD0C19827C
:1016C00018821D821C821B821A82DF91CF9108959D
:1016D000EF92FF920F931F93CF93DF93EC017B0167
:1016E0008A01BA010E94FA0A882321F4CE010E94DD
:1016F000560B07C01D830C8388819981B7010E9416
:101700007300CE01DF91CF911F910F91FF90EF9069
:101710000895CF93DF93EC01198218821B821A82FD
:101720001D821C821E826115710551F0DB010D9036
:101730000020E9F71197A61BB70BAD010E94680BBB
:10174000DF91CF9108950F931F93182F092F6115E3
:10175000710559F0DB010D900020E9F71197A61BE8
:10176000B70BAD010E94680B02C00E94560B812F7F
:10177000902F1F910F910895BF92CF92DF92EF9219
:10178000FF920F931F93CF93DF93082FB92E6B0116
:101790007A01E9012417350710F4EA017901802F55
:1017A0009B2D62E871E00E94890BD60114968D9101
:1017B0009C9115978E159F05D0F08C179D0708F406
:1017C000EC01D601ED91FC911197EC0FFD1F1081FA
:1017D00010826D917C916E0D7F1D802F9B2D0E943C
:1017E000A30BD601ED91FC91EC0FFD1F1083802F10
:1017F0009B2DDF91CF911F910F91FF90EF90DF9084
:10180000CF90BF900895CF93DF93EC01FB01861733
:10181000970761F0608171816115710529F044813C
:1018200055810E94680B02C00E94560BCE01DF91C9
:10183000CF910895FC01808191810E94BD0C089593
:101840000F931F93CF93DF93BC018230910510F467
:1018500062E070E0E0918802F091890240E050E09F
:10186000A0E0B0E024C08081918186179707D0F076
:101870008617970771F482819381109729F0139648
:101880009C938E9312972CC0909389028093880228
:1018900027C04115510519F08417950718F48D01DB
:1018A000AC01EF01DF01828193819C01F901309746
:1018B000D1F641155105F9F0CA01861B970B84300A
:1018C000910580F48A819B810115110521F0F801B1
:1018D0009383828304C09093890280938802FE01DF
:1018E000329645C0FE01E80FF91F6193719302978C
:1018F000998388833CC08091860290918702892BCE
:1019000041F480918801909189019093870280939E
:10191000860240918A0150918B014115510541F495
:101920004DB75EB78091860190918701481B590B96
:10193000209186023091870224173507B0F4CA013E
:10194000821B930B8617970780F0AB014E5F5F4FAA
:101950008417950750F0420F531F5093870240930E
:101960008602F9016193719302C0E0E0F0E0CF01DB
:10197000DF91CF911F910F910895CF93DF939C0139
:10198000009709F48FC0EC0122971B821A826091A4
:101990008802709189026115710581F488819981AD
:1019A000820F931F209186023091870228173907F2
:1019B00039F5D0938702C093860274C0DB0140E002
:1019C00050E0AC17BD0708F1BB83AA83FE0121914B
:1019D0003191E20FF31FAE17BF0779F48D919C91FF
:1019E0001197280F391F2E5F3F4F39832883129696
:1019F0008D919C9113979B838A834115510571F4B6
:101A0000D0938902C09388024DC012968D919C910B
:101A10001397AD01009711F0DC01D3CFDA011396D3
:101A2000DC93CE931297FA0121913191E20FF31FCB
:101A3000CE17DF0769F488819981280F391F2E5F3F
:101A40003F4FFA01318320838A819B819383828374
:101A5000E0E0F0E0DB0112968D919C9113970097E6
:101A600019F0BC01FD01F6CFAB014E5F5F4FDB010A
:101A70008D919C91840F951F209186023091870251
:101A80002817390779F4309729F4109289021092B7
:101A9000880202C013821282425050405093870243
:101AA00040938602DF91CF9108956F927F928F923B
:101AB0009F92AF92BF92CF92DF92EF92FF920F93DD
:101AC0001F93CF93DF938C01009729F4CB010E94E1
:101AD000200C8C01BBC08EEFE82E8FEFF82EE00EAD
:101AE000F11E4801860E971E8E149F0408F4ACC0A8
:101AF000D7014D915C91119746175707B8F04530C3
:101B0000510508F4A3C0CA0104978617970708F483
:101B10009DC042505040461B570BF40141935193D6
:101B20006D937C93CF010E94BD0C90C05B01A41A01
:101B3000B50A3801640E751EA0918802B091890221
:101B4000E0E0F0E0CC24DD2447C0A615B705A9F5F8
:101B5000CD91DC911197CE0102968A159B0568F113
:101B6000CE018A199B09029612962C911297139610
:101B70003C91059758F0F40122833383CA19DB099D
:101B8000D183C083D7016D937C9309C04E5F5F4FB3
:101B90004C0F5D1FF70151834083C901FC01C11443
:101BA000D10431F0D6011396FC93EE9312974EC0F8
:101BB000F0938902E093880249C08D919C9111971E
:101BC000E817F90708F4FC016D0112968C91129741
:101BD00013969C919C01D901109709F0B6CF809182
:101BE00086029091870286159705E9F4E617F707B4
:101BF000D0F420918A0130918B012115310541F4F7
:101C00002DB73EB78091860190918701281B390B33
:101C100082169306C8F49092870280928602F7019A
:101C20007183608313C0CB010E94200CEC010097EC
:101C300059F0D7014D915C91B8010E946100C80133
:101C40000E94BD0C8E0102C000E010E0C801DF91CF
:101C5000CF911F910F91FF90EF90DF90CF90BF90A9
:101C6000AF909F908F907F906F900895629FD0016A
:101C7000739FF001829FE00DF11D649FE00DF11D47
:101C8000929FF00D839FF00D749FF00D659FF00DF6
:101C90009927729FB00DE11DF91F639FB00DE11DE3
:101CA000F91FBD01CF0111240895A1E21A2EAA1B2C
:101CB000BB1BFD010DC0AA1FBB1FEE1FFF1FA217FC
:101CC000B307E407F50720F0A21BB30BE40BF50BF9
:101CD000661F771F881F991F1A9469F76095709582
:101CE000809590959B01AC01BD01CF010895EE0F49
:101CF000FF1F0590F491E02D099410E0CCE6D0E0B0
:101D000004C0FE010E94790E2296CE36D107C9F793
:041D1000F894FFCF75
:101D14000041300041303A20002C20004131004184
:101D2400313A200041320041323A2000413300412F
:101D3400333A200041340041343A20004135004117
:101D4400353A20004141006E616D6500766F6C7418
:101D54006167650076616C75650074696D6573749F
:101D6400616D700063757272656E740072706D00DF
:101D740053006E756C6C0066616C736500747275EB
:101D8400650022225C5C08620C660A6E0D7209749E
:101D940000000080250180008A020000000000008D
:101DA40059050000000062047A0900000000800365
:101DB4007A0900000000D5087A096B089C087C08A1
:021DC400C50850
:00000001FF
