:100000000C9465000C948D000C948D000C948D0064
:100010000C948D000C948D000C948D000C948D002C
:100020000C948D000C948D000C948D000C948D001C
:100030000C948D000C948D000C948D000C948D000C
:100040000C94F5050C948D000C9426070C94740701
:100050000C948D000C948D000C948D000C948D00EC
:100060000C9402040C948D00000000002400270072
:100070002A0000000000250028002B0000000000DE
:1000800023002600290004040404040404040202DA
:100090000202020203030303030301020408102007
:1000A0004080010204081020010204081020000012
:1000B0000007000201000003040600000000000029
:1000C00000000601F802E008FF0011241FBECFEF78
:1000D000D8E0DEBFCDBF11E0A0E0B1E0E0EEF1E29C
:1000E00002C005900D92AC37B107D9F713E0ACE729
:1000F000B1E001C01D92A030B107E1F710E0C8ECFB
:10010000D0E004C02297FE010E94DF10C23CD1075C
:10011000C9F70E9436090C94E3100C9400001F9359
:10012000FC0199278827BC01E89411911032E9F36A
:10013000193010F01E30C8F31B3251F01D3249F453
:10014000689406C00E94CF00610F711D811D911D32
:10015000119110531A30B0F33EF49095809570953C
:1001600061957F4F8F4F9F4F1F910895FB01DC01D9
:1001700002C001900D9241505040D8F70895FB0104
:10018000DC018D91019080190110D9F3990B08952C
:10019000FB01DC0101900D920020E1F70895592F39
:1001A000482F372F262F660F771F881F991F660F3E
:1001B000771F881F991F620F731F841F951F660F7B
:1001C000771F881F991F08958130910571F46F5F23
:1001D0007F4FA1F481E891E060E071E00E94CC0BD8
:1001E00088E891E00E94B1050895892B39F46F5F8A
:1001F0007F4F21F481E891E00E94690C089580E02E
:1002000090E06FEF7FEF0E94E400089581E090E0BE
:100210006FEF7FEF0E94E4000895EF92FF920F933B
:100220001F93DF93CF93CDB7DEB72E970FB6F89419
:10023000DEBF0FBECDBF8AED92E00E9436081816D1
:1002400019066CF581E891E060E071E00E94E60B30
:100250000FC08AED92E00E946708682F81E891E064
:100260000E94860B6AE070E080E090E00E943D060C
:100270008AED92E00E9436081816190654F3809110
:100280007C01882361F08AED92E061E071E00E94D8
:10029000810A8AED92E061E871E00E94CA0A8E014B
:1002A0000F5F1F4FC80161E871E041E050E00E941C
:1002B000460CC8010E94EF0A70937E0160937D0195
:1002C000C8010E94690C8E01085F1F4FC80161E8D8
:1002D00071E040E050E021E030E00E94FF0B81E857
:1002E00091E0B8010E94520CC8010E94690C8091F3
:1002F0007C018823E1F08AED92E068E071E00E94E1
:10030000810A60917D0170917E018AED92E04AE060
:1003100050E00E944F0A8AED92E061E171E00E9494
:10032000810A8AED92E061E871E00E94CA0A81E8E0
:1003300091E069E171E00E94000B882379F08091DF
:100340007D0190917E0190935401809353018AED39
:1003500092E06BE171E00E94840AAAC081E891E01A
:100360006DE171E00E94000B882309F493C0609155
:100370007D0170917E01882777FD8095982F0E94DE
:10038000850F20E030EA4AEA54E40E94391020E068
:1003900030E04AE754E40E94EA0E7B018C0120E041
:1003A00030E040E050E00E94351088234CF0C80156
:1003B000B70120E030E040E05FE30E94860E08C015
:1003C000C801B70120E030E040E05FE30E94850E05
:1003D0000E94520F97FF03C060E070E042C0C80166
:1003E000B70120E030E040E050E00E943510882363
:1003F0004CF0C801B70120E030E040E05FE30E942C
:10040000860E08C0C801B70120E030E040E05FE39D
:100410000E94850E0E94520F6050704180409040B3
:100420001CF06FEF7FE01DC0C801B70120E030E095
:1004300040E050E00E94351088234CF0C801B7011D
:1004400020E030E040E05FE30E94860E08C0C80173
:10045000B70120E030E040E05FE30E94850E0E949B
:10046000520F7093800160937F0180917C018823FB
:10047000F9F08AED92E06FE171E00E94810A6091EB
:100480007F01709180018AED92E04AE050E00E9485
:10049000620A0EC081E891E069E271E00E94000BFF
:1004A000882361F080917C0191E0892780937C0111
:1004B00081E891E060E071E00E94E60B80917C01B0
:1004C000882301F18AED92E06BE271E00E94810ADB
:1004D00060915301709154018AED92E04AE050E03E
:1004E0000E94620A8AED92E068E371E00E94810A4C
:1004F00060917F01709180018AED92E04AE050E0C6
:100500000E94620A60917F017091800188E891E009
:1005100040E00E94B9052E960FB6F894DEBF0FBEDC
:10052000CDBFCF91DF911F910F91FF90EF90089574
:100530000F931F93EAE7F0E08081846080838081DD
:100540008D7F808380818E7F80838CE08093B80054
:1005500088E891E060E60E94B2050AED12E0C80169
:1005600040E855E260E070E00E94AF07C80162E435
:1005700071E00E94840A1F910F91089581E0809399
:10058000CE016093AB011092CC011092CD01089581
:100590002091AA0130E08091A901281B3109C901ED
:1005A00008954091A9018091AA01481718F02FEFF2
:1005B0003FEF0AC0E42FF0E0E757FE4F8081282F7D
:1005C00030E04F5F4093A901C9010895E091A9016E
:1005D0008091AA01E81718F0EFEFFFEF06C0F0E0F6
:1005E000E757FE4F8081E82FF0E0CF01089508958E
:1005F0001092D2011092D10188EE93E0A0E0B0E019
:100600008093D3019093D401A093D501B093D601E8
:100610008FE591E09093D0018093CF010895CF9220
:10062000DF92EF92FF920F931F93CF93DF937C01A2
:100630006B018A018091CE018823A1F0C0E0D0E057
:100640000DC0D701ED91FC91D601AC0FBD1F0190FB
:10065000F081E02DC7016C9109952196C017D10753
:1006600080F304C0CB01642F0E94E703C801DF912F
:10067000CF911F910F91FF90EF90DF90CF90089551
:10068000DF93CF930F92CDB7DEB7FC0169838091E2
:10069000CE018823C9F08091CD01803238F081E00D
:1006A00090E09383828320E030E015C08091CC01FC
:1006B000E82FF0E0E455FE4F998190838F5F80939F
:1006C000CC018093CD0105C0CE01019661E00E946E
:1006D000E70321E030E0C9010F90CF91DF91089549
:1006E0000F93062F8091AB016CEA71E04091CD0130
:1006F00021E00E9492031092CC011092CD01109241
:10070000CE010F91089561E00E9470030895109248
:10071000A9011092AA011092CC011092CD010E9461
:10072000930508950F931F93582F122F413210F005
:1007300081E04AC08091DB018823E1F782E0809369
:10074000DB010093DD018FEF8093480210920302DA
:1007500040930402A3EEB1E0FB0102C081918D93AE
:100760008E2F861B8417D0F31092DC018091DC0160
:10077000550F852B8093DC018091DE01813041F49F
:100780001092DE018091DC018093BB0085EC01C0FA
:1007900085EE8093BC00112321F08091DB01823033
:1007A000E1F3809148028F3F11F480E00DC0809109
:1007B0004802803211F482E007C080914802803301
:1007C00011F084E001C083E01F910F910895482F3C
:1007D000613210F081E008958091DB01843011F0E6
:1007E00082E0089560932602A5E0B2E0842F9C0188
:1007F000F90102C081918D938E2F841B8617D0F34F
:1008000080E008951F920F920FB60F9211242F933C
:100810003F934F935F936F937F938F939F93AF9388
:10082000BF93EF93FF938091B90090E0887F907021
:100830008036910509F4F2C081369105CCF58832F5
:10084000910509F47BC089329105B4F4803191059A
:1008500009F46FC0813191053CF4009709F447C158
:10086000089709F04FC165C08831910509F466C049
:10087000809709F047C182C08034910509F4A4C073
:100880008134910544F48033910509F482C0C897FE
:1008900009F038C189C08035910509F489C08835CF
:1008A000910509F496C08834910509F02BC1AEC0BA
:1008B0008839910509F413C189399105ECF4883719
:1008C000910509F4ABC0893791054CF48836910540
:1008D00009F4A4C08037910509F014C19FC088387D
:1008E000910509F4FCC08039910509F49DC0803858
:1008F000910509F007C198C0803B910509F4C6C075
:10090000813B91054CF4803A910509F49FC0883AE7
:10091000910509F0F7C0BAC0803C910509F4E3C025
:10092000883C910509F4DFC0883B910509F0EAC0D5
:10093000C2C08091DC018093BB00CFC090910302C4
:1009400080910402981768F490910302E92FF0E077
:10095000ED51FE4F80818093BB009F5F9093030217
:10096000BCC08091DD01882309F44BC085ED8093E4
:10097000BC008091BC0084FDFCCFC2C080E28093AB
:10098000480285ED8093BC008091BC0084FDFCCFC3
:10099000B7C080E38093480285ED8093BC008091CE
:1009A000BC0084FDFCCFACC088E3809348029BC0B0
:1009B000809103029091BB00E82FF0E0ED51FE4FD3
:1009C00090838F5F809303029091030280910402D1
:1009D00082C0809103029091BB00E82FF0E0ED51BE
:1009E000FE4F90838F5F809303028091DD01882307
:1009F00041F085ED8093BC008091BC0084FDFCCF6C
:100A00007FC081E08093DE0184EA6EC085ED809333
:100A1000BC008091BC0084FDFCCF72C083E0809359
:100A2000DB011092470259C080914702803208F0E2
:100A300056C0809147029091BB00E82FF0E0E95D3D
:100A4000FD4F90838F5F8093470247C0809147029C
:100A5000803230F4E0914702F0E0E95DFD4F108212
:100A600085ED8093BC008091BC0084FDFCCF10928A
:100A7000DB0160914702E091E101F091E20187E240
:100A800092E070E00995109247022DC084E08093B7
:100A9000DB011092250210922602E091DF01F09115
:100AA000E001099580912602882329F481E0809352
:100AB00026021092050290912502E92FF0E0EB5FEB
:100AC000FD4F80818093BB009F5F909325029091A2
:100AD000250280912602981710F485EC01C085E864
:100AE0008093BC000FC085EC8093BC0009C01092BD
:100AF000480285ED8093BC008091BC0084FDFCCF52
:100B00001092DB01FF91EF91BF91AF919F918F9177
:100B10007F916F915F914F913F912F910F900FBEF9
:100B20000F901F9018951092DB0181E08093DD01FA
:100B30001092DE0182E161E00E94D10683E161E072
:100B40000E94D106E9EBF0E080818E7F8083808176
:100B50008D7F808388E48093B80085E48093BC0017
:100B600008950895FC0160838FEC91E00E94870353
:100B700008950F931F93CF93DF93FC01EB01142F84
:100B80000091B8008CE08093B8008FEC91E0608118
:100B90000E94BE02112321F08FEC91E060E603C0B9
:100BA0008FEC91E060E40E944003BE0194E07695F2
:100BB00067959A95E1F78FEC91E00E94400384E0FD
:100BC000CC0FDD1F8A95E1F7D0708FEC91E06C2F90
:100BD0000E9440038FEC91E00E9483030093B800D1
:100BE000DF91CF911F910F9108951F920F920FB631
:100BF0000F9211242F933F938F939F93AF93BF93A3
:100C000080914D0290914E02A0914F02B0915002FE
:100C1000309151020196A11DB11D232F2D5F2D375B
:100C200020F02D570196A11DB11D209351028093F4
:100C30004D0290934E02A0934F02B09350028091C8
:100C4000490290914A02A0914B02B0914C02019648
:100C5000A11DB11D8093490290934A02A0934B02BB
:100C6000B0934C02BF91AF919F918F913F912F9183
:100C70000F900FBE0F901F9018959B01AC017FB78E
:100C8000F8948091490290914A02A0914B02B09150
:100C90004C0266B5A89B05C06F3F19F00196A11DD7
:100CA000B11D7FBFBA2FA92F982F8827860F911DBE
:100CB000A11DB11D62E0880F991FAA1FBB1F6A9575
:100CC000D1F7BC012DC0FFB7F894809149029091F3
:100CD0004A02A0914B02B0914C02E6B5A89B05C018
:100CE000EF3F19F00196A11DB11DFFBFBA2FA92F2B
:100CF000982F88278E0F911DA11DB11DE2E0880F4E
:100D0000991FAA1FBB1FEA95D1F7861B970B885E18
:100D10009340C8F2215030404040504068517C4FD1
:100D2000211531054105510571F60895789484B572
:100D3000826084BD84B5816084BD85B5826085BDD7
:100D400085B5816085BDEEE6F0E0808181608083BD
:100D5000E1E8F0E0108280818260808380818160A0
:100D60008083E0E8F0E0808181608083E1EBF0E067
:100D7000808184608083E0EBF0E08081816080830B
:100D8000EAE7F0E0808184608083808182608083F4
:100D90008081816080838081806880831092C1001F
:100DA0000895482F50E0CA0182559F4FFC012491BD
:100DB000CA0186569F4FFC0194914A575F4FFA0132
:100DC0003491332309F440C0222351F1233071F0D0
:100DD000243028F42130A1F0223011F514C026303F
:100DE000B1F02730C1F02430D9F404C080918000E4
:100DF0008F7703C0809180008F7D8093800010C02A
:100E000084B58F7702C084B58F7D84BD09C0809181
:100E1000B0008F7703C08091B0008F7D8093B000C9
:100E2000E32FF0E0EE0FFF1FEE58FF4FA591B491B6
:100E30002FB7F894662321F48C919095892302C0F2
:100E40008C91892B8C932FBF089508951F920F9238
:100E50000FB60F9211242F933F934F938F939F932D
:100E6000EF93FF938091C00082FD1DC04091C600AA
:100E700020919202309193022F5F3F4F2F73307079
:100E800080919402909195022817390771F0E091B2
:100E90009202F0919302EE5AFD4F408330939302F9
:100EA0002093920202C08091C600FF91EF919F9122
:100EB0008F914F913F912F910F900FBE0F901F90E8
:100EC0001895E091E602F091E702E05CFF4F819116
:100ED000919120813181821B930B8F739070892BAC
:100EE00011F00E94250708951F920F920FB60F92DE
:100EF00011242F933F938F939F93EF93FF93209110
:100F0000D6023091D7028091D8029091D902281749
:100F1000390731F48091C1008F7D8093C10014C0E6
:100F2000E091D802F091D902EA56FD4F20818091DC
:100F3000D8029091D90201968F7390709093D90244
:100F40008093D8022093C600FF91EF919F918F91DB
:100F50003F912F910F900FBE0F901F901895AF9259
:100F6000BF92DF92EF92FF920F931F93CF93DF9385
:100F7000EC017A018B01DD24403081EE580780E0DE
:100F8000680780E0780711F0DD24D39491E0A92E62
:100F9000B12CEC89FD89DD2069F0C50108A002C0F3
:100FA000880F991F0A94E2F7808360E079E08DE36F
:100FB00090E005C0108260E874E88EE190E0A8013E
:100FC00097010E94BB102150304040405040569540
:100FD00047953795279580E12030380720F0DD20B0
:100FE00011F0DD24D6CFE889F9893083EA89FB89BD
:100FF000208319A2EE89FF89408121E030E0C901F8
:101000000C8C02C0880F991F0A94E2F7482B40838A
:10101000EE89FF894081C9010D8C02C0880F991F9C
:101020000A94E2F7482B4083EE89FF894081C90189
:101030000E8C02C0880F991F0A94E2F7482B408358
:10104000EE89FF8980810F8C02C0220F331F0A9422
:10105000E2F7209528232083DF91CF911F910F91F4
:10106000FF90EF90DF90BF90AF900895DC011C9649
:10107000ED91FC911D97E05CFF4F219131918081B2
:101080009181281B390B2F733070C9010895DC0141
:101090001C96ED91FC911D97E05CFF4F2081318102
:1010A000E054F040DF01AE5BBF4F8D919C911197F2
:1010B0002817390719F42FEF3FEF07C08D919C9146
:1010C000E80FF91F8081282F30E0C9010895DC0165
:1010D0001C96ED91FC911D97E05CFF4F20813181C2
:1010E000E054F040DF01AE5BBF4F8D919C911197B2
:1010F0002817390719F42FEF3FEF10C08D919C91FD
:101100001197E80FF91F20818D919C9111970196FD
:101110008F73907011969C938E9330E0C90108955F
:10112000DC0191968C919197882339F05496ED913A
:10113000FC915597808186FFF9CF91961C92089576
:10114000CF93DF93EC01EE85FF85E05CFF4F2081BC
:101150003181E054F0402F5F3F4F2F733070DF013B
:10116000AE5BBF4F8D919C91119728173907D1F332
:10117000E05CFF4F80819181E054F040E80FF91F5F
:101180006083EE85FF85E05CFF4F31832083EE892D
:10119000FF89208181E090E00F8C02C0880F991FA9
:1011A0000A94E2F7282B208381E089A3EC89FD894A
:1011B00080818064808381E090E0DF91CF91089509
:1011C0001092DD021092DC0288EE93E0A0E0B0E025
:1011D0008093DE029093DF02A093E002B093E102DD
:1011E0008FE691E09093DB028093DA0282E592E051
:1011F0009093E7028093E60286E992E09093E902F9
:101200008093E80285EC90E09093EB028093EA02F1
:1012100084EC90E09093ED028093EC0280EC90E0FF
:101220009093EF028093EE0281EC90E09093F102B4
:101230008093F00282EC90E09093F3028093F202AC
:1012400086EC90E09093F5028093F40284E0809322
:10125000F60283E08093F70287E08093F80285E04E
:101260008093F90281E08093FA020895CF93DF938F
:101270000E9496060E949802C1E6D7E00E940D01E6
:101280002097E1F30E946107F9CFCF92DF92EF92AE
:10129000FF920F931F93CF93DF937C016B018A0121
:1012A000C0E0D0E00FC0D6016D916D01D701ED9186
:1012B000FC910190F081E02DC7010995C80FD91F5D
:1012C000015010400115110571F7CE01DF91CF914A
:1012D0001F910F91FF90EF90DF90CF900895EF92C4
:1012E000FF920F931F938C01DC01ED91FC91019013
:1012F000F081E02D6DE009957C01D801ED91FC9124
:101300000190F081E02DC8016AE009959C012E0D45
:101310003F1DC9011F910F91FF90EF900895CF934A
:10132000DF93EC016115710519F420E030E00FC086
:10133000DB010D900020E9F71197A61BB70BE881A0
:10134000F9810280F381E02DAD0109959C01C9016D
:10135000DF91CF9108954F925F927F928F929F92EB
:10136000AF92BF92CF92DF92EF92FF920F931F93B3
:10137000DF93CF93CDB7DEB7A1970FB6F894DEBF5A
:101380000FBECDBF2C01742ECB01223008F42AE011
:1013900019A231E2C32ED12CCC0EDD1E822E99244F
:1013A000AA24BB24672D752FA50194010E94BB10B0
:1013B00079018A01C801B701A50194010E949C101E
:1013C000472D461B0894C108D1084A3014F4405DEB
:1013D00001C0495CF6014083E114F10401051105E7
:1013E00021F07E2C5F2DC801DDCFC201B6010E9425
:1013F0008F09A1960FB6F894DEBF0FBECDBFCF9177
:10140000DF911F910F91FF90EF90DF90CF90BF90F1
:10141000AF909F908F907F905F904F900895CF9264
:10142000DF92EF92FF920F931F93CF93DF93EC0124
:101430006A017B012115310541F4E881F9810190B0
:10144000F081E02D642F09951FC02A303105D1F4B9
:1014500077FF17C0E881F9810190F081E02D6DE2FE
:1014600009958C0144275527BA014C195D096E096D
:101470007F09CE012AE00E94AB099801280F391F8D
:1014800004C02AE00E94AB099C01C901DF91CF9101
:101490001F910F91FF90EF90DF90CF900895EF9202
:1014A000FF920F931F937B019A010027F7FC009591
:1014B000102FB801A7010E940F0A1F910F91FF90F2
:1014C000EF900895CF92DF92EF92FF920F931F93C8
:1014D0006C017B019A010027F7FC0095102FB801E1
:1014E000A7010E940F0A8C01C6010E946F09080F14
:1014F000191FC8011F910F91FF90EF90DF90CF90BF
:1015000008950E948F090895EF92FF920F931F9301
:101510007C010E948F098C01C7010E946F09080F8E
:10152000191FC8011F910F91FF90EF900895AF927E
:10153000BF92CF92DF92EF92FF920F931F93CF93C0
:10154000DF935C016B01EE24FF24C0E0D0E010C00B
:10155000D501ED91FC9100811181C601BE010E946F
:10156000DE0A682FC501F8010995E80EF91E2196DB
:10157000F60184819581C817D90750F3C701DF911F
:10158000CF911F910F91FF90EF90DF90CF90BF9080
:10159000AF900895EF92FF920F931F937C010E94EA
:1015A000970A8C01C7010E946F099C01200F311F0F
:1015B000C9011F910F91FF90EF900895FC01848164
:1015C00095816817790748F40190F081E02D3097F4
:1015D00021F0E60FF71F8081089580E00895FC0157
:1015E00080819181009729F420E030E040E050E0D4
:1015F00004C00E948F009B01AC01B901CA0108958B
:10160000DC01FB0114968D919C911597892B31F487
:1016100061157105A9F090E0808108C00D90BC9122
:10162000A02D6115710529F490E08C91882349F46F
:1016300007C0CD010E94BF009C0190E0232B09F45C
:1016400091E0892F08950F931F93CF93DF93EC01BF
:101650008B016F5F7F4F888199810E94A40D009755
:1016600011F480E005C0998388831B830A8381E09D
:10167000DF91CF911F910F910895CF93DF93EC01EC
:1016800088819981892B29F08A819B818617970708
:1016900060F4CE010E94230B882341F08C819D8150
:1016A000892B19F4E881F981108281E0DF91CF91D3
:1016B0000895EF92FF920F931F93CF93DF93EC0166
:1016C0007B016C817D81E114F104C1F0411551056C
:1016D00099F08A01060F171FB8010E943D0B88235D
:1016E00069F0888199812C813D81820F931FB70118
:1016F0000E94C8001D830C8381E001C080E0DF915F
:10170000CF911F910F91FF90EF900895DF93CF93AA
:1017100000D0CDB7DEB769831A82BE016F5F7F4FFD
:1017200041E050E00E94590B0F900F90CF91DF9154
:101730000895CF93DF93EC0188819981009711F090
:101740000E940C0D198218821D821C821B821A8233
:10175000DF91CF910895EF92FF920F931F93CF9354
:10176000DF93EC017B018A01BA010E943D0B8823C3
:1017700021F4CE010E94990B07C01D830C83888140
:101780009981B7010E94C800CE01DF91CF911F91CE
:101790000F91FF90EF900895CF93DF93EC011982A2
:1017A00018821B821A821D821C821E82611571059D
:1017B00051F0DB010D900020E9F71197A61BB70B44
:1017C000AD010E94AB0BDF91CF9108950F931F9352
:1017D000182F092F6115710559F0DB010D900020BC
:1017E000E9F71197A61BB70BAD010E94AB0B02C026
:1017F0000E94990B812F902F1F910F910895BF92F6
:10180000CF92DF92EF92FF920F931F93CF93DF93CC
:10181000082FB92E6B017A01E9012417350710F45E
:10182000EA017901802F9B2D62E571E00E94CC0BCB
:10183000D60114968D919C9115978E159F05D0F029
:101840008C179D0708F4EC01D601ED91FC911197DE
:10185000EC0FFD1F108110826D917C916E0D7F1D2C
:10186000802F9B2D0E94E60BD601ED91FC91EC0F91
:10187000FD1F1083802F9B2DDF91CF911F910F9122
:10188000FF90EF90DF90CF90BF9008950F931F933C
:101890008C01FB01248135810E94FF0BC8011F913F
:1018A0000F910895CF93DF93EC01FB018617970703
:1018B00061F0608171816115710529F04481558164
:1018C0000E94AB0B02C00E94990BCE01DF91CF9119
:1018D0000895FC01808191810E940C0D08950F9361
:1018E0001F93CF93DF93BC018230910510F462E027
:1018F00070E0E091FE02F091FF0240E050E0A0E0D5
:10190000B0E024C08081918186179707D0F08617B8
:10191000970771F482819381109729F013969C9315
:101920008E9312972CC09093FF028093FE0227C0E3
:101930004115510519F08417950718F48D01AC0174
:10194000EF01DF01828193819C01F9013097D1F68B
:1019500041155105F9F0CA01861B970B843091059A
:1019600080F48A819B810115110521F0F801938390
:10197000828304C09093FF028093FE02FE013296A0
:1019800045C0FE01E80FF91F619371930297998397
:1019900088833CC08091FC029091FD02892B41F428
:1019A00080915701909158019093FD028093FC0221
:1019B0004091590150915A014115510541F44DB7DB
:1019C0005EB78091550190915601481B590B2091AB
:1019D000FC023091FD0224173507B0F4CA01821BC6
:1019E000930B8617970780F0AB014E5F5F4F84170C
:1019F000950750F0420F531F5093FD024093FC0295
:101A0000F9016193719302C0E0E0F0E0CF01DF9152
:101A1000CF911F910F910895CF93DF939C01009771
:101A200009F48FC0EC0122971B821A826091FE029A
:101A30007091FF026115710581F488819981820F8F
:101A4000931F2091FC023091FD022817390739F5C8
:101A5000D093FD02C093FC0274C0DB0140E050E073
:101A6000AC17BD0708F1BB83AA83FE012191319118
:101A7000E20FF31FAE17BF0779F48D919C91119778
:101A8000280F391F2E5F3F4F3983288312968D917F
:101A90009C9113979B838A834115510571F4D093D0
:101AA000FF02C093FE024DC012968D919C91139738
:101AB000AD01009711F0DC01D3CFDA011396DC936E
:101AC000CE931297FA0121913191E20FF31FCE17B5
:101AD000DF0769F488819981280F391F2E5F3F4FF6
:101AE000FA01318320838A819B8193838283E0E0A2
:101AF000F0E0DB0112968D919C911397009719F0FD
:101B0000BC01FD01F6CFAB014E5F5F4FDB018D9154
:101B10009C91840F951F2091FC023091FD022817A3
:101B2000390779F4309729F41092FF021092FE02DF
:101B300002C013821282425050405093FD024093E3
:101B4000FC02DF91CF9108956F927F928F929F92C6
:101B5000AF92BF92CF92DF92EF92FF920F931F93BB
:101B6000CF93DF938C01009729F4CB010E946F0C77
:101B70008C01BBC08EEFE82E8FEFF82EE00EF11E29
:101B80004801860E971E8E149F0408F4ACC0D7013E
:101B90004D915C91119746175707B8F045305105A4
:101BA00008F4A3C0CA0104978617970708F49DC0DC
:101BB00042505040461B570BF401419351936D9393
:101BC0007C93CF010E940C0D90C05B01A41AB50A52
:101BD0003801640E751EA091FE02B091FF02E0E094
:101BE000F0E0CC24DD2447C0A615B705A9F5CD91BA
:101BF000DC911197CE0102968A159B0568F1CE0102
:101C00008A199B09029612962C91129713963C9171
:101C1000059758F0F40122833383CA19DB09D18375
:101C2000C083D7016D937C9309C04E5F5F4F4C0F0B
:101C30005D1FF70151834083C901FC01C114D10428
:101C400031F0D6011396FC93EE9312974EC0F093A9
:101C5000FF02E093FE0249C08D919C911197E81715
:101C6000F90708F4FC016D0112968C9112971396F6
:101C70009C919C01D901109709F0B6CF8091FC028C
:101C80009091FD0286159705E9F4E617F707D0F461
:101C90002091590130915A012115310541F42DB798
:101CA0003EB78091550190915601281B390B821641
:101CB0009306C8F49092FD028092FC02F7017183B2
:101CC000608313C0CB010E946F0CEC01009759F0A8
:101CD000D7014D915C91B8010E94B600C8010E94E5
:101CE0000C0D8E0102C000E010E0C801DF91CF9121
:101CF0001F910F91FF90EF90DF90CF90BF90AF902A
:101D00009F908F907F906F9008955058BB27AA277F
:101D10000ED071C162D130F067D120F031F49F3F15
:101D200011F41EF457C10EF4E095E7FB4DC1E92F05
:101D300073D180F3BA17620773078407950718F009
:101D400071F49EF58BC10EF4E0950B2EBA2FA02DE9
:101D50000B01B90190010C01CA01A0011124FF2758
:101D6000591B99F0593F50F4503E68F11A16F04053
:101D7000A22F232F342F4427585FF3CF4695379552
:101D80002795A795F0405395C9F77EF41F16BA0B17
:101D9000620B730B840BBAF09150A1F0FF0FBB1FC5
:101DA000661F771F881FC2F70EC0BA0F621F731F0E
:101DB000841F48F4879577956795B795F7959E3F6B
:101DC00008F0B3CF9395880F08F09927EE0F9795F9
:101DD000879508950CD00FC107D140F0FED030F0A8
:101DE00021F45F3F19F0F0C0511139C1F3C014D193
:101DF00098F39923C9F35523B1F3951B550BBB27D2
:101E0000AA2762177307840738F09F5F5F4F220F7E
:101E1000331F441FAA1FA9F333D00E2E3AF0E0E877
:101E200030D091505040E695001CCAF729D0FE2FC3
:101E300027D0660F771F881FBB1F26173707480755
:101E4000AB07B0E809F0BB0B802DBF01FF2793580B
:101E50005F4F2AF09E3F510568F0B6C000C15F3F5A
:101E6000ECF3983EDCF3869577956795B795F795F3
:101E70009F5FC9F7880F911D9695879597F90895EB
:101E8000E1E0660F771F881FBB1F62177307840787
:101E9000BA0720F0621B730B840BBA0BEE1F88F796
:101EA000E095089504D06894B111D9C00895BCD0CC
:101EB00088F09F5790F0B92F9927B751A0F0D1F033
:101EC000660F771F881F991F1AF0BA95C9F712C0BD
:101ED000B13081F0C3D0B1E00895C0C0672F782F32
:101EE0008827B85F39F0B93FCCF386957795679529
:101EF000B395D9F73EF490958095709561957F4F95
:101F00008F4F9F4F0895E89409C097FB3EF490953A
:101F10008095709561957F4F8F4F9F4F9923A9F0C2
:101F2000F92F96E9BB279395F69587957795679551
:101F3000B795F111F8CFFAF4BB0F11F460FF1BC095
:101F40006F5F7F4F8F4F9F4F16C0882311F096E928
:101F500011C0772321F09EE8872F762F05C06623D6
:101F600071F096E8862F70E060E02AF09A95660F8F
:101F7000771F881FDAF7880F9695879597F9089548
:101F8000990F0008550FAA0BE0E8FEEF161617068A
:101F9000E807F907C0F012161306E407F50798F0F2
:101FA000621B730B840B950B39F40A2661F0232B0B
:101FB000242B252B21F408950A2609F4A140A69587
:101FC0008FEF811D811D089597F99F6780E870E06C
:101FD00060E008959FEF80EC089500240A9416169F
:101FE000170618060906089500240A941216130607
:101FF000140605060895092E0394000C11F4882395
:1020000052F0BB0F40F4BF2B11F460FF04C06F5FB0
:102010007F4F8F4F9F4F089557FD9058440F551F86
:1020200059F05F3F71F04795880F97FB991F61F05A
:102030009F3F79F087950895121613061406551FD1
:10204000F2CF4695F1DF08C0161617061806991F3D
:10205000F1CF86957105610508940895E894BB2732
:1020600066277727CB0197F908958ADF08F48FEF69
:1020700008950BD0C0CFB1DF28F0B6DF18F095235C
:1020800009F0A2CFA7CF1124EACFC6DFA0F3959F16
:10209000D1F3950F50E0551F629FF001729FBB274F
:1020A000F00DB11D639FAA27F00DB11DAA1F649FFB
:1020B0006627B00DA11D661F829F2227B00DA11DAE
:1020C000621F739FB00DA11D621F839FA00D611D34
:1020D000221F749F3327A00D611D231F849F600D55
:1020E000211D822F762F6A2F11249F5750408AF08E
:1020F000E1F088234AF0EE0FFF1FBB1F661F771F1A
:10210000881F91505040A9F79E3F510570F05CCF59
:10211000A6CF5F3FECF3983EDCF386957795679505
:10212000B795F795E7959F5FC1F7FE2B880F911D37
:102130009695879597F90895629FD001739FF00156
:10214000829FE00DF11D649FE00DF11D929FF00D47
:10215000839FF00D749FF00D659FF00D9927729F7E
:10216000B00DE11DF91F639FB00DE11DF91FBD0109
:10217000CF0111240895A1E21A2EAA1BBB1BFD0159
:102180000DC0AA1FBB1FEE1FFF1FA217B307E40756
:10219000F50720F0A21BB30BE40BF50B661F771FAE
:1021A000881F991F1A9469F760957095809590958E
:1021B0009B01AC01BD01CF010895EE0FFF1F0590FB
:1021C000F491E02D099410E0C8ECD0E004C0FE01C9
:1021D0000E94DF102296CA3CD107C9F7F894FFCFBE
:1021E000006D7367313A20004E756D6265723A205A
:1021F000002C206D73673A200052002E00490049E0
:102200005F5365745F493A200044005265736973F7
:1022100074616E63653A200043757272656E743A3C
:102220002000526561647900495F7365745F523ABA
:10223000200000C8008000000300000000000040F3
:10224000030F03C802D102E602F70200000000A05B
:0C22500008450936086708470890080098
:00000001FF
