:100000000C9437000C945F000C945F000C945F001C
:100010000C945F000C945F000C945F000C945F00E4
:100020000C945F000C945F000C945F000C945F00D4
:100030000C945F000C945F000C945F000C945F00C4
:100040000C94EF070C945F000C9414090C94620953
:100050000C945F000C945F000C945F000C945F00A4
:100060000C945F000C945F00A200CE0A9B00112448
:100070001FBECFEFD8E0DEBFCDBF13E0A0E0B1E000
:10008000E0E6F5E202C005900D92AA34B107D9F777
:1000900014E0AAE4B3E001C01D92A433B107E1F774
:1000A00010E0CCE6D0E004C02297FE010E949F122F
:1000B000C836D107C9F70E94240B0C94A3120C94E4
:1000C0000000FB01DC0102C001900D924150504044
:1000D000D8F70895FB01DC018D9101908019011082
:1000E000D9F3990B0895FB01DC0101900D920020DA
:1000F000E1F708958130910581F46F5F7F4FD1F46E
:100100008BE493E060E071E00E94E00D80E693E014
:1001100066E071E00E94E00D0895892B59F46F5F4D
:100120007F4F41F480E693E00E94710E8BE493E0F0
:100130000E94710E089580E090E06FEF7FEF0E94C3
:100140007A00089581E090E06FEF7FEF0E947A00DF
:100150000895EF92FF920F931F938EE480937C009B
:1001600062E070E080E090E00E945D0880917A009B
:10017000806480937A0080917A0086FDFCCF809124
:10018000780090E0A0E0B0E060917900362F20E0A8
:10019000442737FD4095542F282B392B4A2B5B2BB6
:1001A00060ED7FE581E190E00E948212122F032F23
:1001B000F42EE52E80914A03882381F08EE094E0AE
:1001C00069E071E00E94A60C8EE094E0412F502F70
:1001D0006F2D7E2D2AE030E00E94600C612F702F81
:1001E0008F2D9E2D1F910F91FF90EF9008950F93EB
:1001F0001F93EAE7F0E080818460808380818D7FB7
:10020000808380818E7F80830EE014E0C80140E00F
:1002100052EC61E070E00E949D09C8016FE071E05E
:100220000E94A90C1F910F910895CF93DF93EC01C9
:1002300080914A03882369F08EE094E065E171E0E3
:100240000E94A60C8EE094E0BE014AE050E00E94BD
:10025000870C0E94A9009E01442737FD4095542F2A
:100260000E94411220E034E040E050E00E948212FF
:10027000CA01B901DF91CF910895EF92FF920F93D8
:100280001F93CF93DF93EC0180914A03882369F099
:100290008EE094E06DE171E00E94A60C8EE094E0A7
:1002A000BE014AE050E00E94870C0E94A9009B0119
:1002B000AC017E010027F7FC0095102FC801B701A3
:1002C000E2E0660F771F881F991FEA95D1F76E0D40
:1002D0007F1D801F911F0E94411220E034E040E00A
:1002E00050E00E948212C901DF91CF911F910F91BE
:1002F000FF90EF900895EF92FF920F931F93CF938B
:10030000DF93EC010E943D017C010027F7FC009582
:10031000102F80914A038823D9F08EE094E065E2A3
:1003200071E00E94A60C8EE094E0BE014AE050E02D
:100330000E94870C8EE094E06DE271E00E94A60CB2
:100340008EE094E0B801A7012AE030E00E94600C42
:10035000C801B7010E948D1120E030E040EC5FE35E
:100360000E94F2107B018C0120E030E040E050E080
:100370000E943D1288234CF0C801B70120E030E014
:1003800040E05FE30E948E1008C0C801B70120E082
:1003900030E040E05FE30E948D100E945A11DF912F
:1003A000CF911F910F91FF90EF900895EF92FF92E0
:1003B0000F931F93DF93CF93CDB7DEB7E7970FB6B9
:1003C000F894DEBF0FBECDBF8EE094E00E94240AF9
:1003D000181619068CF580E693E069E371E00E9437
:1003E000FA0D0FC08EE094E00E94550A682F80E657
:1003F00093E00E949A0D6AE070E080E090E00E9435
:100400005D088EE094E00E94240A1816190654F341
:100410008E010F5F1F4FC80160E673E040E050E0BF
:1004200022E030E00E94130E80E693E0B8010E94C3
:100430005A0EC8010E94710E80E693E06AE371E0F3
:100440000E94140D8823E1F090E080914A038823F4
:1004500009F491E090934A0380E693E06DE371E044
:100460000E94FA0D80914A03882329F08EE094E0DF
:1004700060E471E0AAC28EE094E06AE471E0A5C293
:1004800080E693E065E571E00E94140D882301F198
:100490000E94370860936F03709370038093710319
:1004A000909372038EE00E94F10890935F03809313
:1004B0005E030E9437086093730370937403809304
:1004C0007503909376038EE094E068E571E0C8C010
:1004D00080E693E060E671E00E94140D882301F14C
:1004E0000E94370860936F037093700380937103C9
:1004F000909372038FE00E94F10890935F038093C2
:100500005E030E94370860937303709374038093B3
:100510007503909376038EE094E063E671E0A0C0EB
:1005200080E693E068E671E00E94140D882301F1F3
:100530000E94370860936F03709370038093710378
:100540009093720380E10E94F10890935F0380937F
:100550005E030E9437086093730370937403809363
:100560007503909376038EE094E06BE671E078C0BB
:1005700080E693E060E771E00E94140D882301F1AA
:100580000E94370860936F03709370038093710328
:100590009093720381E10E94F10890935F0380932E
:1005A0005E030E9437086093730370937403809313
:1005B0007503909376038EE094E063E771E050C09A
:1005C00080E693E068E771E00E94140D882301F152
:1005D0000E94370860936F037093700380937103D8
:1005E0009093720382E10E94F10890935F038093DD
:1005F0005E030E94370860937303709374038093C3
:100600007503909376038EE094E06BE771E028C069
:1006100080E693E060E871E00E94140D882309F4FD
:100620005CC00E94370860936F03709370038093DF
:1006300071039093720383E10E94F10890935F032A
:1006400080935E030E943708609373037093740372
:1006500080937503909376038EE094E063E871E0F5
:100660000E94A60C60915E0370915F038EE094E09F
:100670004AE050E00E94740C8EE094E06DE571E079
:100680000E94A60C4091730350917403609175030E
:100690007091760380916F0390917003A091710324
:1006A000B0917203481B590B6A0B7B0B8EE094E0F0
:1006B0002AE030E00E94FD0B8EE094E06DE571E0F1
:1006C0000E94A60C0E943708AB01BC018EE094E0AA
:1006D0002AE030E00E940C0CBFC180E693E06DE39D
:1006E00071E00E94140D882309F472C10E9437083A
:1006F00060937303709374038093750390937603F0
:100700008EE00E94F1080E943D01AA2797FDA09566
:10071000BA2F8093520390935303A0935403B09342
:1007200055038FE00E94F1080E9415016093560363
:1007300070935703809358039093590380E10E946C
:10074000F1080E947B0160935A0370935B038093CE
:100750005C0390935D036091560370915703809101
:1007600058039091590320915203309153034091C3
:100770005403509155030E94411228EE33E040E0AB
:1007800050E00E94821220936B0330936C034093DD
:100790006D0350936E038091730390917403A09145
:1007A0007503B09176038093670390936803A093D9
:1007B0006903B0936A0380914A03882309F47DC0DA
:1007C0008EE094E068E871E00E94A60C409152032C
:1007D0005091530360915403709155038EE094E05F
:1007E0002AE030E00E94200C8EE094E06CE871E09A
:1007F0000E94A60C8EE094E06FE871E00E94A60CC7
:1008000040915603509157036091580370915903DA
:100810008EE094E02AE030E00E94200C8EE094E02C
:100820006CE871E00E94A60C8EE094E063E971E050
:100830000E94A60C40915A0350915B0360915C03A7
:1008400070915D038EE094E02AE030E00E94200C7D
:100850008EE094E06CE871E00E94A60C8EE094E0DB
:1008600067E971E00E94A60C40916B0350916C0304
:1008700060916D0370916E038EE094E02AE030E0A9
:100880000E94200C8EE094E06CE871E00E94A60CBF
:100890008EE094E06BE971E00E94A60C4091670342
:1008A000509168036091690370916A038EE094E04F
:1008B0002AE030E00E94600CCFC08E01085F1F4F1D
:1008C000085F1F4F1B870A870850104085E090E0A3
:1008D0009D878C871F861E8688E293E0998788878C
:1008E000C8016FE971E00E94B607FC0180915203D4
:1008F00090915303A0915403B091550327E8E22E41
:1009000027E0F22EF582E48280839183A283B38371
:10091000C80167EA71E00E94B607FC0180915603A6
:1009200090915703A0915803B0915903F582E48246
:1009300080839183A283B383C8016FEA71E00E9430
:10094000B607FC0180915A0390915B03A0915C0370
:10095000B0915D03F582E48280839183A283B383A7
:10096000C80163EB71E00E94B607FC0180916B0344
:1009700090916C03A0916D03B0916E03F582E482B7
:1009800080839183A283B383C80169EB71E00E94E5
:10099000B607FC018091670390916803A0916903F9
:1009A000B0916A03F582E48280839183A283B3834A
:1009B000C8016EE074E00E94BA058EE094E00E94E7
:1009C0005D0B8EE094E063EC71E00E94A90C44C0E2
:1009D00080E693E066E071E00E94140D8823B1F197
:1009E0008EE094E067EC71E00E94A90C8EE094E048
:1009F00069ED71E00E94A60C8EE094E06BE473E078
:100A00000E94EF0C8EE094E06CEE71E00E94A90C65
:100A10008EE094E066EF71E00E94A90C8EE094E015
:100A20006FE072E00E94A90C8EE094E067E872E04B
:100A30000E94A90C8EE094E067EA72E00E94A90C83
:100A40008EE094E06AED72E00E94A90C80E693E0EB
:100A500069E371E00E94FA0DE7960FB6F894DEBFE5
:100A60000FBECDBFCF91DF911F910F91FF90EF90FF
:100A70000895DF92EF92FF920F931F93CF93DF932E
:100A80008C01D62EDC0116968C9187FD03C0EE24D6
:100A9000FF2421C0C0E0D0E0EE24FF2410C0D80124
:100AA0001496ED91FC911597A081B1812D913C9107
:100AB000CF0160E2F9010995E80EF91E2196F801CF
:100AC0008681282F229527708F70829FC001112464
:100AD000C817D90724F3D8011496ED91FC91159706
:100AE000A081B1812D913C91CF016D2DF901099526
:100AF0009C0140E0BAE0DB1609F441E04795442749
:100B00004795F80186818F77842B86832E0D3F1DB4
:100B1000C901DF91CF911F910F91FF90EF90DF906E
:100B20000895DF93CF93CDB7DEB728970FB6F8942B
:100B3000DEBF0FBECDBFDC011C821B828EE293E0C4
:100B40009A8389837F836E831D821886ED91FC9141
:100B500011970190F081E02DCD01BE016F5F7F4FB5
:100B6000099528960FB6F894DEBF0FBECDBFCF9182
:100B7000DF910895DF93CF93CDB7DEB727970FB6F8
:100B8000F894DEBF0FBECDBF1C821B8226E333E08C
:100B90003A8329837E836D8320EA2F83BE016F5FB2
:100BA0007F4F0E94910527960FB6F894DEBF0FBEC7
:100BB000CDBFCF91DF910895FC0184818B3779F00F
:100BC0008B3589F40CC0815F8F70907F982B1696BF
:100BD0009C93858196810E945D0B9C0102C020E060
:100BE00030E0C9010895A581B68116969C911697AB
:100BF000892F8F7041F7EDCFFC0184818B3729F06D
:100C00008B3519F020E030E014C0A581B68116962E
:100C10009C911697892F8F708F3031F08F5F8F7076
:100C2000907F982B16969C93858196810E945D0BF0
:100C30009C01C9010895FF920F931F93CF93DF93F7
:100C4000EC01F62E8F81882399F082E2681721F457
:100C50008C818C3509F01F82ED81FE81A081B181EC
:100C60002D913C91CF016F2DF90109959C016AC02E
:100C70008BE5681709F454C0861758F08CE26817A2
:100C800069F18AE3681799F082E2681709F048C0B1
:100C900036C08BE7681709F443C08DE7681719F071
:100CA0008DE56817E9F5CE010E94DC053CC0AD81F9
:100CB000BE81ED91FC9111970190F081E02DCD0165
:100CC0006AE309958C01AD81BE81ED91FC9111978C
:100CD0000190F081E02DCD0160E230C0AD81BE8198
:100CE000ED91FC9111970190F081E02DCD016CE226
:100CF00009958C018D819E810E945D0B20C081E051
:100D00008F83CE010E94FC058C01AD81BE81ED91E7
:100D1000FC9111970190F081E02DCD0162E20EC0AF
:100D2000CE010E94FC058C01AD81BE81ED91FC914C
:100D300011970190F081E02DCD016F2D09959C0157
:100D4000200F311FFC82C901DF91CF911F910F91BC
:100D5000FF900895BF92CF92DF92EF92FF920F9390
:100D60001F93CF93DF937C01EB01009739F4CB0104
:100D70006CEF72E00E94A60C9C0143C0E881F981EF
:100D80000190F081E02DCB0162E209956C0127C052
:100D900032968081882311F08617D1F7B180E881DF
:100DA000F981BB2091F00190F081E02DCE016CE53E
:100DB00009958C01E881F9810190F081E02DCE0147
:100DC0006B2D0995800F911F05C00190F081E02DDA
:100DD000CE0109950894E11CF11CC80ED91EF7013B
:100DE0006081662319F0ECE0F3E0D3CFE881F9816C
:100DF0000190F081E02DCE0162E209959601280F65
:100E0000391FC901DF91CF911F910F91FF90EF9092
:100E1000DF90CF90BF900895FC01808191810E9466
:100E2000AA0608956F927F928F929F92AF92BF927F
:100E3000CF92DF92EF92FF920F931F93CF93DF93A6
:100E40008C01EB01E881F9810190F081E02DCB016B
:100E50006BE709955C01D80112966D907C90139711
:100E600016968D909C90179734C0F30181919191C3
:100E70008F01BE010E94AA067C01E881F9810190E0
:100E8000F081E02DCE016AE309956C01D30116963D
:100E9000ED91FC911797C801BE010995EC0CFD1C62
:100EA000AE0CBF1CA80EB91EB1E08B16910451F018
:100EB000E881F9810190F081E02DCE016CE2099585
:100EC000A80EB91EE8E0F0E06E0E7F1E08948108BF
:100ED0009108181419044CF2E881F9810190F0810D
:100EE000E02DCE016DE709959501280F391FC90145
:100EF000DF91CF911F910F91FF90EF90DF90CF90F6
:100F0000BF90AF909F908F907F906F900895FC015D
:100F1000CB0140815181628173812AE030E00E94DF
:100F2000200C0895EF92FF920F931F93CF93DF93BE
:100F3000FC017B01C281D381068117810AC08881AF
:100F40009981B7010E946A00009741F028960150EC
:100F50001040101611069CF3C0E0D0E0CE01DF91E6
:100F6000CF911F910F91FF90EF9008950F931F93D2
:100F7000CF93DF93EC018B010E949207009719F049
:100F8000FC01329626C02E813F818C819D812817DD
:100F900039071CF0E7E7F3E010C0C90153E0880F00
:100FA000991F5A95E1F7EA81FB81E80FF91F019338
:100FB00011932F5F3F4F3F832E8380E090E0A0E0AE
:100FC000B0E080839183A283B3838CE097E0958324
:100FD0008483CF01DF91CF911F910F9108951F92CC
:100FE0000F920FB60F9211242F933F938F939F93DD
:100FF000AF93BF938091810390918203A09183036B
:10100000B0918403309185030196A11DB11D232F5A
:101010002D5F2D3720F02D570196A11DB11D209376
:1010200085038093810390938203A0938303B093FD
:10103000840380917D0390917E03A0917F03B09102
:1010400080030196A11DB11D80937D0390937E03C3
:10105000A0937F03B0938003BF91AF919F918F9135
:101060003F912F910F900FBE0F901F9018959FB733
:10107000F89420917D0330917E0340917F0350913D
:10108000800386B5A89B06C08F3F21F02F5F3F4F9E
:101090004F4F5F4F9FBF542F432F322F2227280FD0
:1010A000311D411D511D82E0220F331F441F551F6A
:1010B0008A95D1F7B901CA0108959B01AC017FB7A8
:1010C000F89480917D0390917E03A0917F03B0916D
:1010D000800366B5A89B05C06F3F19F00196A11D5E
:1010E000B11D7FBFBA2FA92F982F8827860F911D7A
:1010F000A11DB11D62E0880F991FAA1FBB1F6A9531
:10110000D1F7BC012DC0FFB7F89480917D03909179
:101110007E03A0917F03B0918003E6B5A89B05C034
:10112000EF3F19F00196A11DB11DFFBFBA2FA92FE6
:10113000982F88278E0F911DA11DB11DE2E0880F09
:10114000991FAA1FBB1FEA95D1F7861B970B885ED4
:101150009340C8F2215030404040504068517C4F8D
:10116000211531054105510571F60895789484B52E
:10117000826084BD84B5816084BD85B5826085BD93
:1011800085B5816085BDEEE6F0E080818160808379
:10119000E1E8F0E01082808182608083808181605C
:1011A0008083E0E8F0E0808181608083E1EBF0E023
:1011B000808184608083E0EBF0E0808181608083C7
:1011C000EAE7F0E0808184608083808182608083B0
:1011D0008081816080838081806880831092C100DB
:1011E0000895982F8E3008F09E50977080911D03BF
:1011F0008295880F880F807C892B80937C0080915A
:101200007A00806480937A0080917A0086FDFCCF1A
:101210002091780040917900942F80E030E0282BD5
:10122000392BC901089508951F920F920FB60F929E
:1012300011242F933F934F938F939F93EF93FF939B
:101240008091C00082FD1DC04091C6002091C60360
:101250003091C7032F5F3F4F2F7330708091C803C9
:101260009091C9032817390771F0E091C603F091F6
:10127000C703EA57FC4F40833093C7032093C6034C
:1012800002C08091C600FF91EF919F918F914F9185
:101290003F912F910F900FBE0F901F901895E091E6
:1012A0001A04F0911B04E05CFF4F81919191208121
:1012B0003181821B930B8F739070892B11F00E94E8
:1012C000130908951F920F920FB60F9211242F93B6
:1012D0003F938F939F93EF93FF9320910A04309154
:1012E0000B0480910C0490910D042817390731F4F8
:1012F0008091C1008F7D8093C10014C0E0910C04E7
:10130000F0910D04E653FC4F208180910C049091E4
:101310000D0401968F73907090930D0480930C04CC
:101320002093C600FF91EF919F918F913F912F9154
:101330000F900FBE0F901F901895AF92BF92DF9243
:10134000EF92FF920F931F93CF93DF93EC017A01FB
:101350008B01DD24403081EE580780E0680780E093
:10136000780711F0DD24D39491E0A92EB12CEC89FB
:10137000FD89DD2069F0C50108A002C0880F991F12
:101380000A94E2F7808360E079E08DE390E005C0A5
:10139000108260E874E88EE190E0A80197010E9455
:1013A0006012215030404040504056954795379547
:1013B000279580E12030380720F0DD2011F0DD2472
:1013C000D6CFE889F9893083EA89FB89208319A27D
:1013D000EE89FF89408121E030E0C9010C8C02C018
:1013E000880F991F0A94E2F7482B4083EE89FF8902
:1013F0004081C9010D8C02C0880F991F0A94E2F741
:10140000482B4083EE89FF894081C9010E8C02C0C0
:10141000880F991F0A94E2F7482B4083EE89FF89D1
:1014200080810F8C02C0220F331F0A94E2F72095AF
:1014300028232083DF91CF911F910F91FF90EF9090
:10144000DF90BF90AF900895DC011C96ED91FC9168
:101450001D97E05CFF4F2191319180819181281B84
:10146000390B2F733070C9010895DC011C96ED9182
:10147000FC911D97E05CFF4F20813181E054F040EA
:10148000DF01AE5BBF4F8D919C91119728173907F3
:1014900019F42FEF3FEF07C08D919C91E80FF91FD2
:1014A0008081282F30E0C9010895DC011C96ED9160
:1014B000FC911D97E05CFF4F20813181E054F040AA
:1014C000DF01AE5BBF4F8D919C91119728173907B3
:1014D00019F42FEF3FEF10C08D919C911197E80FF9
:1014E000F91F20818D919C91119701968F739070B7
:1014F00011969C938E9330E0C9010895DC0191967A
:101500008C919197882339F05496ED91FC915597E1
:10151000808186FFF9CF91961C920895CF93DF9337
:10152000EC01EE85FF85E05CFF4F20813181E054C6
:10153000F0402F5F3F4F2F733070DF01AE5BBF4F26
:101540008D919C91119728173907D1F3E05CFF4FDB
:1015500080819181E054F040E80FF91F6083EE85AF
:10156000FF85E05CFF4F31832083EE89FF89208176
:1015700081E090E00F8C02C0880F991F0A94E2F777
:10158000282B208381E089A3EC89FD8980818064F8
:10159000808381E090E0DF91CF9108951092110453
:1015A0001092100488EE93E0A0E0B0E08093120463
:1015B00090931304A0931404B09315048EE393E066
:1015C00090930F0480930E0486E893E090931B049D
:1015D00080931A048AEC93E090931D0480931C047A
:1015E00085EC90E090931F0480931E0484EC90E0BF
:1015F000909321048093200480EC90E09093230446
:101600008093220481EC90E090932504809324043D
:1016100082EC90E0909327048093260486EC90E07F
:10162000909329048093280484E080932A0483E023
:1016300080932B0487E080932C0485E080932D0415
:1016400081E080932E040895CF93DF930E94B60823
:101650000E94F700CFE4D9E00E94D6012097E1F381
:101660000E944F09F9CFCF92DF92EF92FF920F9332
:101670001F93CF93DF937C016B018A01C0E0D0E020
:101680000FC0D6016D916D01D701ED91FC910190D4
:10169000F081E02DC7010995C80FD91F01501040F6
:1016A0000115110571F7CE01DF91CF911F910F91B7
:1016B000FF90EF90DF90CF900895EF92FF920F93FD
:1016C0001F938C01DC01ED91FC910190F081E02DE4
:1016D0006DE009957C01D801ED91FC910190F081BC
:1016E000E02DC8016AE009959C012E0D3F1DC9013E
:1016F0001F910F91FF90EF900895CF93DF93EC012E
:101700006115710519F420E030E00FC0DB010D9088
:101710000020E9F71197A61BB70BE881F981028039
:10172000F381E02DAD0109959C01C901DF91CF91B5
:1017300008954F925F927F928F929F92AF92BF9245
:10174000CF92DF92EF92FF920F931F93DF93CF938D
:10175000CDB7DEB7A1970FB6F894DEBF0FBECDBFF1
:101760002C01742ECB01223008F42AE019A231E2B8
:10177000C32ED12CCC0EDD1E822E9924AA24BB248C
:10178000672D752FA50194010E94601279018A01CD
:10179000C801B701A50194010E944112472D461BC3
:1017A0000894C108D1084A3014F4405D01C0495C76
:1017B000F6014083E114F1040105110521F07E2CAE
:1017C0005F2DC801DDCFC201B6010E947D0BA1963D
:1017D0000FB6F894DEBF0FBECDBFCF91DF911F9142
:1017E0000F91FF90EF90DF90CF90BF90AF909F90C0
:1017F0008F907F905F904F900895DC012115310507
:1018000041F4ED91FC910190F081E02D642F099558
:1018100008950E94990B0895EF92FF920F931F93E2
:101820007C010E94FD0B8C01C7010E945D0B9C0195
:10183000200F311FC9011F910F91FF90EF90089564
:10184000CF92DF92EF92FF920F931F93CF93DF938C
:10185000EC016A017B012115310541F4E881F98130
:101860000190F081E02D642F09951FC02A303105C9
:10187000D1F477FF17C0E881F9810190F081E02D64
:101880006DE209958C0144275527BA014C195D0971
:101890006E097F09CE012AE00E94990B9801280F5A
:1018A000391F04C02AE00E94990B9C01C901DF91F5
:1018B000CF911F910F91FF90EF90DF90CF900895FF
:1018C000EF92FF920F931F937C010E94200C8C01DA
:1018D000C7010E945D0B9C01200F311FC9011F91A0
:1018E0000F91FF90EF900895EF92FF920F931F9347
:1018F0007B019A010027F7FC0095102FB801A70182
:101900000E94200C1F910F91FF90EF900895CF92AD
:10191000DF92EF92FF920F931F936C017B019A016C
:101920000027F7FC0095102FB801A7010E94200C9A
:101930008C01C6010E945D0B080F191FC8011F9181
:101940000F91FF90EF90DF90CF9008950E947D0B54
:101950000895EF92FF920F931F937C010E947D0BDD
:101960008C01C7010E945D0B080F191FC8011F9150
:101970000F91FF90EF900895AF92BF92CF92DF92B8
:10198000EF92FF920F931F93CF93DF935C016B0154
:10199000EE24FF24C0E0D0E010C0D501ED91FC9111
:1019A00000811181C601BE010E94030D682FC5018F
:1019B000F8010995E80EF91E2196F60184819581BA
:1019C000C817D90750F3C701DF91CF911F910F912D
:1019D000FF90EF90DF90CF90BF90AF900895EF927F
:1019E000FF920F931F937C010E94BC0C8C01C701D6
:1019F0000E945D0B9C01200F311FC9011F910F91A7
:101A0000FF90EF900895FC01848195816817790714
:101A100048F40190F081E02D309721F0E60FF71F98
:101A20008081089580E00895DC01FB0114968D917A
:101A30009C911597892B31F461157105A9F090E0FF
:101A4000808108C00D90BC91A02D6115710529F40D
:101A500090E08C91882349F407C0CD010E946A0070
:101A60009C0190E0232B09F491E0892F08950F93B6
:101A70001F93CF93DF93EC018B016F5F7F4F8881C2
:101A800099810E94AC0F009711F480E005C0998302
:101A900088831B830A8381E0DF91CF911F910F918F
:101AA0000895CF93DF93EC0188819981892B29F0E8
:101AB0008A819B818617970760F4CE010E94370DBB
:101AC000882341F08C819D81892B19F4E881F9816B
:101AD000108281E0DF91CF910895EF92FF920F93F2
:101AE0001F93CF93DF93EC017B016C817D81E11427
:101AF000F104C1F04115510599F08A01060F171F35
:101B0000B8010E94510D882369F0888199812C8148
:101B10003D81820F931FB7010E9473001D830C83C8
:101B200081E001C080E0DF91CF911F910F91FF9084
:101B3000EF900895DF93CF9300D0CDB7DEB76983E0
:101B40001A82BE016F5F7F4F41E050E00E946D0D31
:101B50000F900F90CF91DF910895CF93DF93EC0119
:101B600088819981009711F00E94140F19821882C0
:101B70001D821C821B821A82DF91CF910895EF9201
:101B8000FF920F931F93CF93DF93EC017B018A01A8
:101B9000BA010E94510D882321F4CE010E94AD0D9F
:101BA00007C01D830C8388819981B7010E9473004F
:101BB000CE01DF91CF911F910F91FF90EF9008958B
:101BC000CF93DF93EC01198218821B821A821D8247
:101BD0001C821E826115710551F0DB010D90002001
:101BE000E9F71197A61BB70BAD010E94BF0DDF915E
:101BF000CF9108950F931F93182F092F6115710529
:101C000059F0DB010D900020E9F71197A61BB70BE7
:101C1000AD010E94BF0D02C00E94AD0D812F902F1B
:101C20001F910F910895BF92CF92DF92EF92FF9292
:101C30000F931F93CF93DF93082FB92E6B017A0177
:101C4000E9012417350710F4EA017901802F9B2D53
:101C50006CE173E00E94E00DD60114968D919C9189
:101C600015978E159F05D0F08C179D0708F4EC0191
:101C7000D601ED91FC911197EC0FFD1F10811082A0
:101C80006D917C916E0D7F1D802F9B2D0E94FA0D12
:101C9000D601ED91FC91EC0FFD1F1083802F9B2D41
:101CA000DF91CF911F910F91FF90EF90DF90CF9038
:101CB000BF900895CF93DF93EC01FB018617970740
:101CC00061F0608171816115710529F04481558150
:101CD0000E94BF0D02C00E94AD0DCE01DF91CF91D9
:101CE0000895FC01808191810E94140F08950F9343
:101CF0001F93CF93DF93BC018230910510F462E013
:101D000070E0E0913204F091330440E050E0A0E054
:101D1000B0E024C08081918186179707D0F08617A4
:101D2000970771F482819381109729F013969C9301
:101D30008E9312972CC0909333048093320427C063
:101D40004115510519F08417950718F48D01AC0160
:101D5000EF01DF01828193819C01F9013097D1F677
:101D600041155105F9F0CA01861B970B8430910586
:101D700080F48A819B810115110521F0F80193837C
:101D8000828304C09093330480933204FE01329620
:101D900045C0FE01E80FF91F619371930297998383
:101DA00088833CC08091300490913104892B41F4A8
:101DB000809120039091210390933104809330040B
:101DC00040912203509123034115510541F44DB731
:101DD0005EB780911E0390911F03481B590B209101
:101DE00030043091310424173507B0F4CA01821B46
:101DF000930B8617970780F0AB014E5F5F4F8417F8
:101E0000950750F0420F531F509331044093300414
:101E1000F9016193719302C0E0E0F0E0CF01DF913E
:101E2000CF911F910F910895CF93DF939C0100975D
:101E300009F48FC0EC0122971B821A826091320450
:101E4000709133046115710581F488819981820F45
:101E5000931F20913004309131042817390739F548
:101E6000D0933104C093300474C0DB0140E050E0F3
:101E7000AC17BD0708F1BB83AA83FE012191319104
:101E8000E20FF31FAE17BF0779F48D919C91119764
:101E9000280F391F2E5F3F4F3983288312968D916B
:101EA0009C9113979B838A834115510571F4D093BC
:101EB0003304C09332044DC012968D919C911397B8
:101EC000AD01009711F0DC01D3CFDA011396DC935A
:101ED000CE931297FA0121913191E20FF31FCE17A1
:101EE000DF0769F488819981280F391F2E5F3F4FE2
:101EF000FA01318320838A819B8193838283E0E08E
:101F0000F0E0DB0112968D919C911397009719F0E8
:101F1000BC01FD01F6CFAB014E5F5F4FDB018D9140
:101F20009C91840F951F2091300430913104281723
:101F3000390779F4309729F410923304109232045F
:101F400002C0138212824250504050933104409399
:101F50003004DF91CF9108956F927F928F929F927C
:101F6000AF92BF92CF92DF92EF92FF920F931F93A7
:101F7000CF93DF938C01009729F4CB010E94770E59
:101F80008C01BBC08EEFE82E8FEFF82EE00EF11E15
:101F90004801860E971E8E149F0408F4ACC0D7012A
:101FA0004D915C91119746175707B8F04530510590
:101FB00008F4A3C0CA0104978617970708F49DC0C8
:101FC00042505040461B570BF401419351936D937F
:101FD0007C93CF010E94140F90C05B01A41AB50A34
:101FE0003801640E751EA0913204B0913304E0E014
:101FF000F0E0CC24DD2447C0A615B705A9F5CD91A6
:10200000DC911197CE0102968A159B0568F1CE01ED
:102010008A199B09029612962C91129713963C915D
:10202000059758F0F40122833383CA19DB09D18361
:10203000C083D7016D937C9309C04E5F5F4F4C0FF7
:102040005D1FF70151834083C901FC01C114D10414
:1020500031F0D6011396FC93EE9312974EC0F09395
:102060003304E093320449C08D919C911197E81795
:10207000F90708F4FC016D0112968C9112971396E2
:102080009C919C01D901109709F0B6CF8091300442
:102090009091310486159705E9F4E617F707D0F417
:1020A00020912203309123032115310541F42DB7EE
:1020B0003EB780911E0390911F03281B390B821697
:1020C0009306C8F49092310480923004F701718332
:1020D000608313C0CB010E94770EEC01009759F08A
:1020E000D7014D915C91B8010E946100C8010E9426
:1020F000140F8E0102C000E010E0C801DF91CF9103
:102100001F910F91FF90EF90DF90CF90BF90AF9015
:102110009F908F907F906F9008955058BB27AA276B
:102120000ED071C162D130F067D120F031F49F3F01
:1021300011F41EF457C10EF4E095E7FB4DC1E92FF1
:1021400073D180F3BA17620773078407950718F0F5
:1021500071F49EF58BC10EF4E0950B2EBA2FA02DD5
:102160000B01B90190010C01CA01A0011124FF2744
:10217000591B99F0593F50F4503E68F11A16F0403F
:10218000A22F232F342F4427585FF3CF469537953E
:102190002795A795F0405395C9F77EF41F16BA0B03
:1021A000620B730B840BBAF09150A1F0FF0FBB1FB1
:1021B000661F771F881FC2F70EC0BA0F621F731FFA
:1021C000841F48F4879577956795B795F7959E3F57
:1021D00008F0B3CF9395880F08F09927EE0F9795E5
:1021E000879508950CD00FC107D140F0FED030F094
:1021F00021F45F3F19F0F0C0511139C1F3C014D17F
:1022000098F39923C9F35523B1F3951B550BBB27BD
:10221000AA2762177307840738F09F5F5F4F220F6A
:10222000331F441FAA1FA9F333D00E2E3AF0E0E863
:1022300030D091505040E695001CCAF729D0FE2FAF
:1022400027D0660F771F881FBB1F26173707480741
:10225000AB07B0E809F0BB0B802DBF01FF279358F7
:102260005F4F2AF09E3F510568F0B6C000C15F3F46
:10227000ECF3983EDCF3869577956795B795F795DF
:102280009F5FC9F7880F911D9695879597F90895D7
:10229000E1E0660F771F881FBB1F62177307840773
:1022A000BA0720F0621B730B840BBA0BEE1F88F782
:1022B000E095089504D06894B111D9C00895BCD0B8
:1022C00088F09F5790F0B92F9927B751A0F0D1F01F
:1022D000660F771F881F991F1AF0BA95C9F712C0A9
:1022E000B13081F0C3D0B1E00895C0C0672F782F1E
:1022F0008827B85F39F0B93FCCF386957795679515
:10230000B395D9F73EF490958095709561957F4F80
:102310008F4F9F4F0895E89409C097FB3EF4909526
:102320008095709561957F4F8F4F9F4F9923A9F0AE
:10233000F92F96E9BB279395F6958795779567953D
:10234000B795F111F8CFFAF4BB0F11F460FF1BC081
:102350006F5F7F4F8F4F9F4F16C0882311F096E914
:1023600011C0772321F09EE8872F762F05C06623C2
:1023700071F096E8862F70E060E02AF09A95660F7B
:10238000771F881FDAF7880F9695879597F9089534
:10239000990F0008550FAA0BE0E8FEEF1616170676
:1023A000E807F907C0F012161306E407F50798F0DE
:1023B000621B730B840B950B39F40A2661F0232BF7
:1023C000242B252B21F408950A2609F4A140A69573
:1023D0008FEF811D811D089597F99F6780E870E058
:1023E00060E008959FEF80EC089500240A9416168B
:1023F000170618060906089500240A9412161306F3
:10240000140605060895092E0394000C11F4882380
:1024100052F0BB0F40F4BF2B11F460FF04C06F5F9C
:102420007F4F8F4F9F4F089557FD9058440F551F72
:1024300059F05F3F71F04795880F97FB991F61F046
:102440009F3F79F087950895121613061406551FBD
:10245000F2CF4695F1DF08C0161617061806991F29
:10246000F1CF86957105610508940895E894BB271E
:1024700066277727CB0197F908958ADF08F48FEF55
:102480000895629FD001739FF001829FE00DF11DBE
:10249000649FE00DF11D929FF00D839FF00D749FDE
:1024A000F00D659FF00D9927729FB00DE11DF91F8A
:1024B000639FB00DE11DF91FBD01CF0111240895E7
:1024C000A1E21A2EAA1BBB1BFD010DC0AA1FBB1F38
:1024D000EE1FFF1FA217B307E407F50720F0A21BAA
:1024E000B30BE40BF50B661F771F881F991F1A9417
:1024F00069F760957095809590959B01AC01BD0141
:10250000CF01089597FB092E05260ED057FD04D064
:10251000D7DF0AD0001C38F45095409530952195AE
:102520003F4F4F4F5F4F0895F6F790958095709508
:1025300061957F4F8F4F9F4F0895EE0FFF1F0590BE
:10254000F491E02D099410E0CCE6D0E004C0FE0147
:102550000E949F122296CE36D107C9F7F894FFCF7A
:10256000312E302E32004848005663633A20005224
:102570006561647900495F7261773A2000565F7245
:1025800061773A20004E5F7261773A2000566F6C97
:1025900074735F52504D3A200000444400414100A2
:1025A00044656275673A204F6E0044656275673A0C
:1025B000204F66660041300041303A20002C200058
:1025C00041310041313A200041320041323A20008D
:1025D00041330041333A200041340041343A200075
:1025E00041350041353A2000563A20003B20004951
:1025F0003A20004E3A2000503A2000743A200076EB
:102600006F6C746167650063757272656E740072D9
:10261000706D00706F7765720074696D65737461B9
:102620006D7000454F4C004D6561737572656D6549
:102630006E7420426F617264004669726D776172D8
:1026400065202056657273696F6E3A00436F6D6D39
:10265000616E64733A004848203A207072696E7463
:10266000732074686973206D6173736167650041DD
:1026700041203A207072696E7420566F6C742C2061
:1026800043757272656E742C2052504D2C20506F21
:1026900077657220616E6420612054696D65737482
:1026A000616D70202873696E6365206C617374209E
:1026B000726573746172742920696E206163747528
:1026C000616C20556E69747320285B6D565D2C5BC0
:1026D0006D415D2C5B312F6D696E5D2C5B6D575DBF
:1026E0002C5B75735D290020202020204F757470AD
:1026F000757420697320696E204A534F4E205374BD
:10270000796C65212121004178203A207072696E30
:102710007473206F6E6C7920416E616C6F6720500E
:10272000696E207820286269742076616C75652056
:1027300028783A20302D352929004444203A207445
:102740006F67676C65206465627567206D6F64658F
:10275000206F6E20616E64206F6666006E756C6C13
:102760000066616C736500747275650022225C5CA2
:1027700008620C660A6E0D72097400000001800088
:1027800034040000000000001207000000001B06D7
:10279000330B000000003905330B000000008E0AE7
:0A27A000330B240A550A350A7E0A9D
:00000001FF
