:100000000C9437000C945F000C945F000C945F001C
:100010000C945F000C945F000C945F000C945F00E4
:100020000C945F000C945F000C945F000C945F00D4
:100030000C945F000C945F000C945F000C945F00C4
:100040000C94B8070C945F000C94DD080C942B09F9
:100050000C945F000C945F000C945F000C945F00A4
:100060000C945F000C945F009800970A9100112493
:100070001FBECFEFD8E0DEBFCDBF12E0A0E0B1E001
:10008000E2E4F4E202C005900D92AC30B107D9F77A
:1000900012E0ACE0B2E001C01D92AF3EB107E1F763
:1000A00010E0CCE6D0E004C02297FE010E941012BE
:1000B000C836D107C9F70E94ED0A0C9414120C94AB
:1000C0000000FB01DC0102C001900D924150504044
:1000D000D8F70895FB01DC018D9101908019011082
:1000E000D9F3990B0895FB01DC0101900D920020DA
:1000F000E1F708958130910551F46F5F7F4F81F4EE
:100100008BE192E060E071E00E94510D0895892B2F
:1001100039F46F5F7F4F21F48BE192E00E94E20D92
:10012000089580E090E06FEF7FEF0E947A000895DD
:1001300081E090E06FEF7FEF0E947A000895EF92E8
:10014000FF920F931F938EE480937C0062E070E037
:1001500080E090E00E94260880917A00806480937D
:100160007A0080917A0086FDFCCF8091780090E043
:10017000A0E0B0E060917900362F20E0442737FD01
:100180004095542F282B392B4A2B5B2B60ED7FE5B4
:1001900081E190E00E94F311122F032FF42EE52E3F
:1001A00080910C02882381F089EC92E061E071E09B
:1001B0000E946F0C89EC92E0412F502F6F2D7E2D05
:1001C0002AE030E00E94290C612F702F8F2D9E2D88
:1001D0001F910F91FF90EF9008950F931F93EAE7FF
:1001E000F0E080818460808380818D7F8083808146
:1001F0008E7F808309EC12E0C80140E052EC61E0A0
:1002000070E00E946609C80167E071E00E94720C0C
:100210001F910F910895EF92FF920F931F93CF9329
:10022000DF93EC010E949F009B01AC017E0100273F
:10023000F7FC0095102FC801B701E2E0660F771FA9
:10024000881F991FEA95D1F76E0D7F1D801F911FA2
:100250000E94B21120E034E040E050E00E94F3112F
:1002600079018A0180910C028823D9F089EC92E00F
:100270006DE071E00E946F0C89EC92E0BE014AE0F3
:1002800050E00E94500C89EC92E065E171E00E9420
:100290006F0C89EC92E0B801A7012AE030E00E94DF
:1002A000290CC801B7010E94FE1020E030E040ECAC
:1002B0005FE30E9463107B018C0120E030E040E0AE
:1002C00050E00E94AE1188234CF0C801B70120E035
:1002D00030E040E05FE30E94FF0F08C0C801B701B3
:1002E00020E030E040E05FE30E94FE0F0E94CB1070
:1002F000DF91CF911F910F91FF90EF900895CF93D1
:10030000DF93EC0180910C02882369F089EC92E084
:1003100061E271E00E946F0C89EC92E0BE014AE05C
:1003200050E00E94500C0E949F009E01442737FD20
:100330004095542F0E94B21120E034E040E050E09C
:100340000E94F311CA01B901DF91CF910895EF9294
:10035000FF920F931F93CF93DF93EC0180910C02D8
:10036000882369F089EC92E069E271E00E946F0CE9
:1003700089EC92E0BE014AE050E00E94500C0E94DD
:100380009F009B01AC017E010027F7FC0095102F18
:10039000C801B701F2E0660F771F881F991FFA9511
:1003A000D1F76E0D7F1D801F911F0E94B21120E0BA
:1003B00034E040E050E00E94F311C901DF91CF9199
:1003C0001F910F91FF90EF900895EF92FF920F937E
:1003D0001F93DF93CF93CDB7DEB7E7970FB6F894AF
:1003E000DEBF0FBECDBF89EC92E00E94ED0918166A
:1003F00019068CF58BE192E060E071E00E946B0DD4
:100400000FC089EC92E00E941E0A682F8BE192E0F7
:100410000E940B0D6AE070E080E090E00E942608E8
:1004200089EC92E00E94ED091816190654F38E012A
:100430000F5F1F4FC8016BE172E040E050E022E027
:1004400030E00E94840D8BE192E0B8010E94CB0D58
:10045000C8010E94E20D8BE192E061E371E00E942D
:10046000850C8823F1F090E080910C02882309F438
:1004700091E090930C028BE192E064E371E00E94C2
:100480006B0D80910C02882329F089EC92E067E3E0
:1004900071E004C089EC92E061E471E00E94720CAA
:1004A000A4C28BE192E06CE471E00E94850C882389
:1004B00001F10E94000860932A0270932B0280933E
:1004C0002C0290932D028EE00E94BA0890931A029B
:1004D000809319020E94000860932E0270932F02ED
:1004E000809330029093310289EC92E06FE471E0E6
:1004F000C8C08BE192E067E571E00E94850C88231B
:1005000001F10E94000860932A0270932B028093ED
:100510002C0290932D028FE00E94BA0890931A0249
:10052000809319020E94000860932E0270932F029C
:10053000809330029093310289EC92E06AE571E099
:10054000A0C08BE192E06FE571E00E94850C8823EA
:1005500001F10E94000860932A0270932B0280939D
:100560002C0290932D0280E10E94BA0890931A0207
:10057000809319020E94000860932E0270932F024C
:10058000809330029093310289EC92E062E671E050
:1005900078C08BE192E067E671E00E94850C8823C9
:1005A00001F10E94000860932A0270932B0280934D
:1005B0002C0290932D0281E10E94BA0890931A02B6
:1005C000809319020E94000860932E0270932F02FC
:1005D000809330029093310289EC92E06AE671E0F8
:1005E00050C08BE192E06FE671E00E94850C882399
:1005F00001F10E94000860932A0270932B028093FD
:100600002C0290932D0282E10E94BA0890931A0264
:10061000809319020E94000860932E0270932F02AB
:10062000809330029093310289EC92E062E771E0AE
:1006300028C08BE192E067E771E00E94850C882377
:1006400009F45CC00E94000860932A0270932B0298
:1006500080932C0290932D0283E10E94BA0890931C
:100660001A02809319020E94000860932E02709370
:100670002F02809330029093310289EC92E06AE776
:1006800071E00E946F0C6091190270911A0289EC5E
:1006900092E04AE050E00E943D0C89EC92E064E573
:1006A00071E00E946F0C40912E0250912F026091D8
:1006B00030027091310280912A0290912B02A09118
:1006C0002C02B0912D02481B590B6A0B7B0B89EC55
:1006D00092E02AE030E00E94C60B89EC92E064E5EB
:1006E00071E00E946F0C0E940008AB01BC0189EC14
:1006F00092E02AE030E00E94D50B77C18BE192E0D6
:1007000064E371E00E94850C882309F468C18EE0DF
:100710000E94BA080E94A701AA2797FDA095BA2FA8
:1007200080930D0290930E02A0930F02B0931002DB
:100730008FE00E94BA080E947F01609311027093BB
:100740001202809313029093140280E10E94BA086F
:100750000E940B016093150270931602809317029A
:10076000909318026091110270911202809113020D
:100770009091140220910D0230910E0240910F02CF
:10078000509110020E94B21128EE33E040E050E098
:100790000E94F311209326023093270240932802EF
:1007A000509329020E94000860932E0270932F023A
:1007B000809330029093310260932202709323025F
:1007C000809324029093250280910C02882309F4DF
:1007D0007DC089EC92E06FE771E00E946F0C409160
:1007E0000D0250910E0260910F027091100289EC7F
:1007F00092E02AE030E00E94E90B89EC92E063E8A5
:1008000071E00E946F0C89EC92E066E871E00E9452
:100810006F0C40911102509112026091130270917D
:10082000140289EC92E02AE030E00E94E90B89ECA6
:1008300092E063E871E00E946F0C89EC92E06AE854
:1008400071E00E946F0C4091150250911602609168
:1008500017027091180289EC92E02AE030E00E94C1
:10086000E90B89EC92E063E871E00E946F0C89EC7F
:1008700092E06EE871E00E946F0C40912602509168
:100880002702609128027091290289EC92E02AE007
:1008900030E00E94E90B89EC92E063E871E00E948D
:1008A0006F0C89EC92E062E971E00E946F0C40915C
:1008B000220250912302609124027091250289EC5A
:1008C00092E02AE030E00E94290C8FC08E01085F80
:1008D0001F4F085F1F4F1B870A870850104085E095
:1008E00090E09D878C871F861E868AEE91E099870F
:1008F0008887C80166E971E00E947F07FC0180914A
:100900000D0290910E02A0910F02B091100220E50D
:10091000E22E27E0F22EF582E48280839183A28387
:10092000B383C8016EE971E00E947F07FC018091EA
:10093000110290911202A0911302B0911402F5825B
:10094000E48280839183A283B383C80166EA71E065
:100950000E947F07FC018091150290911602A091E0
:100960001702B0911802F582E48280839183A283FA
:10097000B383C8016AEA71E00E947F07FC0180919D
:10098000260290912702A0912802B0912902F582B7
:10099000E48280839183A283B383C80160EB71E01A
:1009A0000E947F07FC018091220290912302A09176
:1009B0002402B0912502F582E48280839183A28390
:1009C000B383C80169EC72E00E94830589EC92E070
:1009D0000E94260B89EC92E06AEB71E05FCD8BE11F
:1009E00092E060E071E00E946B0DE7960FB6F8941C
:1009F000DEBF0FBECDBFCF91DF911F910F91FF9052
:100A0000EF900895DF92EF92FF920F931F93CF9391
:100A1000DF938C01D62EDC0116968C9187FD03C0E6
:100A2000EE24FF2421C0C0E0D0E0EE24FF2410C05B
:100A3000D8011496ED91FC911597A081B1812D916B
:100A40003C91CF0160E2F9010995E80EF91E21966B
:100A5000F8018681282F229527708F70829FC00110
:100A60001124C817D90724F3D8011496ED91FC91ED
:100A70001597A081B1812D913C91CF016D2DF90188
:100A800009959C0140E0BAE0DB1609F441E0479586
:100A900044274795F80186818F77842B86832E0D16
:100AA0003F1DC901DF91CF911F910F91FF90EF90F2
:100AB000DF900895DF93CF93CDB7DEB728970FB6B9
:100AC000F894DEBF0FBECDBFDC011C821B8280EF1D
:100AD00091E09A8389837F836E831D821886ED91CE
:100AE000FC9111970190F081E02DCD01BE016F5F67
:100AF0007F4F099528960FB6F894DEBF0FBECDBF85
:100B0000CF91DF910895DF93CF93CDB7DEB72797CD
:100B10000FB6F894DEBF0FBECDBF1C821B8228EF3C
:100B200031E03A8329837E836D8320EA2F83BE01DF
:100B30006F5F7F4F0E945A0527960FB6F894DEBF6D
:100B40000FBECDBFCF91DF910895FC0184818B371B
:100B500079F08B3589F40CC0815F8F70907F982B72
:100B600016969C93858196810E94260B9C0102C05B
:100B700020E030E0C9010895A581B68116969C91C8
:100B80001697892F8F7041F7EDCFFC0184818B3749
:100B900029F08B3519F020E030E014C0A581B68132
:100BA00016969C911697892F8F708F3031F08F5F3A
:100BB0008F70907F982B16969C93858196810E94CA
:100BC000260B9C01C9010895FF920F931F93CF93A9
:100BD000DF93EC01F62E8F81882399F082E268176B
:100BE00021F48C818C3509F01F82ED81FE81A0817A
:100BF000B1812D913C91CF016F2DF90109959C0197
:100C00006AC08BE5681709F454C0861758F08CE267
:100C1000681769F18AE3681799F082E2681709F0AA
:100C200048C036C08BE7681709F443C08DE76817E2
:100C300019F08DE56817E9F5CE010E94A5053CC0C5
:100C4000AD81BE81ED91FC9111970190F081E02D75
:100C5000CD016AE309958C01AD81BE81ED91FC91D6
:100C600011970190F081E02DCD0160E230C0AD819F
:100C7000BE81ED91FC9111970190F081E02DCD01A5
:100C80006CE209958C018D819E810E94260B20C00B
:100C900081E08F83CE010E94C5058C01AD81BE81AC
:100CA000ED91FC9111970190F081E02DCD0162E270
:100CB0000EC0CE010E94C5058C01AD81BE81ED91B3
:100CC000FC9111970190F081E02DCD016F2D0995D8
:100CD0009C01200F311FFC82C901DF91CF911F9130
:100CE0000F91FF900895BF92CF92DF92EF92FF9203
:100CF0000F931F93CF93DF937C01EB01009739F49F
:100D0000CB016EEB71E00E946F0C9C0143C0E88147
:100D1000F9810190F081E02DCB0162E209956C012F
:100D200027C032968081882311F08617D1F7B180D1
:100D3000E881F981BB2091F00190F081E02DCE0196
:100D40006CE509958C01E881F9810190F081E02D35
:100D5000CE016B2D0995800F911F05C00190F08188
:100D6000E02DCE0109950894E11CF11CC80ED91E96
:100D7000F7016081662319F0EEECF1E0D3CFE88152
:100D8000F9810190F081E02DCE0162E20995960192
:100D9000280F391FC901DF91CF911F910F91FF904B
:100DA000EF90DF90CF90BF900895FC0180819181FA
:100DB0000E94730608956F927F928F929F92AF92D6
:100DC000BF92CF92DF92EF92FF920F931F93CF9338
:100DD000DF938C01EB01E881F9810190F081E02D36
:100DE000CB016BE709955C01D80112966D907C9060
:100DF000139716968D909C90179734C0F3018191AC
:100E000091918F01BE010E9473067C01E881F981F6
:100E10000190F081E02DCE016AE309956C01D301C8
:100E20001696ED91FC911797C801BE010995EC0C3F
:100E3000FD1CAE0CBF1CA80EB91EB1E08B169104B0
:100E400051F0E881F9810190F081E02DCE016CE252
:100E50000995A80EB91EE8E0F0E06E0E7F1E08941A
:100E600081089108181419044CF2E881F981019065
:100E7000F081E02DCE016DE709959501280F391F0E
:100E8000C901DF91CF911F910F91FF90EF90DF90FB
:100E9000CF90BF90AF909F908F907F906F9008956C
:100EA000FC01CB0140815181628173812AE030E0F5
:100EB0000E94E90B0895EF92FF920F931F93CF9337
:100EC000DF93FC017B01C281D381068117810AC0B7
:100ED00088819981B7010E946A00009741F02896A5
:100EE00001501040101611069CF3C0E0D0E0CE0176
:100EF000DF91CF911F910F91FF90EF9008950F9385
:100F00001F93CF93DF93EC018B010E945B07009747
:100F100019F0FC01329626C02E813F818C819D8183
:100F2000281739071CF0E2E3F2E010C0C90153E0D2
:100F3000880F991F5A95E1F7EA81FB81E80FF91FA5
:100F4000019311932F5F3F4F3F832E8380E090E00A
:100F5000A0E0B0E080839183A283B38385ED96E027
:100F600095838483CF01DF91CF911F910F910895D5
:100F70001F920F920FB60F9211242F933F938F93CE
:100F80009F93AF93BF9380913C0290913D02A091BB
:100F90003E02B0913F02309140020196A11DB11D69
:100FA000232F2D5F2D3720F02D570196A11DB11D48
:100FB0002093400280933C0290933D02A0933E0216
:100FC000B0933F028091380290913902A0913A0289
:100FD000B0913B020196A11DB11D80933802909300
:100FE0003902A0933A02B0933B02BF91AF919F9117
:100FF0008F913F912F910F900FBE0F901F901895DA
:101000009FB7F894209138023091390240913A020A
:1010100050913B0286B5A89B06C08F3F21F02F5F01
:101020003F4F4F4F5F4F9FBF542F432F322F2227E9
:10103000280F311D411D511D82E0220F331F441F17
:10104000551F8A95D1F7B901CA0108959B01AC01DA
:101050007FB7F8948091380290913902A0913A02BA
:10106000B0913B0266B5A89B05C06F3F19F0019691
:10107000A11DB11D7FBFBA2FA92F982F8827860FDA
:10108000911DA11DB11D62E0880F991FAA1FBB1FF2
:101090006A95D1F7BC012DC0FFB7F8948091380252
:1010A00090913902A0913A02B0913B02E6B5A89B1B
:1010B00005C0EF3F19F00196A11DB11DFFBFBA2F6A
:1010C000A92F982F88278E0F911DA11DB11DE2E039
:1010D000880F991FAA1FBB1FEA95D1F7861B970B94
:1010E000885E9340C8F221503040404050406851E3
:1010F0007C4F211531054105510571F6089578940D
:1011000084B5826084BD84B5816084BD85B582600C
:1011100085BD85B5816085BDEEE6F0E080818160AA
:101120008083E1E8F0E010828081826080838081AA
:1011300081608083E0E8F0E0808181608083E1EB82
:10114000F0E0808184608083E0EBF0E0808181606A
:101150008083EAE7F0E08081846080838081826020
:101160008083808181608083808180688083109209
:10117000C1000895982F8E3008F09E50977080918E
:10118000DF018295880F880F807C892B80937C00FB
:1011900080917A00806480937A0080917A0086FD45
:1011A000FCCF2091780040917900942F80E030E0CE
:1011B000282B392BC901089508951F920F920FB65D
:1011C0000F9211242F933F934F938F939F93EF93FD
:1011D000FF938091C00082FD1DC04091C600209108
:1011E0008102309182022F5F3F4F2F7330708091C8
:1011F0008302909184022817390771F0E0918102EF
:10120000F0918202EF5BFD4F408330938202209386
:10121000810202C08091C600FF91EF919F918F9152
:101220004F913F912F910F900FBE0F901F901895E7
:10123000E091D502F091D602E05CFF4F819191914F
:1012400020813181821B930B8F739070892B11F059
:101250000E94DC0808951F920F920FB60F9211247E
:101260002F933F938F939F93EF93FF932091C5020A
:101270003091C6028091C7029091C80228173907A1
:1012800031F48091C1008F7D8093C10014C0E09142
:10129000C702F091C802EB57FD4F20818091C70231
:1012A0009091C80201968F7390709093C8028093BA
:1012B000C7022093C600FF91EF919F918F913F91BC
:1012C0002F910F900FBE0F901F901895AF92BF9265
:1012D000DF92EF92FF920F931F93CF93DF93EC0176
:1012E0007A018B01DD24403081EE580780E06807E9
:1012F00080E0780711F0DD24D39491E0A92EB12C81
:10130000EC89FD89DD2069F0C50108A002C0880FC5
:10131000991F0A94E2F7808360E079E08DE390E022
:1013200005C0108260E874E88EE190E0A8019701A2
:101330000E94D11121503040404050405695479571
:101340003795279580E12030380720F0DD2011F017
:10135000DD24D6CFE889F9893083EA89FB892083A7
:1013600019A2EE89FF89408121E030E0C9010C8C8F
:1013700002C0880F991F0A94E2F7482B4083EE8938
:10138000FF894081C9010D8C02C0880F991F0A9402
:10139000E2F7482B4083EE89FF894081C9010E8C1A
:1013A00002C0880F991F0A94E2F7482B4083EE8908
:1013B000FF8980810F8C02C0220F331F0A94E2F74D
:1013C000209528232083DF91CF911F910F91FF90CB
:1013D000EF90DF90BF90AF900895DC011C96ED91E7
:1013E000FC911D97E05CFF4F2191319180819181AB
:1013F000281B390B2F733070C9010895DC011C962E
:10140000ED91FC911D97E05CFF4F20813181E0540C
:10141000F040DF01AE5BBF4F8D919C911197281773
:10142000390719F42FEF3FEF07C08D919C91E80F1A
:10143000F91F8081282F30E0C9010895DC011C9636
:10144000ED91FC911D97E05CFF4F20813181E054CC
:10145000F040DF01AE5BBF4F8D919C911197281733
:10146000390719F42FEF3FEF10C08D919C91119720
:10147000E80FF91F20818D919C91119701968F7330
:10148000907011969C938E9330E0C9010895DC0111
:1014900091968C919197882339F05496ED91FC9117
:1014A0005597808186FFF9CF91961C920895CF932E
:1014B000DF93EC01EE85FF85E05CFF4F20813181F9
:1014C000E054F0402F5F3F4F2F733070DF01AE5B71
:1014D000BF4F8D919C91119728173907D1F3E05C8C
:1014E000FF4F80819181E054F040E80FF91F608345
:1014F000EE85FF85E05CFF4F31832083EE89FF8915
:10150000208181E090E00F8C02C0880F991F0A941F
:10151000E2F7282B208381E089A3EC89FD89808173
:101520008064808381E090E0DF91CF9108951092F4
:10153000CC021092CB0288EE93E0A0E0B0E0809362
:10154000CD029093CE02A093CF02B093D00280E060
:1015500092E09093CA028093C90281E492E0909352
:10156000D6028093D50285E892E09093D8028093CA
:10157000D70285EC90E09093DA028093D90284EC54
:1015800090E09093DC028093DB0280EC90E09093FB
:10159000DE028093DD0281EC90E09093E002809384
:1015A000DF0282EC90E09093E2028093E10286EC0D
:1015B00090E09093E4028093E30284E08093E5025C
:1015C00083E08093E60287E08093E70285E08093E2
:1015D000E80281E08093E9020895CF93DF930E94AF
:1015E0007F080E94ED00C8E1D9E00E94E501209744
:1015F000E1F30E941809F9CFCF92DF92EF92FF92A8
:101600000F931F93CF93DF937C016B018A01C0E09E
:10161000D0E00FC0D6016D916D01D701ED91FC9125
:101620000190F081E02DC7010995C80FD91F015025
:1016300010400115110571F7CE01DF91CF911F9177
:101640000F91FF90EF90DF90CF900895EF92FF926F
:101650000F931F938C01DC01ED91FC910190F081BF
:10166000E02D6DE009957C01D801ED91FC91019090
:10167000F081E02DC8016AE009959C012E0D3F1D07
:10168000C9011F910F91FF90EF900895CF93DF93C1
:10169000EC016115710519F420E030E00FC0DB01A9
:1016A0000D900020E9F71197A61BB70BE881F9818F
:1016B0000280F381E02DAD0109959C01C901DF9104
:1016C000CF9108954F925F927F928F929F92AF92A7
:1016D000BF92CF92DF92EF92FF920F931F93DF930F
:1016E000CF93CDB7DEB7A1970FB6F894DEBF0FBE8C
:1016F000CDBF2C01742ECB01223008F42AE019A2B0
:1017000031E2C32ED12CCC0EDD1E822E9924AA24C8
:10171000BB24672D752FA50194010E94D111790179
:101720008A01C801B701A50194010E94B211472D99
:10173000461B0894C108D1084A3014F4405D01C02A
:10174000495CF6014083E114F1040105110521F023
:101750007E2C5F2DC801DDCFC201B6010E94460B71
:10176000A1960FB6F894DEBF0FBECDBFCF91DF912B
:101770001F910F91FF90EF90DF90CF90BF90AF90AF
:101780009F908F907F905F904F900895DC0121157E
:10179000310541F4ED91FC910190F081E02D642F31
:1017A000099508950E94620B0895EF92FF920F939E
:1017B0001F937C010E94C60B8C01C7010E94260B5F
:1017C0009C01200F311FC9011F910F91FF90EF90D5
:1017D0000895CF92DF92EF92FF920F931F93CF93D2
:1017E000DF93EC016A017B012115310541F4E881A9
:1017F000F9810190F081E02D642F09951FC02A30F6
:101800003105D1F477FF17C0E881F9810190F081AB
:10181000E02D6DE209958C0144275527BA014C193A
:101820005D096E097F09CE012AE00E94620B9801D2
:10183000280F391F04C02AE00E94620B9C01C901D5
:10184000DF91CF911F910F91FF90EF90DF90CF909C
:101850000895EF92FF920F931F937C010E94E90B72
:101860008C01C7010E94260B9C01200F311FC9016A
:101870001F910F91FF90EF900895EF92FF920F93B9
:101880001F937B019A010027F7FC0095102FB801E8
:10189000A7010E94E90B1F910F91FF90EF9008950F
:1018A000CF92DF92EF92FF920F931F936C017B0117
:1018B0009A010027F7FC0095102FB801A7010E949C
:1018C000E90B8C01C6010E94260B080F191FC801E5
:1018D0001F910F91FF90EF90DF90CF9008950E949D
:1018E000460B0895EF92FF920F931F937C010E9485
:1018F000460B8C01C7010E94260B080F191FC80157
:101900001F910F91FF90EF900895DC01FB01149659
:101910008D919C911597892B31F461157105A9F072
:1019200090E0808108C00D90BC91A02D61157105DB
:1019300029F490E08C91882349F407C0CD010E94DE
:101940006A009C0190E0232B09F491E0892F08950F
:101950000F931F93CF93DF93EC018B016F5F7F4F4A
:10196000888199810E941D0F009711F480E005C0C5
:10197000998388831B830A8381E0DF91CF911F9134
:101980000F910895CF93DF93EC0188819981892B82
:1019900029F08A819B818617970760F4CE010E9407
:1019A000A80C882341F08C819D81892B19F4E88152
:1019B000F981108281E0DF91CF910895EF92FF923B
:1019C0000F931F93CF93DF93EC017B016C817D819B
:1019D000E114F104C1F04115510599F08A01060F97
:1019E000171FB8010E94C20C882369F08881998171
:1019F0002C813D81820F931FB7010E9473001D83CC
:101A00000C8381E001C080E0DF91CF911F910F91A5
:101A1000FF90EF900895DF93CF9300D0CDB7DEB75E
:101A200069831A82BE016F5F7F4F41E050E00E94E0
:101A3000DE0C0F900F90CF91DF910895CF93DF933D
:101A4000EC0188819981009711F00E94850E19821E
:101A500018821D821C821B821A82DF91CF91089509
:101A6000EF92FF920F931F93CF93DF93EC017B01D3
:101A70008A01BA010E94C20C882321F4CE010E947F
:101A80001E0D07C01D830C8388819981B7010E94B8
:101A90007300CE01DF91CF911F910F91FF90EF90D6
:101AA0000895CF93DF93EC01198218821B821A826A
:101AB0001D821C821E826115710551F0DB010D90A3
:101AC0000020E9F71197A61BB70BAD010E94300D5E
:101AD000DF91CF9108950F931F93182F092F611550
:101AE000710559F0DB010D900020E9F71197A61B55
:101AF000B70BAD010E94300D02C00E941E0D812F58
:101B0000902F1F910F910895BF92CF92DF92EF9285
:101B1000FF920F931F93CF93DF93082FB92E6B0182
:101B20007A01E9012417350710F4EA017901802FC1
:101B30009B2D6EED71E00E94510DD60114968D9192
:101B40009C9115978E159F05D0F08C179D0708F472
:101B5000EC01D601ED91FC911197EC0FFD1F108166
:101B600010826D917C916E0D7F1D802F9B2D0E94A8
:101B70006B0DD601ED91FC91EC0FFD1F1083802FB2
:101B80009B2DDF91CF911F910F91FF90EF90DF90F0
:101B9000CF90BF900895CF93DF93EC01FB018617A0
:101BA000970761F0608171816115710529F04481A9
:101BB00055810E94300D02C00E941E0DCE01DF91A2
:101BC000CF910895FC01808191810E94850E089536
:101BD0000F931F93CF93DF93BC018230910510F4D4
:101BE00062E070E0E091ED02F091EE0240E050E042
:101BF000A0E0B0E024C08081918186179707D0F0E3
:101C00008617970771F482819381109729F01396B4
:101C10009C938E9312972CC09093EE028093ED02CA
:101C200027C04115510519F08417950718F48D0147
:101C3000AC01EF01DF01828193819C01F9013097B2
:101C4000D1F641155105F9F0CA01861B970B843076
:101C5000910580F48A819B810115110521F0F8011D
:101C60009383828304C09093EE028093ED02FE0181
:101C7000329645C0FE01E80FF91F619371930297F8
:101C8000998388833CC08091EB029091EC02892B70
:101C900041F48091E2019091E3019093EC028093F2
:101CA000EB024091E4015091E5014115510541F4E9
:101CB0004DB75EB78091E0019091E101481B590B4F
:101CC0002091EB023091EC0224173507B0F4CA01E1
:101CD000821B930B8617970780F0AB014E5F5F4F17
:101CE0008417950750F0420F531F5093EC02409316
:101CF000EB02F9016193719302C0E0E0F0E0CF01E3
:101D0000DF91CF911F910F910895CF93DF939C01A5
:101D1000009709F48FC0EC0122971B821A82609110
:101D2000ED027091EE026115710581F4888199814F
:101D3000820F931F2091EB023091EC022817390794
:101D400039F5D093EC02C093EB0274C0DB0140E0A4
:101D500050E0AC17BD0708F1BB83AA83FE012191B7
:101D60003191E20FF31FAE17BF0779F48D919C916B
:101D70001197280F391F2E5F3F4F39832883129602
:101D80008D919C9113979B838A834115510571F422
:101D9000D093EE02C093ED024DC012968D919C91AE
:101DA0001397AD01009711F0DC01D3CFDA01139640
:101DB000DC93CE931297FA0121913191E20FF31F38
:101DC000CE17DF0769F488819981280F391F2E5FAC
:101DD0003F4FFA01318320838A819B8193838283E1
:101DE000E0E0F0E0DB0112968D919C911397009753
:101DF00019F0BC01FD01F6CFAB014E5F5F4FDB0177
:101E00008D919C91840F951F2091EB023091EC02F3
:101E10002817390779F4309729F41092EE021092BE
:101E2000ED0202C013821282425050405093EC02E5
:101E30004093EB02DF91CF9108956F927F928F9242
:101E40009F92AF92BF92CF92DF92EF92FF920F9349
:101E50001F93CF93DF938C01009729F4CB010E944D
:101E6000E80D8C01BBC08EEFE82E8FEFF82EE00E50
:101E7000F11E4801860E971E8E149F0408F4ACC014
:101E8000D7014D915C91119746175707B8F045302F
:101E9000510508F4A3C0CA0104978617970708F4F0
:101EA0009DC042505040461B570BF4014193519343
:101EB0006D937C93CF010E94850E90C05B01A41AA4
:101EC000B50A3801640E751EA091ED02B091EE02C4
:101ED000E0E0F0E0CC24DD2447C0A615B705A9F565
:101EE000CD91DC911197CE0102968A159B0568F180
:101EF000CE018A199B09029612962C91129713967D
:101F00003C91059758F0F40122833383CA19DB0909
:101F1000D183C083D7016D937C9309C04E5F5F4F1F
:101F20004C0F5D1FF70151834083C901FC01C114AF
:101F3000D10431F0D6011396FC93EE9312974EC064
:101F4000F093EE02E093ED0249C08D919C911197C0
:101F5000E817F90708F4FC016D0112968C911297AD
:101F600013969C919C01D901109709F0B6CF8091EE
:101F7000EB029091EC0286159705E9F4E617F70756
:101F8000D0F42091E4013091E5012115310541F4AF
:101F90002DB73EB78091E0019091E101281B390BEC
:101FA00082169306C8F49092EC028092EB02F7013D
:101FB0007183608313C0CB010E94E80DEC01009790
:101FC00059F0D7014D915C91B8010E946100C801A0
:101FD0000E94850E8E0102C000E010E0C801DF9172
:101FE000CF911F910F91FF90EF90DF90CF90BF9016
:101FF000AF909F908F907F906F9008955058BB271F
:10200000AA270ED071C162D130F067D120F031F42F
:102010009F3F11F41EF457C10EF4E095E7FB4DC14C
:10202000E92F73D180F3BA17620773078407950706
:1020300018F071F49EF58BC10EF4E0950B2EBA2FBB
:10204000A02D0B01B90190010C01CA01A0011124BE
:10205000FF27591B99F0593F50F4503E68F11A166A
:10206000F040A22F232F342F4427585FF3CF4695FB
:1020700037952795A795F0405395C9F77EF41F161D
:10208000BA0B620B730B840BBAF09150A1F0FF0FE7
:10209000BB1F661F771F881FC2F70EC0BA0F621FD3
:1020A000731F841F48F4879577956795B795F795C3
:1020B0009E3F08F0B3CF9395880F08F09927EE0F55
:1020C0009795879508950CD00FC107D140F0FED0A9
:1020D00030F021F45F3F19F0F0C0511139C1F3C065
:1020E00014D198F39923C9F35523B1F3951B550BDC
:1020F000BB27AA2762177307840738F09F5F5F4FDB
:10210000220F331F441FAA1FA9F333D00E2E3AF01B
:10211000E0E830D091505040E695001CCAF729D035
:10212000FE2F27D0660F771F881FBB1F2617370784
:102130004807AB07B0E809F0BB0B802DBF01FF27B4
:1021400093585F4F2AF09E3F510568F0B6C000C11A
:102150005F3FECF3983EDCF3869577956795B795EE
:10216000F7959F5FC9F7880F911D9695879597F909
:102170000895E1E0660F771F881FBB1F6217730782
:102180008407BA0720F0621B730B840BBA0BEE1F97
:1021900088F7E095089504D06894B111D9C00895E6
:1021A000BCD088F09F5790F0B92F9927B751A0F075
:1021B000D1F0660F771F881F991F1AF0BA95C9F7DB
:1021C00012C0B13081F0C3D0B1E00895C0C0672F14
:1021D000782F8827B85F39F0B93FCCF3869577958B
:1021E0006795B395D9F73EF4909580957095619574
:1021F0007F4F8F4F9F4F0895E89409C097FB3EF49F
:1022000090958095709561957F4F8F4F9F4F992343
:10221000A9F0F92F96E9BB279395F69587957795C1
:102220006795B795F111F8CFFAF4BB0F11F460FF81
:102230001BC06F5F7F4F8F4F9F4F16C0882311F0D9
:1022400096E911C0772321F09EE8872F762F05C0ED
:10225000662371F096E8862F70E060E02AF09A9588
:10226000660F771F881FDAF7880F9695879597F97D
:102270000895990F0008550FAA0BE0E8FEEF161617
:102280001706E807F907C0F012161306E407F5076A
:1022900098F0621B730B840B950B39F40A2661F0DE
:1022A000232B242B252B21F408950A2609F4A14081
:1022B000A6958FEF811D811D089597F99F6780E88E
:1022C00070E060E008959FEF80EC089500240A9488
:1022D0001616170618060906089500240A94121601
:1022E0001306140605060895092E0394000C11F434
:1022F000882352F0BB0F40F4BF2B11F460FF04C0E1
:102300006F5F7F4F8F4F9F4F089557FD9058440F39
:10231000551F59F05F3F71F04795880F97FB991F44
:1023200061F09F3F79F08795089512161306140601
:10233000551FF2CF4695F1DF08C01616170618068E
:10234000991FF1CF86957105610508940895E89469
:10235000BB2766277727CB0197F908958ADF08F412
:102360008FEF0895629FD001739FF001829FE00D6F
:10237000F11D649FE00DF11D929FF00D839FF00D04
:10238000749FF00D659FF00D9927729FB00DE11DB0
:10239000F91F639FB00DE11DF91FBD01CF0111248D
:1023A0000895A1E21A2EAA1BBB1BFD010DC0AA1F96
:1023B000BB1FEE1FFF1FA217B307E407F50720F0AE
:1023C000A21BB30BE40BF50B661F771F881F991F29
:1023D0001A9469F760957095809590959B01AC0172
:1023E000BD01CF01089597FB092E05260ED057FD9C
:1023F00004D0D7DF0AD0001C38F4509540953095B2
:1024000021953F4F4F4F5F4F0895F6F79095809578
:10241000709561957F4F8F4F9F4F0895EE0FFF1F6F
:102420000590F491E02D099410E0CCE6D0E004C0D2
:10243000FE010E9410122296CE36D107C9F7F894F9
:02244000FFCFCC
:10244200005663633A20005265616479004E5F7200
:1024520061773A2000566F6C74735F52504D3A2088
:1024620000495F7261773A2000565F7261773A20C5
:102472000044440041410044656275673A204F6E52
:102482000044656275673A204F666600413000413C
:10249200303A20002C200041310041313A200041E5
:1024A200320041323A200041330041333A200041A8
:1024B200340041343A200041350041353A2000567B
:1024C2003A20003B2000493A20004E3A2000503A80
:1024D2002000743A2000766F6C7461676500637542
:1024E2007272656E740072706D00706F7765720043
:1024F20074696D657374616D7000454F4C006E7543
:102502006C6C0066616C73650074727565002222E2
:102512005C5C08620C660A6E0D72097400000001B0
:102522008000EF02000000000000DB060000000057
:10253200E405FC0A000000000205FC0A000000009D
:0C254200570AFC0AED091E0AFE09470AB0
:00000001FF
