:100000000C9462000C948A000C948A000C948A0070
:100010000C948A000C948A000C948A000C948A0038
:100020000C948A000C948A000C948A000C948A0028
:100030000C948A000C948A000C948A000C948A0018
:100040000C94E3010C948A000C9453030C94A103C8
:100050000C948A000C948A000C948A000C948A00F8
:100060000C948A000C948A000000000024002700F1
:100070002A0000000000250028002B0000000000DE
:1000800023002600290004040404040404040202DA
:100090000202020203030303030301020408102007
:1000A0004080010204081020010204081020000012
:1000B0000007000201000003040600000000000029
:1000C00000000D0511241FBECFEFD8E0DEBFCDBF6D
:1000D00011E0A0E0B1E0E2E4F0E102C005900D9291
:1000E000AE31B107D9F711E0AEE1B1E001C01D9228
:1000F000A93EB107E1F710E0C4ECD0E004C02297BC
:10010000FE010E941B08C23CD107C9F70E9463058B
:100110000C941F080C940000EF92FF921F93CF9352
:10012000DF93EB017A01182F10686230710514F02B
:10013000182F106C8091000160E00E94FE021EBD2D
:100140000DB407FEFDCF8EB520E030E00BC01EBC25
:100150000DB407FEFDCF8EB5F701E20FF31F8083CC
:100160002F5F3F4F2C173D0794F38091000161E012
:100170000E94FE02DF91CF911F91FF90EF900895B2
:100180000F931F93182F062F8091000160E00E94AB
:10019000FE021EBD0DB407FEFDCF8EB50EBD0DB423
:1001A00007FEFDCF8EB58091000161E00E94FE0246
:1001B0001F910F9108952F923F924F925F926F92ED
:1001C0007F928F929F92AF92BF92CF92DF92EF92E7
:1001D000FF920F931F93CF93DF938091040166E00A
:1001E00070E04EE151E00E948C0030911F0120E050
:1001F00060911E0170E0622B732B70932901609354
:1002000028013091210120E0E0902001FF24E22A22
:10021000F32AF0922B01E0922A013091230120E091
:10022000A0902201BB24A22AB32AB0922D01A09251
:100230002C0120900A0130900B0140900C0150904D
:100240000D01C0913401D0913501882777FD80954B
:10025000982F0E94E906A20191010E9475070E9451
:10026000B6063B014C016C1A7D0A70922F01609218
:100270002E010027F7FC0095102FC801B7010E943E
:10028000E906A20191010E9475070E94B6066C1B47
:100290007D0B7093310160933001CC24B7FCC09486
:1002A000DC2CC601B5010E94E906A20191010E9461
:1002B00075070E94B6066C1B7D0B7093330160932B
:1002C000320107EC11E0C801B3014AE050E00E949E
:1002D0008406C8016CE20E949C0560913001709117
:1002E0003101C8014AE050E00E948406C8016CE276
:1002F0000E949C056091320170913301C8014AE06F
:1003000050E00E94970662E070E080E090E00E947A
:100310002B02DF91CF911F910F91FF90EF90DF9013
:10032000CF90BF90AF909F908F907F906F905F9095
:100330004F903F902F9008950E94CC018CE00E9436
:10034000C701409106015091070160910801709129
:10035000090187EC91E00E94DC038091000161E0DB
:100360000E94BF028091000161E00E94FE02809124
:1003700003016BE00E94C000809105016FE00E94C4
:10038000C0008091020168E00E94C00008959CB501
:10039000937F982B9CBD08958AE061E00E94FE0245
:1003A0008AE061E00E94BF028CB580618CBD8CB593
:1003B00080648CBD8DE061E00E94BF028BE061E053
:1003C0000E94BF0208951F920F920FB60F92112440
:1003D0002F933F938F939F93AF93BF9380913A0155
:1003E00090913B01A0913C01B0913D0130913E01C3
:1003F0000196A11DB11D232F2D5F2D3720F02D5704
:100400000196A11DB11D20933E0180933A01909366
:100410003B01A0933C01B0933D0180913601909146
:100420003701A0913801B09139010196A11DB11D8C
:100430008093360190933701A0933801B09339012E
:10044000BF91AF919F918F913F912F910F900FBED0
:100450000F901F9018959B01AC017FB7F894809185
:10046000360190913701A0913801B091390166B5FC
:10047000A89B05C06F3F19F00196A11DB11D7FBF5C
:10048000BA2FA92F982F8827860F911DA11DB11D66
:1004900062E0880F991FAA1FBB1F6A95D1F7BC01A4
:1004A0002DC0FFB7F8948091360190913701A0914B
:1004B0003801B0913901E6B5A89B05C0EF3F19F0AE
:1004C0000196A11DB11DFFBFBA2FA92F982F882714
:1004D0008E0F911DA11DB11DE2E0880F991FAA1F6B
:1004E000BB1FEA95D1F7861B970B885E9340C8F235
:1004F000215030404040504068517C4F211531051B
:100500004105510571F60895789484B5826084BDE3
:1005100084B5816084BD85B5826085BD85B5816007
:1005200085BDEEE6F0E0808181608083E1E8F0E067
:100530001082808182608083808181608083E0E896
:10054000F0E0808181608083E1EBF0E08081846075
:100550008083E0EBF0E0808181608083EAE7F0E077
:1005600080818460808380818260808380818160DB
:1005700080838081806880831092C1000895CF932A
:10058000DF93482F50E0CA0186569F4FFC013491FB
:100590004A575F4FFA018491882369F190E0880FF0
:1005A000991FFC01E859FF4FA591B491FC01EE5849
:1005B000FF4FC591D491662351F42FB7F8948C91D5
:1005C000932F909589238C93888189230BC0623067
:1005D00061F42FB7F8948C91932F909589238C9385
:1005E0008881832B88832FBF06C09FB7F8948C9196
:1005F000832B8C939FBFDF91CF910895482F50E0BC
:10060000CA0182559F4FFC012491CA0186569F4F13
:10061000FC0194914A575F4FFA013491332309F456
:1006200040C0222351F1233071F0243028F42130CE
:10063000A1F0223011F514C02630B1F02730C1F0FE
:100640002430D9F404C0809180008F7703C080915A
:1006500080008F7D8093800010C084B58F7702C0AA
:1006600084B58F7D84BD09C08091B0008F7703C0B1
:100670008091B0008F7D8093B000E32FF0E0EE0F0B
:10068000FF1FEE58FF4FA591B4912FB7F894662342
:1006900021F48C919095892302C08C91892B8C93A5
:1006A0002FBF089508951F920F920FB60F92112435
:1006B0002F933F934F938F939F93EF93FF9380914B
:1006C000C00082FD1DC04091C60020917F01309185
:1006D00080012F5F3F4F2F73307080918101909187
:1006E00082012817390771F0E0917F01F0918001B4
:1006F000E15CFE4F40833093800120937F0102C074
:100700008091C600FF91EF919F918F914F913F9102
:100710002F910F900FBE0F901F901895E091D3016D
:10072000F091D401E05CFF4F819191912081318162
:10073000821B930B8F739070892B11F00E945203D0
:1007400008951F920F920FB60F9211242F933F938B
:100750008F939F93EF93FF932091C3013091C40136
:100760008091C5019091C6012817390731F4809115
:10077000C1008F7D8093C10014C0E091C501F0914C
:10078000C601ED57FE4F20818091C5019091C601B1
:1007900001968F7390709093C6018093C50120934A
:1007A000C600FF91EF919F918F913F912F910F90F4
:1007B0000FBE0F901F901895AF92BF92DF92EF92ED
:1007C000FF920F931F93CF93DF93EC017A018B017C
:1007D000DD24403081EE580780E0680780E078072C
:1007E00011F0DD24D39491E0A92EB12CEC89FD8980
:1007F000DD2069F0C50108A002C0880F991F0A9486
:10080000E2F7808360E079E08DE390E005C010823C
:1008100060E874E88EE190E0A80197010E94F70774
:100820002150304040405040569547953795279588
:1008300080E12030380720F0DD2011F0DD24D6CF14
:10084000E889F9893083EA89FB89208319A2EE8936
:10085000FF89408121E030E0C9010C8C02C0880F83
:10086000991F0A94E2F7482B4083EE89FF89408163
:10087000C9010D8C02C0880F991F0A94E2F7482B1A
:100880004083EE89FF894081C9010E8C02C0880F28
:10089000991F0A94E2F7482B4083EE89FF898081F3
:1008A0000F8C02C0220F331F0A94E2F720952823F1
:1008B0002083DF91CF911F910F91FF90EF90DF90F8
:1008C000BF90AF900895DC011C96ED91FC911D97AF
:1008D000E05CFF4F2191319180819181281B390B80
:1008E0002F733070C9010895DC011C96ED91FC91C5
:1008F0001D97E05CFF4F20813181E054F040DF0123
:10090000AE5BBF4F8D919C9111972817390719F451
:100910002FEF3FEF07C08D919C91E80FF91F808169
:10092000282F30E0C9010895DC011C96ED91FC915F
:100930001D97E05CFF4F20813181E054F040DF01E2
:10094000AE5BBF4F8D919C9111972817390719F411
:100950002FEF3FEF10C08D919C911197E80FF91F79
:1009600020818D919C91119701968F7390701196B3
:100970009C938E9330E0C9010895DC0191968C918F
:100980009197882339F05496ED91FC915597808189
:1009900086FFF9CF91961C920895CF93DF93EC01D7
:1009A000EE85FF85E05CFF4F20813181E054F0400F
:1009B0002F5F3F4F2F733070DF01AE5BBF4F8D91C4
:1009C0009C91119728173907D1F3E05CFF4F808184
:1009D0009181E054F040E80FF91F6083EE85FF85B8
:1009E000E05CFF4F31832083EE89FF89208181E025
:1009F00090E00F8C02C0880F991F0A94E2F7282B11
:100A0000208381E089A3EC89FD89808180648083D3
:100A100081E090E0DF91CF9108951092CA01109289
:100A2000C90188EE93E0A0E0B0E08093CB01909301
:100A3000CC01A093CD01B093CE0182E191E09093DF
:100A4000C8018093C7018FE391E09093D401809314
:100A5000D30183E891E09093D6018093D50185EC92
:100A600090E09093D8018093D70184EC90E090932C
:100A7000DA018093D90180EC90E09093DC018093BF
:100A8000DB0181EC90E09093DE018093DD0182EC4C
:100A900090E09093E0018093DF0186EC90E09093EA
:100AA000E2018093E10184E08093E30183E080939D
:100AB000E40187E08093E50185E08093E60181E031
:100AC0008093E7010895CF93DF930E9484020E94F0
:100AD0009C01CEE8D3E00E94DB002097E1F30E9466
:100AE0008E03F9CFCF92DF92EF92FF920F931F9375
:100AF000CF93DF937C016B018A01C0E0D0E00FC08F
:100B0000D6016D916D01D701ED91FC910190F081BD
:100B1000E02DC7010995C80FD91F015010400115DC
:100B2000110571F7CE01DF91CF911F910F91FF90C9
:100B3000EF90DF90CF900895DC01ED91FC91019052
:100B4000F081E02D09950895EF92FF920F931F9386
:100B50008C01DC01ED91FC910190F081E02D6DE0C4
:100B600009957C01D801ED91FC910190F081E02D77
:100B7000C8016AE009959C012E0D3F1DC9011F9116
:100B80000F91FF90EF900895CF93DF93EC016115E3
:100B9000710519F420E030E00FC0DB010D9000205A
:100BA000E9F71197A61BB70BE881F9810280F38161
:100BB000E02DAD0109959C01C901DF91CF91089508
:100BC0004F925F927F928F929F92AF92BF92CF92FD
:100BD000DF92EF92FF920F931F93DF93CF93CDB7E6
:100BE000DEB7A1970FB6F894DEBF0FBECDBF2C01C4
:100BF000742ECB01223008F42AE019A231E2C32E70
:100C0000D12CCC0EDD1E822E9924AA24BB24672D64
:100C1000752FA50194010E94F70779018A01C80187
:100C2000B701A50194010E94D807472D461B0894DF
:100C3000C108D1084A3014F4405D01C0495CF60196
:100C40004083E114F1040105110521F07E2C5F2D94
:100C5000C801DDCFC201B6010E94C405A1960FB63E
:100C6000F894DEBF0FBECDBFCF91DF911F910F91E2
:100C7000FF90EF90DF90CF90BF90AF909F908F90BC
:100C80007F905F904F900895CF92DF92EF92FF9206
:100C90000F931F93CF93DF93EC016A017B01211522
:100CA000310541F4E881F9810190F081E02D642F54
:100CB00009951FC02A303105D1F477FF17C0E881AC
:100CC000F9810190F081E02D6DE209958C014427B6
:100CD0005527BA014C195D096E097F09CE012AE03A
:100CE0000E94E0059801280F391F04C02AE00E94E5
:100CF000E0059C01C901DF91CF911F910F91FF90F9
:100D0000EF90DF90CF900895EF92FF920F931F9393
:100D10007B019A010027F7FC0095102FB801A7016D
:100D20000E9444061F910F91FF90EF900895CF927B
:100D3000DF92EF92FF920F931F936C017B019A0158
:100D40000027F7FC0095102FB801A7010E94440668
:100D50008C01C6010E94A405080F191FC8011F912C
:100D60000F91FF90EF90DF90CF90089504D068949A
:100D7000B111B5C0089598D088F09F5790F0B92F61
:100D80009927B751A0F0D1F0660F771F881F991FE0
:100D90001AF0BA95C9F712C0B13081F09FD0B1E016
:100DA00008959CC0672F782F8827B85F39F0B93F26
:100DB000CCF3869577956795B395D9F73EF49095E2
:100DC0008095709561957F4F8F4F9F4F0895E89460
:100DD00009C097FB3EF490958095709561957F4F83
:100DE0008F4F9F4F9923A9F0F92F96E9BB27939531
:100DF000F695879577956795B795F111F8CFFAF441
:100E0000BB0F11F460FF1BC06F5F7F4F8F4F9F4F71
:100E100016C0882311F096E911C0772321F09EE8CF
:100E2000872F762F05C0662371F096E8862F70E035
:100E300060E02AF09A95660F771F881FDAF7880F0F
:100E40009695879597F9089597F99F6780E870E0E0
:100E500060E008959FEF80EC089500240A94161630
:100E6000170618060906089500240A941216130698
:100E7000140605060895092E0394000C11F4882326
:100E800052F0BB0F40F4BF2B11F460FF04C06F5F42
:100E90007F4F8F4F9F4F089557FD9058440F551F18
:100EA00059F05F3F71F04795880F97FB991F61F0EC
:100EB0009F3F79F087950895121613061406551F63
:100EC000F2CF4695F1DF08C0161617061806991FCF
:100ED000F1CF86957105610508940895E894BB27C4
:100EE00066277727CB0197F908950BD0C4CFB5DFDC
:100EF00028F0BADF18F0952309F0A6CFABCF112464
:100F0000EECFCADFA0F3959FD1F3950F50E0551FA8
:100F1000629FF001729FBB27F00DB11D639FAA274E
:100F2000F00DB11DAA1F649F6627B00DA11D661F9D
:100F3000829F2227B00DA11D621F739FB00DA11DBE
:100F4000621F839FA00D611D221F749F3327A00D78
:100F5000611D231F849F600D211D822F762F6A2F14
:100F600011249F5750408AF0E1F088234AF0EE0F99
:100F7000FF1FBB1F661F771F881F91505040A9F7A6
:100F80009E3F510570F060CFAACF5F3FECF3983ED3
:100F9000DCF3869577956795B795F795E7959F5F0D
:100FA000C1F7FE2B880F911D9695879597F90895A7
:100FB000629FD001739FF001829FE00DF11D649F3D
:100FC000E00DF11D929FF00D839FF00D749FF00DC9
:100FD000659FF00D9927729FB00DE11DF91F639F6A
:100FE000B00DE11DF91FBD01CF0111240895A1E24B
:100FF0001A2EAA1BBB1BFD010DC0AA1FBB1FEE1F93
:10100000FF1FA217B307E407F50720F0A21BB30BDD
:10101000E40BF50B661F771F881F991F1A9469F759
:1010200060957095809590959B01AC01BD01CF01B5
:101030000895EE0FFF1F0590F491E02D0994F894A8
:02104000FFCFE0
:101042000A002D31322C00C2010000007A4000005B
:0E1052000000CD047205630494047404BD0410
:00000001FF
