:100000000C9462000C948A000C948A000C948A0070
:100010000C948A000C948A000C948A000C948A0038
:100020000C948A000C948A000C948A000C948A0028
:100030000C948A000C948A000C948A000C948A0018
:100040000C9461020C948A000C949E030C94EC03B3
:100050000C948A000C948A000C948A000C948A00F8
:100060000C948A000C948A000000000024002700F1
:100070002A0000000000250028002B0000000000DE
:1000800023002600290004040404040404040202DA
:100090000202020203030303030301020408102007
:1000A0004080010204081020010204081020000012
:1000B0000007000201000003040600000000000029
:1000C0000000580511241FBECFEFD8E0DEBFCDBF22
:1000D00011E0A0E0B1E0E8EDF0E102C005900D9282
:1000E000A431B107D9F711E0A4E1B1E001C01D923C
:1000F000A13FB107E1F710E0C4ECD0E004C02297C3
:10010000FE010E946608C23CD107C9F70E94AE05F5
:100110000C946A080C940000EF92FF921F93CF9307
:10012000DF93EB017A01182F10686230710514F02B
:10013000182F106C8AE060E00E9449031EBD0DB4C8
:1001400007FEFDCF8EB520E030E00BC01EBC0DB425
:1001500007FEFDCF8EB5F701E20FF31F80832F5FFF
:100160003F4F2C173D0794F38AE061E00E9449035A
:10017000DF91CF911F91FF90EF9008950F931F9300
:10018000182F062F8AE060E00E9449031EBD0DB4BF
:1001900007FEFDCF8EB50EBD0DB407FEFDCF8EB5AB
:1001A0008AE061E00E9449031F910F9108954F92E8
:1001B0005F926F927F928F929F92AF92BF92CF92F7
:1001C000DF92EF92FF920F931F93CF93DF9300E1A3
:1001D00010E082E366E070E04AE151E00E948C00AA
:1001E000C0913001D091310180911A01C80FD11D09
:1001F000D0933101C093300160913201709133018D
:1002000080911B01680F711D70933301609332015F
:10021000A0913401B091350180911C01A80FB11D4E
:10022000B0933501A09334014091360150913701CC
:1002300080911D01480F511D5093370140933601A5
:10024000E0913801F091390180911E01E80FF11D14
:10025000F0933901E093380120913A0130913B014C
:1002600080911F01280F311D30933B0120933A01EB
:100270000150104009F0ADCF762F66276C2B7D2BF7
:10028000769567957695679570932501609324011F
:10029000F42EEE24EA2AFB2AF694E794F694E794E7
:1002A000F0922701E0922601B22EAA24AE2ABF2A9C
:1002B000B694A794B694A794B0922901A09228016D
:1002C0006090000170900101809002019090030104
:1002D00040903C0150903D01882777FD8095982FF4
:1002E0000E943407A40193010E94C0070E940107E5
:1002F0006419750970932B0160932A010027F7FC9C
:100300000095102FC801B7010E943407A401930182
:100310000E94C0070E9401076419750970932D019E
:1003200060932C01CC24B7FCC094DC2CC601B50131
:100330000E943407A40193010E94C0070E94010794
:100340006419750970932F0160932E011092310189
:100350001092300110923301109232011092350147
:100360001092340110923701109236011092390127
:100370001092380110923B0110923A010E94A9029A
:100380009B01709315016093140180911601909167
:100390001701281B390B3093190120931801609124
:1003A0002A0170912B018FEC91E04AE050E00E940D
:1003B000CF068FEC91E06CE20E94E70560912C0182
:1003C00070912D018FEC91E04AE050E00E94CF0641
:1003D0008FEC91E06CE20E94E70560912E01709134
:1003E0002F018FEC91E04AE050E00E94CF068FECA5
:1003F00091E06CE20E94E70560911801709119018B
:100400008FEC91E04AE050E00E94E20680911401F6
:10041000909115019093170180931601DF91CF9170
:100420001F910F91FF90EF90DF90CF90BF90AF9012
:100430009F908F907F906F905F904F9008950E9453
:100440004A028CE00E9445028FEC91E040E052ECC1
:1004500061E070E00E9427048AE061E00E940A03E4
:100460008AE061E00E94490381E36BE00E94BE00E4
:100470008CE26FE00E94BE008DE268E00E94BE0048
:1004800088E360E10E94BE0008959CB5937F982B9D
:100490009CBD08958AE061E00E9449038AE061E022
:1004A0000E940A038CB580618CBD8CB580648CBDC4
:1004B0008DE061E00E940A038BE061E00E940A0384
:1004C00008951F920F920FB60F9211242F933F930E
:1004D0008F939F93AF93BF9380914201909143017B
:1004E000A0914401B0914501309146010196A11DB2
:1004F000B11D232F2D5F2D3720F02D570196A11D03
:10050000B11D209346018093420190934301A09333
:100510004401B093450180913E0190913F01A0912B
:100520004001B09141010196A11DB11D80933E0192
:1005300090933F01A0934001B0934101BF91AF91CF
:100540009F918F913F912F910F900FBE0F901F9011
:1005500018959FB7F89420913E0130913F0140914A
:1005600040015091410186B5A89B06C08F3F21F004
:100570002F5F3F4F4F4F5F4F9FBF542F432F322F5F
:100580002227280F311D411D511D82E0220F331FEC
:10059000441F551F8A95D1F7B901CA01089578946F
:1005A00084B5826084BD84B5816084BD85B5826078
:1005B00085BD85B5816085BDEEE6F0E08081816016
:1005C0008083E1E8F0E01082808182608083808116
:1005D00081608083E0E8F0E0808181608083E1EBEE
:1005E000F0E0808184608083E0EBF0E080818160D6
:1005F0008083EAE7F0E0808184608083808182608C
:100600008083808181608083808180688083109274
:10061000C1000895CF93DF93482F50E0CA0186565A
:100620009F4FFC0134914A575F4FFA018491882310
:1006300069F190E0880F991FFC01E859FF4FA591DF
:10064000B491FC01EE58FF4FC591D491662351F44B
:100650002FB7F8948C91932F909589238C93888150
:1006600089230BC0623061F42FB7F8948C91932FDB
:10067000909589238C938881832B88832FBF06C014
:100680009FB7F8948C91832B8C939FBFDF91CF9170
:100690000895482F50E0CA0182559F4FFC012491D4
:1006A000CA0186569F4FFC0194914A575F4FFA0149
:1006B0003491332309F440C0222351F1233071F0E7
:1006C000243028F42130A1F0223011F514C0263056
:1006D000B1F02730C1F02430D9F404C080918000FB
:1006E0008F7703C0809180008F7D8093800010C041
:1006F00084B58F7702C084B58F7D84BD09C0809199
:10070000B0008F7703C08091B0008F7D8093B000E0
:10071000E32FF0E0EE0FFF1FEE58FF4FA591B491CD
:100720002FB7F894662321F48C919095892302C009
:100730008C91892B8C932FBF089508951F920F924F
:100740000FB60F9211242F933F934F938F939F9344
:10075000EF93FF938091C00082FD1DC04091C600C1
:1007600020918701309188012F5F3F4F2F733070A8
:100770008091890190918A012817390771F0E091E1
:100780008701F0918801E95BFE4F40833093880137
:100790002093870102C08091C600FF91EF919F9145
:1007A0008F914F913F912F910F900FBE0F901F90FF
:1007B0001895E091DB01F091DC01E05CFF4F819145
:1007C000919120813181821B930B8F739070892BC3
:1007D00011F00E949D0308951F920F920FB60F9281
:1007E00011242F933F938F939F93EF93FF93209127
:1007F000CB013091CC018091CD019091CE01281791
:10080000390731F48091C1008F7D8093C10014C0FD
:10081000E091CD01F091CE01E557FE4F208180910E
:10082000CD019091CE0101968F7390709093CE017F
:100830008093CD012093C600FF91EF919F918F91FE
:100840003F912F910F900FBE0F901F901895AF9270
:10085000BF92DF92EF92FF920F931F93CF93DF939C
:10086000EC017A018B01DD24403081EE580780E0F5
:10087000680780E0780711F0DD24D39491E0A92E79
:10088000B12CEC89FD89DD2069F0C50108A002C00A
:10089000880F991F0A94E2F7808360E079E08DE386
:1008A00090E005C0108260E874E88EE190E0A80155
:1008B00097010E94420821503040404050405695D8
:1008C00047953795279580E12030380720F0DD20C7
:1008D00011F0DD24D6CFE889F9893083EA89FB89D4
:1008E000208319A2EE89FF89408121E030E0C9010F
:1008F0000C8C02C0880F991F0A94E2F7482B4083A2
:10090000EE89FF894081C9010D8C02C0880F991FB3
:100910000A94E2F7482B4083EE89FF894081C901A0
:100920000E8C02C0880F991F0A94E2F7482B40836F
:10093000EE89FF8980810F8C02C0220F331F0A9439
:10094000E2F7209528232083DF91CF911F910F910B
:10095000FF90EF90DF90BF90AF900895DC011C9660
:10096000ED91FC911D97E05CFF4F219131918081C9
:100970009181281B390B2F733070C9010895DC0158
:100980001C96ED91FC911D97E05CFF4F2081318119
:10099000E054F040DF01AE5BBF4F8D919C91119709
:1009A0002817390719F42FEF3FEF07C08D919C915D
:1009B000E80FF91F8081282F30E0C9010895DC017C
:1009C0001C96ED91FC911D97E05CFF4F20813181D9
:1009D000E054F040DF01AE5BBF4F8D919C911197C9
:1009E0002817390719F42FEF3FEF10C08D919C9114
:1009F0001197E80FF91F20818D919C911197019615
:100A00008F73907011969C938E9330E0C901089576
:100A1000DC0191968C919197882339F05496ED9151
:100A2000FC915597808186FFF9CF91961C9208958D
:100A3000CF93DF93EC01EE85FF85E05CFF4F2081D3
:100A40003181E054F0402F5F3F4F2F733070DF0152
:100A5000AE5BBF4F8D919C91119728173907D1F349
:100A6000E05CFF4F80819181E054F040E80FF91F76
:100A70006083EE85FF85E05CFF4F31832083EE8944
:100A8000FF89208181E090E00F8C02C0880F991FC0
:100A90000A94E2F7282B208381E089A3EC89FD8961
:100AA00080818064808381E090E0DF91CF91089520
:100AB0001092D2011092D10188EE93E0A0E0B0E054
:100AC0008093D3019093D401A093D501B093D60124
:100AD00088E091E09093D0018093CF0187E491E08A
:100AE0009093DC018093DB018BE891E09093DE0131
:100AF0008093DD0185EC90E09093E0018093DF012D
:100B000084EC90E09093E2018093E10180EC90E02E
:100B10009093E4018093E30181EC90E09093E601EF
:100B20008093E50182EC90E09093E8018093E701E7
:100B300086EC90E09093EA018093E90184E0809351
:100B4000EB0183E08093EC0187E08093ED0185E089
:100B50008093EE0181E08093EF010895CF93DF93BE
:100B60000E94CF020E941F02C9EDD3E00E94D7006D
:100B70002097E1F30E94D903F9CFCF92DF92EF9251
:100B8000FF920F931F93CF93DF937C016B018A0138
:100B9000C0E0D0E00FC0D6016D916D01D701ED919D
:100BA000FC910190F081E02DC7010995C80FD91F74
:100BB000015010400115110571F7CE01DF91CF9161
:100BC0001F910F91FF90EF90DF90CF900895DC017F
:100BD000ED91FC910190F081E02D09950895EF923F
:100BE000FF920F931F938C01DC01ED91FC9101901A
:100BF000F081E02D6DE009957C01D801ED91FC912B
:100C00000190F081E02DC8016AE009959C012E0D4C
:100C10003F1DC9011F910F91FF90EF900895CF9351
:100C2000DF93EC016115710519F420E030E00FC08D
:100C3000DB010D900020E9F71197A61BB70BE881A7
:100C4000F9810280F381E02DAD0109959C01C90174
:100C5000DF91CF9108954F925F927F928F929F92F2
:100C6000AF92BF92CF92DF92EF92FF920F931F93BA
:100C7000DF93CF93CDB7DEB7A1970FB6F894DEBF61
:100C80000FBECDBF2C01742ECB01223008F42AE018
:100C900019A231E2C32ED12CCC0EDD1E822E992456
:100CA000AA24BB24672D752FA50194010E94420838
:100CB00079018A01C801B701A50194010E942308A6
:100CC000472D461B0894C108D1084A3014F4405DF2
:100CD00001C0495CF6014083E114F10401051105EE
:100CE00021F07E2C5F2DC801DDCFC201B6010E942C
:100CF0000F06A1960FB6F894DEBF0FBECDBFCF9101
:100D0000DF911F910F91FF90EF90DF90CF90BF90F8
:100D1000AF909F908F907F905F904F900895CF926B
:100D2000DF92EF92FF920F931F93CF93DF93EC012B
:100D30006A017B012115310541F4E881F9810190B7
:100D4000F081E02D642F09951FC02A303105D1F4C0
:100D500077FF17C0E881F9810190F081E02D6DE205
:100D600009958C0144275527BA014C195D096E0974
:100D70007F09CE012AE00E942B069801280F391F17
:100D800004C02AE00E942B069C01C901DF91CF918B
:100D90001F910F91FF90EF90DF90CF900895EF9209
:100DA000FF920F931F937B019A010027F7FC009598
:100DB000102FB801A7010E948F061F910F91FF907D
:100DC000EF900895CF92DF92EF92FF920F931F93CF
:100DD0006C017B019A010027F7FC0095102FB801E8
:100DE000A7010E948F068C01C6010E94EF05080F23
:100DF000191FC8011F910F91FF90EF90DF90CF90C6
:100E0000089504D06894B111B5C0089598D088F0C1
:100E10009F5790F0B92F9927B751A0F0D1F0660FE6
:100E2000771F881F991F1AF0BA95C9F712C0B13001
:100E300081F09FD0B1E008959CC0672F782F88275C
:100E4000B85F39F0B93FCCF3869577956795B39540
:100E5000D9F73EF490958095709561957F4F8F4FAF
:100E60009F4F0895E89409C097FB3EF490958095B4
:100E7000709561957F4F8F4F9F4F9923A9F0F92F60
:100E800096E9BB279395F695879577956795B795DE
:100E9000F111F8CFFAF4BB0F11F460FF1BC06F5FC4
:100EA0007F4F8F4F9F4F16C0882311F096E911C0D6
:100EB000772321F09EE8872F762F05C0662371F0F7
:100EC00096E8862F70E060E02AF09A95660F771F0B
:100ED000881FDAF7880F9695879597F9089597F9FF
:100EE0009F6780E870E060E008959FEF80EC0895D0
:100EF00000240A94161617061806090608950024F9
:100F00000A9412161306140605060895092E039472
:100F1000000C11F4882352F0BB0F40F4BF2B11F4E6
:100F200060FF04C06F5F7F4F8F4F9F4F089557FD45
:100F30009058440F551F59F05F3F71F04795880F47
:100F400097FB991F61F09F3F79F0879508951216DE
:100F500013061406551FF2CF4695F1DF08C016168A
:100F600017061806991FF1CF86957105610508943B
:100F70000895E894BB2766277727CB0197F9089552
:100F80000BD0C4CFB5DF28F0BADF18F0952309F0F5
:100F9000A6CFABCF1124EECFCADFA0F3959FD1F33C
:100FA000950F50E0551F629FF001729FBB27F00D17
:100FB000B11D639FAA27F00DB11DAA1F649F66276C
:100FC000B00DA11D661F829F2227B00DA11D621FBB
:100FD000739FB00DA11D621F839FA00D611D221F75
:100FE000749F3327A00D611D231F849F600D211D59
:100FF000822F762F6A2F11249F5750408AF0E1F0FC
:1010000088234AF0EE0FFF1FBB1F661F771F881F44
:1010100091505040A9F79E3F510570F060CFAACF84
:101020005F3FECF3983EDCF3869577956795B7952F
:10103000F795E7959F5FC1F7FE2B880F911D969559
:10104000879597F90895629FD001739FF001829F61
:10105000E00DF11D649FE00DF11D929FF00D839F47
:10106000F00D749FF00D659FF00D9927729FB00DE4
:10107000E11DF91F639FB00DE11DF91FBD01CF01F7
:1010800011240895A1E21A2EAA1BBB1BFD010DC05D
:10109000AA1FBB1FEE1FFF1FA217B307E407F50728
:1010A00020F0A21BB30BE40BF50B661F771F881F04
:1010B000991F1A9469F760957095809590959B019A
:1010C000AC01BD01CF010895EE0FFF1F0590F49113
:0810D000E02D0994F894FFCF14
:1010D80000007A3F000000001805BD05AE04DF04DB
:0410E800BF04080534
:00000001FF
