:100000000C9464000C948C000C948C000C948C0068
:100010000C948C000C948C000C948C000C948C0030
:100020000C948C000C948C000C948C000C948C0020
:100030000C948C000C948C000C948C000C948C0010
:100040000C9449030C948C000C94C3040C9411057B
:100050000C948C000C948C000C948C000C948C00F0
:100060000C948C000C948C000000000024002700ED
:100070002A0000000000250028002B0000000000DE
:1000800023002600290004040404040404040202DA
:100090000202020203030303030301020408102007
:1000A0004080010204081020010204081020000012
:1000B0000007000201000003040600000000000029
:1000C0000000F8007D06F10011241FBECFEFD8E03C
:1000D000DEBFCDBF11E0A0E0B1E0E2E7F8E102C091
:1000E00005900D92A239B107D9F712E0A2E9B1E06B
:1000F00001C01D92A535B107E1F710E0C6ECD0E0D4
:1001000004C02297FE010E94200CC23CD107C9F70F
:100110000E94D3060C942C0C0C9400001F93FC013D
:1001200099278827BC01E89411911032E9F319301E
:1001300010F01E30C8F31B3251F01D3249F46894A0
:1001400006C00E94C500610F711D811D911D119196
:1001500010531A30B0F33EF49095809570956195E8
:100160007F4F8F4F9F4F1F910895FB01DC0102C00D
:1001700001900D9241505040D8F70895FB01DC01E9
:1001800001900D920020E1F70895592F482F372F45
:10019000262F660F771F881F991F660F771F881FEE
:1001A000991F620F731F841F951F660F771F881F8B
:1001B000991F08958130910551F46F5F7F4F81F44D
:1001C00082E991E060E071E00E943B090895892B8B
:1001D00039F46F5F7F4F21F482E991E00E94C109F9
:1001E000089580E090E06FEF7FEF0E94DA000895BD
:1001F00081E090E06FEF7FEF0E94DA00089588239E
:1002000019F08DE060E002C08DE061E00E946E04B4
:1002100061E070E080E090E00E94910308958430F6
:10022000910501F18530910534F48130910561F03B
:10023000029749F50CC080319105F1F080329105AB
:1002400011F1089701F511C085E060E002C085E07A
:1002500061E00E946E0486E060E00E946E0487E028
:1002600060E01BC085E060E002C085E061E00E94C4
:100270006E0486E061E0F1CF85E060E00E946E04EC
:1002800086E060E006C085E061E00E946E0486E0E2
:1002900061E00E946E0487E061E00E946E040895B0
:1002A0000F931F9385E061E00E942F0486E061E0D8
:1002B0000E942F0487E061E00E942F0489E061E042
:1002C0000E942F0488E061E00E942F048DE062E02C
:1002D0000E942F040EE212E04091770150917801C4
:1002E0006091790170917A01C8010E944C05C801A2
:1002F00061E071E00E944508809173019091740162
:100300000E940F011F910F910895CF92DF92EF92FB
:10031000FF921F936B017C01142F0894C11CD11C08
:10032000E11CF11C81E00E94FF00112319F088E01C
:1003300061E002C088E060E00E946E0461E070E06D
:1003400080E090E00E94910389E061E00E946E04E9
:1003500080E991E00E94EA0389E060E00E946E0477
:1003600088EC90E00E94EA030894C108D108E108F3
:10037000F108C114D104E104F10431F780E00E94D6
:10038000FF0081E01F91FF90EF90DF90CF900895E4
:10039000AB01BC018EE292E02AE030E00E940F083F
:1003A00080917301909174010E940F01609173011B
:1003B00070917401809175019091760120E43FE184
:1003C00040E050E00E94DD0B41E00E948501609119
:1003D000730170917401809175019091760120E410
:1003E0003FE140E050E00E94DD0B40E00E948501CB
:1003F0000895CF92DF92EF92FF920F931F936B01BC
:100400007C010EE212E0C8016DE271E00E94420838
:10041000C801B701A6012AE030E00E94BB07C7016E
:10042000B60140E00E9485011F910F91FF90EF906F
:10043000DF90CF900895CF92DF92EF92FF920F93CB
:100440001F936B017C010EE212E0C8016DE371E0C5
:100450000E944208C801B701A6012AE030E00E94CC
:10046000BB07C701B60141E00E9485011F910F91B2
:10047000FF90EF90DF90CF900895EF92FF920F934F
:100480001F93DF93CF93CDB7DEB727970FB6F894BE
:10049000DEBF0FBECDBF8EE292E00E94D3051816DC
:1004A0001906ECF482E991E060E071E00E945509E0
:1004B0000FC08EE292E00E940406682F82E991E06C
:1004C0000E94F5086AE070E080E090E00E949103ED
:1004D0008EE292E00E94D3051816190654F382E9C1
:1004E00091E00E947E088E010F5F1F4FC80162E9F4
:1004F00071E041E050E00E94B509C8010E946D081A
:100500006093990170939A0180939B0190939C0151
:10051000C8010E94C10982E991E060E070E00E9498
:100520005808FC01E081E63469F0E73424F4E23451
:1005300009F09CC030C0ED3409F482C0E43509F004
:1005400095C052C08EE292E06EE471E00E944208D3
:100550004091990150919A0160919B0170919C0189
:100560008EE292E02AE030E00E940F08609199014B
:1005700070919A0180919B0190919C01209173014F
:100580003091740140917501509176010E94DD0B0C
:100590000E94F90165C08EE292E06AE571E00E9476
:1005A00042084091990150919A0160919B0170918C
:1005B0009C018EE292E02AE030E00E940F086091F8
:1005C000990170919A0180919B0190919C012091D9
:1005D00073013091740140917501509176010E9430
:1005E000DD0B0E941B023CC08EE292E065E671E0EA
:1005F0000E944508EE24FF2487010CC08EE292E0A1
:100600004AE050E00E94230860ED77E080E090E04F
:100610000E94C801B701A80197010894E11CF11CD0
:10062000011D111D8091990190919A01A0919B014A
:10063000B0919C0182179307A407B507FCF610C080
:100640008091990190919A01A0919B01B0919C0198
:100650008093730190937401A0937501B093760118
:100660008EE292E068E571E00E94450882E991E03F
:1006700060E071E00E94550927960FB6F894DEBF3E
:100680000FBECDBFCF91DF911F910F91FF90EF90E3
:1006900008951F920F920FB60F9211242F933F933C
:1006A0008F939F93AF93BF938091A1019091A201EB
:1006B000A091A301B091A4013091A5010196A11DC3
:1006C000B11D232F2D5F2D3720F02D570196A11D31
:1006D000B11D2093A5018093A1019093A201A09345
:1006E000A301B093A40180919D0190919E01A091DE
:1006F0009F01B091A0010196A11DB11D80939D01A4
:1007000090939E01A0939F01B093A001BF91AF91E0
:100710009F918F913F912F910F900FBE0F901F903F
:1007200018959B01AC017FB7F89480919D01909141
:100730009E01A0919F01B091A00166B5A89B05C044
:100740006F3F19F00196A11DB11D7FBFBA2FA92FD0
:10075000982F8827860F911DA11DB11D62E0880F7B
:10076000991FAA1FBB1F6A95D1F7BC012DC0FFB707
:10077000F89480919D0190919E01A0919F01B0916C
:10078000A001E6B5A89B05C0EF3F19F00196A11D99
:10079000B11DFFBFBA2FA92F982F88278E0F911D4B
:1007A000A11DB11DE2E0880F991FAA1FBB1FEA958A
:1007B000D1F7861B970B885E9340C8F221503040DA
:1007C0004040504068517C4F21153105410551058D
:1007D00071F60895019739F0880F991F880F991FB6
:1007E00002970197F1F70895789484B5826084BDEB
:1007F00084B5816084BD85B5826085BD85B5816025
:1008000085BDEEE6F0E0808181608083E1E8F0E084
:100810001082808182608083808181608083E0E8B3
:10082000F0E0808181608083E1EBF0E08081846092
:100830008083E0EBF0E0808181608083EAE7F0E094
:1008400080818460808380818260808380818160F8
:1008500080838081806880831092C1000895CF9347
:10086000DF93482F50E0CA0186569F4FFC01349118
:100870004A575F4FFA018491882369F190E0880F0D
:10088000991FFC01E859FF4FA591B491FC01EE5866
:10089000FF4FC591D491662351F42FB7F8948C91F2
:1008A000932F909589238C93888189230BC0623084
:1008B00061F42FB7F8948C91932F909589238C93A2
:1008C0008881832B88832FBF06C09FB7F8948C91B3
:1008D000832B8C939FBFDF91CF910895482F50E0D9
:1008E000CA0182559F4FFC012491CA0186569F4F31
:1008F000FC0194914A575F4FFA013491332309F474
:1009000040C0222351F1233071F0243028F42130EB
:10091000A1F0223011F514C02630B1F02730C1F01B
:100920002430D9F404C0809180008F7703C0809177
:1009300080008F7D8093800010C084B58F7702C0C7
:1009400084B58F7D84BD09C08091B0008F7703C0CE
:100950008091B0008F7D8093B000E32FF0E0EE0F28
:10096000FF1FEE58FF4FA591B4912FB7F89466235F
:1009700021F48C919095892302C08C91892B8C93C2
:100980002FBF089508951F920F920FB60F92112452
:100990002F933F934F938F939F93EF93FF93809168
:1009A000C00082FD1DC04091C6002091E60130913B
:1009B000E7012F5F3F4F2F7330708091E8019091D6
:1009C000E9012817390771F0E091E601F091E7019C
:1009D000EA55FE4F40833093E7012093E60102C0C1
:1009E0008091C600FF91EF919F918F914F913F9120
:1009F0002F910F900FBE0F901F901895E0913A0223
:100A0000F0913B02E05CFF4F819191912081318117
:100A1000821B930B8F739070892B11F00E94C2047C
:100A200008951F920F920FB60F9211242F933F93A8
:100A30008F939F93EF93FF9320912A0230912B0283
:100A400080912C0290912D022817390731F4809162
:100A5000C1008F7D8093C10014C0E0912C02F09101
:100A60002D02E651FE4F208180912C0290912D02A3
:100A700001968F73907090932D0280932C02209397
:100A8000C600FF91EF919F918F913F912F910F9011
:100A90000FBE0F901F901895AF92BF92DF92EF920A
:100AA000FF920F931F93CF93DF93EC017A018B0199
:100AB000DD24403081EE580780E0680780E0780749
:100AC00011F0DD24D39491E0A92EB12CEC89FD899D
:100AD000DD2069F0C50108A002C0880F991F0A94A3
:100AE000E2F7808360E079E08DE390E005C010825A
:100AF00060E874E88EE190E0A80197010E94FC0B89
:100B000021503040404050405695479537952795A5
:100B100080E12030380720F0DD2011F0DD24D6CF31
:100B2000E889F9893083EA89FB89208319A2EE8953
:100B3000FF89408121E030E0C9010C8C02C0880FA0
:100B4000991F0A94E2F7482B4083EE89FF89408180
:100B5000C9010D8C02C0880F991F0A94E2F7482B37
:100B60004083EE89FF894081C9010E8C02C0880F45
:100B7000991F0A94E2F7482B4083EE89FF89808110
:100B80000F8C02C0220F331F0A94E2F7209528230E
:100B90002083DF91CF911F910F91FF90EF90DF9015
:100BA000BF90AF900895DC011C96ED91FC911D97CC
:100BB000E05CFF4F2191319180819181281B390B9D
:100BC0002F733070C9010895DC011C96ED91FC91E2
:100BD0001D97E05CFF4F20813181E054F040DF0140
:100BE000AE5BBF4F8D919C9111972817390719F46F
:100BF0002FEF3FEF07C08D919C91E80FF91F808187
:100C0000282F30E0C9010895DC011C96ED91FC917C
:100C10001D97E05CFF4F20813181E054F040DF01FF
:100C2000AE5BBF4F8D919C9111972817390719F42E
:100C30002FEF3FEF10C08D919C911197E80FF91F96
:100C400020818D919C91119701968F7390701196D0
:100C50009C938E9330E0C9010895DC0191968C91AC
:100C60009197882339F05496ED91FC9155978081A6
:100C700086FFF9CF91961C920895CF93DF93EC01F4
:100C8000EE85FF85E05CFF4F20813181E054F0402C
:100C90002F5F3F4F2F733070DF01AE5BBF4F8D91E1
:100CA0009C91119728173907D1F3E05CFF4F8081A1
:100CB0009181E054F040E80FF91F6083EE85FF85D5
:100CC000E05CFF4F31832083EE89FF89208181E042
:100CD00090E00F8C02C0880F991F0A94E2F7282B2E
:100CE000208381E089A3EC89FD89808180648083F1
:100CF00081E090E0DF91CF9108951092310210923F
:100D0000300288EE93E0A0E0B0E08093320290934E
:100D10003302A0933402B093350285E891E09093BA
:100D20002F0280932E0286EA91E090933B028093FB
:100D30003A028AEE91E090933D0280933C0285EC6A
:100D400090E090933F0280933E0284EC90E0909379
:100D500041028093400280EC90E0909343028093A4
:100D6000420281EC90E0909345028093440282EC31
:100D700090E0909347028093460286EC90E0909337
:100D800049028093480284E080934A0283E0809382
:100D90004B0287E080934C0285E080934D0281E016
:100DA00080934E020895CF93DF930E94F4030E9434
:100DB0005001CEEFD4E00E943D022097E1F30E9463
:100DC000FE04F9CFCF92DF92EF92FF920F931F9321
:100DD000CF93DF937C016B018A01C0E0D0E00FC0AC
:100DE000D6016D916D01D701ED91FC910190F081DB
:100DF000E02DC7010995C80FD91F015010400115FA
:100E0000110571F7CE01DF91CF911F910F91FF90E6
:100E1000EF90DF90CF900895EF92FF920F931F9382
:100E20008C01DC01ED91FC910190F081E02D6DE0F1
:100E300009957C01D801ED91FC910190F081E02DA4
:100E4000C8016AE009959C012E0D3F1DC9011F9143
:100E50000F91FF90EF900895CF93DF93EC01611510
:100E6000710519F420E030E00FC0DB010D90002087
:100E7000E9F71197A61BB70BE881F9810280F3818E
:100E8000E02DAD0109959C01C901DF91CF91089535
:100E90004F925F927F928F929F92AF92BF92CF922A
:100EA000DF92EF92FF920F931F93DF93CF93CDB713
:100EB000DEB7A1970FB6F894DEBF0FBECDBF2C01F1
:100EC000742ECB01223008F42AE019A231E2C32E9D
:100ED000D12CCC0EDD1E822E9924AA24BB24672D92
:100EE000752FA50194010E94FC0B79018A01C801AC
:100EF000B701A50194010E94DD0B472D461B089404
:100F0000C108D1084A3014F4405D01C0495CF601C3
:100F10004083E114F1040105110521F07E2C5F2DC1
:100F2000C801DDCFC201B6010E942C07A1960FB601
:100F3000F894DEBF0FBECDBFCF91DF911F910F910F
:100F4000FF90EF90DF90CF90BF90AF909F908F90E9
:100F50007F905F904F900895DC012115310541F499
:100F6000ED91FC910190F081E02D642F0995089599
:100F70000E9448070895EF92FF920F931F937C0100
:100F80000E94AC078C01C7010E940C079C01200F36
:100F9000311FC9011F910F91FF90EF900895CF92DB
:100FA000DF92EF92FF920F931F93CF93DF93EC01A9
:100FB0006A017B012115310541F4E881F981019035
:100FC000F081E02D642F09951FC02A303105D1F43E
:100FD00077FF17C0E881F9810190F081E02D6DE283
:100FE00009958C0144275527BA014C195D096E09F2
:100FF0007F09CE012AE00E9448079801280F391F77
:1010000004C02AE00E9448079C01C901DF91CF91EA
:101010001F910F91FF90EF90DF90CF900895EF9286
:10102000FF920F931F937C010E94CF078C01C70191
:101030000E940C079C01200F311FC9011F910F91C5
:10104000FF90EF900895CF92DF92EF92FF920F936F
:101050001F936C017B019A010027F7FC0095102F6C
:10106000B801A7010E94CF078C01C6010E940C079E
:10107000080F191FC8011F910F91FF90EF90DF908B
:10108000CF9008950E942C070895EF92FF920F933E
:101090001F937C010E942C078C01C7010E940C0742
:1010A000080F191FC8011F910F91FF90EF9008952D
:1010B000FC019B01848195816817790728F4608180
:1010C00071816115710529F41092500260E572E09A
:1010D00002C0620F731FCB010895FC0180819181D2
:1010E000009729F420E030E040E050E004C00E9486
:1010F0008E009B01AC01B901CA010895CF93DF9323
:10110000FC01C081D181209739F409C0992787FD5E
:1011100090950E94240C899388818823B9F7DF91E8
:10112000CF9108950F931F93CF93DF93EC018B0121
:101130006F5F7F4F888199810E94FC0A009711F4AC
:1011400080E005C0998388831B830A8381E0DF9157
:10115000CF911F910F910895CF93DF93EC01888178
:101160009981892B29F08A819B818617970760F4E2
:10117000CE010E949208882341F08C819D81892BA9
:1011800019F4E881F981108281E0DF91CF9108950F
:10119000EF92FF920F931F93CF93DF93EC017B01AC
:1011A0006C817D81E114F104C1F04115510599F084
:1011B0008A01060F171FB8010E94AC08882369F046
:1011C000888199812C813D81820F931FB7010E94F4
:1011D000BE001D830C8381E001C080E0DF91CF91D0
:1011E0001F910F91FF90EF900895DF93CF9300D060
:1011F000CDB7DEB769831A82BE016F5F7F4F41E0D2
:1012000050E00E94C8080F900F90CF91DF91089591
:10121000CF93DF93EC0188819981009711F00E94B0
:10122000640A198218821D821C821B821A82DF9135
:10123000CF910895EF92FF920F931F93CF93DF9377
:10124000EC017B018A01BA010E94AC08882321F4D9
:10125000CE010E94080907C01D830C8388819981F3
:10126000B7010E94BE00CE01DF91CF911F910F9177
:10127000FF90EF900895CF93DF93EC0119821882CD
:101280001B821A821D821C821E826115710551F01B
:10129000DB010D900020E9F71197A61BB70BAD01FC
:1012A0000E941A09DF91CF9108950F931F93182F71
:1012B000092F6115710559F0DB010D900020E9F748
:1012C0001197A61BB70BAD010E941A0902C00E941C
:1012D0000809812F902F1F910F910895BF92CF92EF
:1012E000DF92EF92FF920F931F93CF93DF93082F1C
:1012F000B92E6B017A01E9012417350710F4EA01D0
:101300007901802F9B2D62E771E00E943B09D60195
:1013100014968D919C9115978E159F05D0F08C1782
:101320009D0708F4EC01D601ED91FC911197EC0FAB
:10133000FD1F108110826D917C916E0D7F1D802F9D
:101340009B2D0E945509D601ED91FC91EC0FFD1FDC
:101350001083802F9B2DDF91CF911F910F91FF90D4
:10136000EF90DF90CF90BF9008950F931F938C0163
:10137000FB01248135810E946E09C8011F910F91E4
:101380000895FC01808191810E94640A08950F9361
:101390001F93CF93DF93BC018230910510F462E07C
:1013A00070E0E0915302F091540240E050E0A0E080
:1013B000B0E024C08081918186179707D0F086170E
:1013C000970771F482819381109729F013969C936B
:1013D0008E9312972CC0909354028093530227C08F
:1013E0004115510519F08417950718F48D01AC01CA
:1013F000EF01DF01828193819C01F9013097D1F6E1
:1014000041155105F9F0CA01861B970B84309105EF
:1014100080F48A819B810115110521F0F8019383E5
:10142000828304C09093540280935302FE0132964B
:1014300045C0FE01E80FF91F6193719302979983EC
:1014400088833CC08091510290915202892B41F4D3
:1014500080917D0190917E01909352028093510280
:1014600040917F01509180014115510541F44DB7E4
:101470005EB780917B0190917C01481B590B2091B4
:1014800051023091520224173507B0F4CA01821B71
:10149000930B8617970780F0AB014E5F5F4F841761
:1014A000950750F0420F531F509352024093510240
:1014B000F9016193719302C0E0E0F0E0CF01DF91A8
:1014C000CF911F910F910895CF93DF939C010097C7
:1014D00009F48FC0EC0122971B821A82609153029B
:1014E000709154026115710581F488819981820F90
:1014F000931F20915102309152022817390739F574
:10150000D0935202C093510274C0DB0140E050E01E
:10151000AC17BD0708F1BB83AA83FE01219131916D
:10152000E20FF31FAE17BF0779F48D919C911197CD
:10153000280F391F2E5F3F4F3983288312968D91D4
:101540009C9113979B838A834115510571F4D09325
:101550005402C09353024DC012968D919C911397E3
:10156000AD01009711F0DC01D3CFDA011396DC93C3
:10157000CE931297FA0121913191E20FF31FCE170A
:10158000DF0769F488819981280F391F2E5F3F4F4B
:10159000FA01318320838A819B8193838283E0E0F7
:1015A000F0E0DB0112968D919C911397009719F052
:1015B000BC01FD01F6CFAB014E5F5F4FDB018D91AA
:1015C0009C91840F951F209151023091520228174F
:1015D000390779F4309729F410925402109253028B
:1015E00002C01382128242505040509352024093E4
:1015F0005102DF91CF9108956F927F928F929F92C7
:10160000AF92BF92CF92DF92EF92FF920F931F9310
:10161000CF93DF938C01009729F4CB010E94C70977
:101620008C01BBC08EEFE82E8FEFF82EE00EF11E7E
:101630004801860E971E8E149F0408F4ACC0D70193
:101640004D915C91119746175707B8F045305105F9
:1016500008F4A3C0CA0104978617970708F49DC031
:1016600042505040461B570BF401419351936D93E8
:101670007C93CF010E94640A90C05B01A41AB50A52
:101680003801640E751EA0915302B0915402E0E03F
:10169000F0E0CC24DD2447C0A615B705A9F5CD910F
:1016A000DC911197CE0102968A159B0568F1CE0157
:1016B0008A199B09029612962C91129713963C91C7
:1016C000059758F0F40122833383CA19DB09D183CB
:1016D000C083D7016D937C9309C04E5F5F4F4C0F61
:1016E0005D1FF70151834083C901FC01C114D1047E
:1016F00031F0D6011396FC93EE9312974EC0F093FF
:101700005402E093530249C08D919C911197E817C0
:10171000F90708F4FC016D0112968C91129713964B
:101720009C919C01D901109709F0B6CF809151028C
:101730009091520286159705E9F4E617F707D0F461
:1017400020917F01309180012115310541F42DB7A1
:101750003EB780917B0190917C01281B390B82164A
:101760009306C8F49092520280925102F70171835D
:10177000608313C0CB010E94C709EC01009759F0A8
:10178000D7014D915C91B8010E94B500C8010E943B
:10179000640A8E0102C000E010E0C801DF91CF9121
:1017A0001F910F91FF90EF90DF90CF90BF90AF907F
:1017B0009F908F907F906F900895629FD001739F4C
:1017C000F001829FE00DF11D649FE00DF11D929FDD
:1017D000F00D839FF00D749FF00D659FF00D99271C
:1017E000729FB00DE11DF91F639FB00DE11DF91F40
:1017F000BD01CF0111240895A1E21A2EAA1BBB1B23
:10180000FD010DC0AA1FBB1FEE1FFF1FA217B307CC
:10181000E407F50720F0A21BB30BE40BF50B661FE2
:10182000771F881F991F1A9469F7609570958095A6
:1018300090959B01AC01BD01CF010895EE0FFF1FF4
:101840000590F491E02D09949111089581568A51E3
:1018500008F480528558089510E0C6ECD0E004C02A
:10186000FE010E94200C2296C83CD107C9F7F894CB
:02187000FFCFA8
:101872000053746172742053657269616C20436F06
:101882006D6D756E69636174696F6E20666F72202B
:10189200537465707065726D6F746F7200466F720B
:1018A200776172642053746570733A2000426163F9
:1018B2006B776172642053746570733A2000466FCF
:1018C20072776172643A20002E004261636B776125
:1018D20072643A20005465737466756E6B74696F36
:1018E2006E00000200000000C201008000550200EC
:1018F20000000000003D06E206D3050406E4052DC3
:021902000600DD
:00000001FF
